:020000040800F2
:10000000000004200516020821DD010823DD010897
:1000100025DD010827DD010829DD010800000000B9
:100020000000000000000000000000002BDD0108BF
:100030002DDD0108000000002FDD010831DD010881
:1000400055160208551602085516020855160208DC
:100050005516020855160208E9C8010801C9010829
:1000600055160208551602085516020855160208BC
:1000700055160208551602085516020855160208AC
:10008000551602085516020855160208551602089C
:1000900055160208551602085516020819C9010816
:1000A00085C801085516020855160208551602089B
:1000B0005516020855160208F9C701085516020818
:1000C000551602085516020855160208551602085C
:1000D00055160208E1DB010855DC01085516020837
:1000E00061C901085516020855160208551602087E
:1000F000551602085516020855160208551602082C
:100100000000000055160208D9C70108551602085C
:1001100000000000000000005516020855160208F5
:100120005516020855160208CDDC0108D9DC010875
:1001300055160208551602085516020855160208EB
:1001400055160208551602085516020841DD010829
:1001500055160208551602085516020855160208CB
:1001600055160208551602080000000000000000A5
:10017000000000000000000000000000000000007F
:100180005516020855160208000000000000000085
:100190005516020855160208000000000000000075
:1001A000000000000000000000000000000000004F
:1001B0005516020800000000000000005516020855
:0401C00055160208C6
:1001D00010B5054C237833B9044B13B10448AFF381
:1001E00000800123237010BDB40B0020000000002C
:1001F0005816020808B5034B1BB103490348AFF377
:10020000008008BD00000000B80B0020581602084E
:1002100010F8012B11F8013B012A28BF9A42F7D0B0
:10022000D01A7047034613F8012B002AFBD1181A85
:1002300001387047000000000000000000000000CE
:1002400001F0FF01102A2BDB10F0070F08D010F887
:10025000013B013A8B422DD010F0070F42B3F6D18B
:10026000F0B441EA012141EA014122F007047FF0A4
:1002700000070023F0E80256083C85EA010586EAFB
:10028000010685FA47F5A3FA87F586FA47F6A5FA37
:1002900087F68EB9EED1F0BC01F0FF0102F0070243
:1002A00032B110F8013B013A83EA010313B1F8D1EE
:1002B0000020704701387047002D06BF35460338CF
:1002C000073815F0010F07D1013015F4807F02BF08
:1002D000013015F4C03F0130F0BC0138704700BF59
:1002E00081F0004102E000BF83F0004330B54FEAE7
:1002F00041044FEA430594EA050F08BF90EA020F54
:100300001FBF54EA000C55EA020C7FEA645C7FEAE6
:10031000655C00F0E2804FEA5454D4EB5555B8BF09
:100320006D420CDD2C4480EA020281EA030382EA7A
:10033000000083EA010180EA020281EA0303362D0C
:1003400088BF30BD11F0004F4FEA01314FF4801CDF
:100350004CEA113102D0404261EB410113F0004FF1
:100360004FEA03334CEA133302D0524263EB4303A8
:1003700094EA050F00F0A780A4F10104D5F1200E46
:100380000DDB02FA0EFC22FA05F2801841F10001A1
:1003900003FA0EF2801843FA05F359410EE0A5F175
:1003A00020050EF1200E012A03FA0EFC28BF4CF0A6
:1003B000020C43FA05F3C01851EBE37101F000455C
:1003C00007D54FF0000EDCF1000C7EEB00006EEB69
:1003D0000101B1F5801F1BD3B1F5001F0CD34908F3
:1003E0005FEA30004FEA3C0C04F101044FEA44524A
:1003F00012F5800F80F09A80BCF1004F08BF5FEAD1
:10040000500C50F1000041EB045141EA050130BDB0
:100410005FEA4C0C404141EB010111F4801FA4F153
:100420000104E9D191F0000F04BF01460020B1FAA8
:1004300081F308BF2033A3F10B03B3F120020CDAE0
:100440000C3208DD02F1140CC2F10C0201FA0CF0BE
:1004500021FA02F10CE002F11402D8BFC2F1200C23
:1004600001FA02F120FA0CFCDCBF41EA0C019040D9
:10047000E41AA2BF01EB0451294330BD6FEA040422
:100480001F3C1CDA0C340EDC04F11404C4F120020D
:1004900020FA04F001FA02F340EA030021FA04F31F
:1004A00045EA030130BDC4F10C04C4F1200220FA76
:1004B00002F001FA04F340EA0300294630BD21FAB4
:1004C00004F0294630BD94F0000F83F4801306BF7A
:1004D00081F480110134013D4EE77FEA645C18BF6E
:1004E0007FEA655C29D094EA050F08BF90EA020F05
:1004F00005D054EA000C04BF1946104630BD91EAFD
:10050000030F1EBF0021002030BD5FEA545C05D1FF
:100510004000494128BF41F0004130BD14F580043E
:100520003CBF01F5801130BD01F0004545F0FE41B2
:1005300041F470014FF0000030BD7FEA645C1ABFE7
:10054000194610467FEA655C1CBF0B46024650EA1E
:10055000013406BF52EA033591EA030F41F400214A
:1005600030BD00BF90F0000F04BF0021704730B5D0
:100570004FF4806404F132044FF000054FF00001A5
:1005800050E700BF90F0000F04BF0021704730B566
:100590004FF4806404F1320410F0004548BF40423B
:1005A0004FF000013EE700BF42004FEAE2014FEA90
:1005B00031014FEA02701FBF12F07F4393F07F4F6B
:1005C00081F06051704732F07F4208BF704793F06E
:1005D0007F4F04BF41F40021704730B54FF4607481
:1005E00001F0004521F000411CE700BF50EA010284
:1005F00008BF704730B54FF000050AE050EA01022D
:1006000008BF704730B511F0004502D5404261EB9C
:1006100041014FF4806404F132045FEA915C3FF4DD
:10062000D8AE4FF003025FEADC0C18BF03325FEA7A
:10063000DC0C18BF033202EBDC02C2F1200300FA2B
:1006400003FC20FA02F001FA03FE40EA0E0021FA50
:1006500002F11444BDE600BF70B54FF0FF0C4CF43E
:10066000E06C1CEA11541DBF1CEA135594EA0C0FF0
:1006700095EA0C0F00F0DEF82C4481EA030621EA2B
:100680004C5123EA4C5350EA013518BF52EA033566
:1006900041F4801143F4801338D0A0FB02CE4FF018
:1006A0000005E1FB02E506F00042E0FB03E54FF048
:1006B0000006E1FB03569CF0000F18BF4EF0010E40
:1006C000A4F1FF04B6F5007F64F5407404D25FEA3C
:1006D0004E0E6D4146EB060642EAC62141EA5551EF
:1006E0004FEAC52040EA5E504FEACE2EB4F1FD0C31
:1006F00088BFBCF5E06F1ED8BEF1004F08BF5FEAAF
:10070000500E50F1000041EB045170BD06F0004660
:1007100046EA010140EA020081EA0301B4EB5C040D
:10072000C2BFD4EB0C0541EA045170BD41F4801105
:100730004FF0000E013C00F3AB8014F1360FDEBF2A
:10074000002001F0004170BDC4F10004203C35DA06
:100750000C341BDC04F11404C4F1200500FA05F389
:1007600020FA04F001FA05F240EA020001F000422A
:1007700021F0004110EBD37021FA04F642EB0601A0
:100780005EEA430E08BF20EAD37070BDC4F10C04CA
:10079000C4F1200500FA04F320FA05F001FA04F28E
:1007A00040EA020001F0004110EBD37041F100017A
:1007B0005EEA430E08BF20EAD37070BDC4F1200585
:1007C00000FA05F24EEA020E20FA04F301FA05F2ED
:1007D00043EA020321FA04F001F0004121FA04F295
:1007E00020EA020000EBD3705EEA430E08BF20EA65
:1007F000D37070BD94F0000F0FD101F0004640009F
:1008000041EB010111F4801F08BF013CF7D041EA20
:10081000060195F0000F18BF704703F00046520024
:1008200043EB030313F4801F08BF013DF7D043EAF5
:100830000603704794EA0C0F0CEA135518BF95EAAB
:100840000C0F0CD050EA410618BF52EA4306D1D132
:1008500081EA030101F000414FF0000070BD50EA51
:10086000410606BF1046194652EA430619D094EADB
:100870000C0F02D150EA013613D195EA0C0F05D1C5
:1008800052EA03361CBF104619460AD181EA030119
:1008900001F0004141F0FE4141F470014FF00000D1
:1008A00070BD41F0FE4141F4780170BD70B54FF06C
:1008B000FF0C4CF4E06C1CEA11541DBF1CEA1355EC
:1008C00094EA0C0F95EA0C0F00F0A7F8A4EB0504CE
:1008D00081EA030E52EA03354FEA013100F08880C5
:1008E0004FEA03334FF0805545EA131343EA12638E
:1008F0004FEA022245EA111545EA10654FEA002643
:100900000EF000419D4208BF964244F1FD0404F5FB
:10091000407402D25B084FEA3202B61A65EB030557
:100920005B084FEA32024FF480104FF4002CB6EB14
:10093000020E75EB030E22BFB61A754640EA0C0094
:100940005B084FEA3202B6EB020E75EB030E22BFD4
:10095000B61A754640EA5C005B084FEA3202B6EB15
:10096000020E75EB030E22BFB61A754640EA9C00D4
:100970005B084FEA3202B6EB020E75EB030E22BFA4
:10098000B61A754640EADC0055EA060E18D04FEA62
:10099000051545EA16754FEA06164FEAC30343EA02
:1009A00052734FEAC2025FEA1C1CC0D111F4801FCF
:1009B0000BD141EA00014FF000004FF0004CB6E7C8
:1009C00011F4801F04BF01430020B4F1FD0C88BF67
:1009D000BCF5E06F3FF6AFAEB5EB030C04BFB6EB72
:1009E000020C5FEA500C50F1000041EB045170BD65
:1009F0000EF0004E4EEA113114EB5C04C2BFD4EB92
:100A00000C0541EA045170BD41F480114FF0000E15
:100A1000013C90E645EA060E8DE60CEA135594EA91
:100A20000C0F08BF95EA0C0F3FF43BAF94EA0C0F94
:100A30000AD150EA01347FF434AF95EA0C0F7FF409
:100A400025AF104619462CE795EA0C0F06D152EA5D
:100A500003353FF4FDAE1046194622E750EA410641
:100A600018BF52EA43067FF4C5AE50EA41047FF452
:100A70000DAF52EA43057FF4EBAE12E74A0011D204
:100A800012F5001211D20DD56FF47873B3EB6252E8
:100A90000ED44FEAC12343F0004343EA505323FAF4
:100AA00002F070474FF00000704750EA013002D169
:100AB0004FF0FF3070474FF0000070474FEA41029F
:100AC000B2F1E04324BFB3F5001CDCF1FE5C0DD9AC
:100AD00001F0004C4FEAC0024CEA5070B2F1004FF6
:100AE00040EB830008BF20F00100704711F0804FF9
:100AF00021D113F13872BCBF01F00040704741F4BE
:100B000080114FEA5252C2F11802C2F1200C10FAC1
:100B10000CF320FA02F018BF40F001004FEAC123A5
:100B20004FEAD32303FA0CFC40EA0C0023FA02F349
:100B30004FEA4303CCE77FEA625307D150EA01331F
:100B40001EBF4FF0FE4040F44000704701F00040EF
:100B500040F0FE4040F40000704700BF80F00040CD
:100B600002E000BF81F0004142001FBF5FEA410385
:100B700092EA030F7FEA226C7FEA236C6AD04FEA85
:100B80001262D2EB1363C1BFD218414048404140CA
:100B9000B8BF5B42192B88BF704710F0004F40F47C
:100BA000000020F07F4018BF404211F0004F41F498
:100BB000000121F07F4118BF494292EA030F3FD064
:100BC000A2F1010241FA03FC10EB0C00C3F1200377
:100BD00001FA03F100F0004302D5494260EB400006
:100BE000B0F5000F13D3B0F1807F06D340084FEA71
:100BF000310102F10102FE2A51D2B1F1004F40EB66
:100C0000C25008BF20F0010040EA030070474900CD
:100C100040EB000010F4000FA2F10102EDD1B0FA98
:100C200080FCACF1080CB2EB0C0200FA0CF0AABF8D
:100C300000EBC25052421843BCBFD040184370472B
:100C400092F0000F81F4000106BF80F40000013231
:100C5000013BB5E74FEA41037FEA226C18BF7FEA08
:100C6000236C21D092EA030F04D092F0000F08BF4A
:100C70000846704790EA010F1CBF0020704712F031
:100C80007F4F04D1400028BF40F00040704712F170
:100C900000723CBF00F50000704700F0004343F0D5
:100CA000FE4040F4000070477FEA226216BF08460B
:100CB0007FEA23630146420206BF5FEA412390EACE
:100CC000010F40F4800070474FF0000304E000BFC4
:100CD00010F0004348BF40425FEA000C08BF704775
:100CE00043F0964301464FF000001CE050EA010239
:100CF00008BF70474FF000030AE000BF50EA01024E
:100D000008BF704711F0004302D5404261EB41013A
:100D10005FEA010C02BF84460146002043F0B6435F
:100D200008BFA3F18053A3F50003BCFA8CF2083A84
:100D3000A3EBC25310DB01FA02FC634400FA02FC8D
:100D4000C2F12002BCF1004F20FA02F243EB020094
:100D500008BF20F00100704702F1200201FA02FCF6
:100D6000C2F1200250EA4C0021FA02F243EB0200E9
:100D700008BF20EADC7070474FF0FF0C1CEAD0522D
:100D80001EBF1CEAD15392EA0C0F93EA0C0F6FD0EE
:100D90001A4480EA010C400218BF5FEA41211ED0CC
:100DA0004FF0006343EA501043EA5111A0FB0131B8
:100DB0000CF00040B1F5000F3EBF490041EAD3718D
:100DC0005B0040EA010062F17F02FD2A1DD8B3F109
:100DD000004F40EBC25008BF20F00100704790F078
:100DE000000F0CF0004C08BF49024CEA502040EACA
:100DF00051207F3AC2BFD2F1FF0340EAC250704790
:100E000040F400004FF00003013A5DDC12F1190FCD
:100E1000DCBF00F000407047C2F10002410021FA3F
:100E200002F1C2F1200200FA02FC5FEA310040F157
:100E3000000053EA4C0308BF20EADC70704792F0D0
:100E4000000F00F0004C02BF400010F4000F013A08
:100E5000F9D040EA0C0093F0000F01F0004C02BF03
:100E6000490011F4000F013BF9D041EA0C018FE772
:100E70000CEAD15392EA0C0F18BF93EA0C0F0AD078
:100E800030F0004C18BF31F0004CD8D180EA01009E
:100E900000F00040704790F0000F17BF90F0004F37
:100EA000084691F0000F91F0004F14D092EA0C0F19
:100EB00001D142020FD193EA0C0F03D14B0218BFAC
:100EC000084608D180EA010000F0004040F0FE40F2
:100ED00040F40000704740F0FE4040F4400070478E
:100EE0004FF0FF0C1CEAD0521EBF1CEAD15392EA0D
:100EF0000C0F93EA0C0F69D0A2EB030280EA010CFD
:100F000049024FEA402037D04FF0805343EA111195
:100F100043EA10130CF000408B4238BF5B0042F1F3
:100F20007D024FF4000C8B4224BF5B1A40EA0C0098
:100F3000B3EB510F24BFA3EB510340EA5C00B3EBCA
:100F4000910F24BFA3EB910340EA9C00B3EBD10FB8
:100F500024BFA3EBD10340EADC001B0118BF5FEA0A
:100F60001C1CE0D1FD2A3FF650AF8B4240EBC25033
:100F700008BF20F0010070470CF0004C4CEA5020F4
:100F80007F32C2BFD2F1FF0340EAC250704740F443
:100F900000004FF00003013A37E792F0000F00F035
:100FA000004C02BF400010F4000F013AF9D040EAB3
:100FB0000C0093F0000F01F0004C02BF490011F447
:100FC000000F013BF9D041EA0C0195E70CEAD1533F
:100FD00092EA0C0F08D142027FF47DAF93EA0C0F26
:100FE0007FF470AF084676E793EA0C0F04D14B020A
:100FF0003FF44CAF08466EE730F0004C18BF31F0BC
:10100000004CCAD130F000427FF45CAF31F00043B5
:101010007FF43CAF5FE700BF4FF0FF3C06E000BF4E
:101020004FF0010C02E000BF4FF0010C4DF804CD71
:101030004FEA40024FEA41037FEA226C18BF7FEA81
:10104000236C11D001B052EA530C18BF90EA010F83
:1010500058BFB2EB030088BFC81738BF6FEAE17012
:1010600018BF40F0010070477FEA226C02D15FEAAE
:10107000402C05D17FEA236CE4D15FEA412CE1D01A
:101080005DF8040B704700BF844608466146FFE7E1
:101090000FB5FFF7C9FF002848BF10F1000F0FBDC3
:1010A0004DF808EDFFF7F4FF0CBF012000205DF8BC
:1010B00008FB00BF4DF808EDFFF7EAFF34BF012041
:1010C00000205DF808FB00BF4DF808EDFFF7E0FFDA
:1010D00094BF012000205DF808FB00BF4DF808ED2B
:1010E000FFF7D2FF94BF012000205DF808FB00BF8E
:1010F0004DF808EDFFF7C8FF34BF012000205DF870
:1011000008FB00BF4FEA40024FEA41037FEA226C2E
:1011100002D15FEA402C08D17FEA236C02D15FEA5A
:10112000412C02D14FF0000070474FF00100704792
:101130004FEA4002B2F1FE4F0FD34FF09E03B3EBE4
:1011400012620DD94FEA002343F0004310F0004F24
:1011500023FA02F018BF404270474FF0000070477A
:1011600012F1610F01D1420205D110F0004008BF19
:101170006FF0004070474FF00000704742000ED201
:10118000B2F1FE4F0BD34FF09E03B3EB126209D4C2
:101190004FEA002343F0004323FA02F070474FF078
:1011A0000000704712F1610F01D1420202D14FF0ED
:1011B000FF3070474FF00000704700BF53B94AB985
:1011C000002908BF00281CBF4FF0FF314FF0FF304F
:1011D00000F072B9ADF1080C6DE904CE00F006F82C
:1011E000DDF804E0DDE9022304B070472DE9F047A3
:1011F000089E04468846002B4BD18A42154667D983
:10120000B2FA82F24AB1C2F1200701FA02F320FADF
:1012100007F7954047EA030894404FEA154E230C20
:10122000B8FBFEF71FFA85FC0EFB178843EA08435C
:1012300007FB0CF1994209D9EB1807F1FF3080F058
:101240001B81994240F21881023F2B445B1AA4B2E1
:10125000B3FBFEF00EFB103344EA034400FB0CFC2E
:10126000A44509D92C1900F1FF3380F00781A4456A
:1012700040F2048102382C4440EA0740A4EB0C04FD
:1012800000271EB1D4400023C6E900433946BDE81B
:10129000F0878B4209D9002E00F0EB800027C6E9C9
:1012A000000138463946BDE8F087B3FA83F7002FCE
:1012B00047D18B4202D3824200F2FA80841A61EB5A
:1012C000030301209846002EE0D0C6E90048DDE780
:1012D00002B9FFDEB2FA82F2002A40F08F80491B89
:1012E0004FEA154E1FFA85F80127B1FBFEFC230CCF
:1012F0000EFB1C1143EA014308FB0CF1994207D98C
:10130000EB180CF1FF3002D2994200F2CD808446F6
:10131000591AA3B2B1FBFEF00EFB101443EA0444C9
:1013200008FB00F8A04507D92C1900F1FF3302D2C1
:10133000A04500F2B6801846A4EB080440EA0C4031
:101340009FE7C7F1200CBB4022FA0CFE4EEA030EC9
:1013500001FA07F420FA0CF521FA0CF34FEA1E48C3
:101360002543B3FBF8F92C0C08FB19331FFA8EFA4E
:1013700044EA034309FB0AF49C4202FA07F200FA2A
:1013800007F10BD91EEB030309F1FF3080F08780D2
:101390009C4240F28480A9F1020973441B1BADB248
:1013A000B3FBF8F008FB103345EA034400FB0AFAEC
:1013B000A24508D91EEB040400F1FF336BD2A2450D
:1013C00069D90238744440EA0940A0FB0289A4EBC1
:1013D0000A044C45C2464B4654D351D0002E69D026
:1013E000B1EB0A0564EB030404FA0CFCFD40FC407D
:1013F0004CEA0505C6E90054002747E7C2F120037F
:1014000020FA03F7954001FA02F021FA03F34FEABC
:10141000154E3843010CB3FBFEF71FFA85F80EFB9F
:10142000173341EA034107FB08F38B4204FA02F445
:1014300007D9691807F1FF3C2FD28B422DD9023F03
:101440002944CB1A81B2B3FBFEF00EFB103341EA04
:10145000034100FB08F38B4207D9691800F1FF3CF8
:1014600017D28B4215D902382944C91A40EA0747D6
:101470003BE73746304609E70746E7E61846FBE60E
:101480004145ABD2B8EB020A69EB0E0201381346B4
:10149000A4E76046E9E7184695E76746D1E7814645
:1014A0007CE702382C4447E7ACF1020C2B442FE7D1
:1014B000384608E73746E9E6704700BF4FF0FF3C83
:1014C00006E000BF4FF0010C02E000BF4FF0010C3E
:1014D0004DF804CD4FEA410C7FEA6C5C4FEA430CB7
:1014E00018BF7FEA6C5C1BD001B050EA410C0CBF06
:1014F00052EA430C91EA030F02BF90EA020F002068
:10150000704710F1000F91EA030F58BF994208BFCE
:1015100090422CBFD8176FEAE37040F0010070478B
:101520004FEA410C7FEA6C5C02D150EA013C07D1E2
:101530004FEA430C7FEA6C5CD6D152EA033CD3D02D
:101540005DF8040B704700BF8446104662468C4627
:101550001946634600E000BF01B5FFF7B7FF00285A
:1015600048BF10F1000F01BD4DF808EDFFF7F4FF83
:101570000CBF012000205DF808FB00BF4DF808ED0E
:10158000FFF7EAFF34BF012000205DF808FB00BF31
:101590004DF808EDFFF7E0FF94BF012000205DF853
:1015A00008FB00BF4DF808EDFFF7CEFF94BF012008
:1015B00000205DF808FB00BF4DF808EDFFF7C4FF01
:1015C00034BF012000205DF808FB00BF7047000019
:1015D00010B5094B4FF0FF3200241A621C625A62A8
:1015E0005C621A611C615A615C619A619C61FFF7DF
:1015F000EDFF204610BD00BF0038024038B50E4A4E
:101600000E4B054618784FF47A73B3FBF0F310686D
:10161000B0FBF3F000F0BEF8044658B90F2D09D81E
:10162000024629464FF0FF3000F05EF8044B20469A
:101630001D6038BD0120FCE7D80900200000002013
:101640000400002008B50B4B1A6842F400721A60BF
:101650001A6842F480621A601A6842F480721A6052
:10166000032000F02FF80F20FFF7C8FF1CF03AFB13
:10167000002008BD003C0240034A044B11681B785F
:101680000B441360704700BF343900200000002075
:10169000014B1868704700BF3439002038B5044644
:1016A000FFF7F6FF631C1CBF054B1B78054618BFF0
:1016B000E418FFF7EDFF401BA042FAD338BD00BF8E
:1016C00000000020074AD36823F4E0631B041B0CCE
:1016D00043F0BF63000243F4003300F4E0600343CF
:1016E000D360704700ED00E0174B70B5DC68C4F3C1
:1016F0000224C4F10705042D04F1040328BF0425C6
:101700004FF0FF36062B06FA05F38CBF033C00248E
:1017100021EA0303A34006FA04F422EA04040028A1
:1017200043EA0403A8BF00F160404FEA0313BCBFC3
:1017300000F00F00054ADBB2AABF00F56140135468
:1017400080F8003370BD00BF00ED00E014ED00E054
:10175000002808DB4209012300F01F0003FA00F013
:10176000014B43F82200704700E100E000280DDB48
:101770004309012200F01F0002FA00F02033044A5E
:1017800042F82300BFF34F8FBFF36F8F704700BF46
:1017900000E100E00138B0F1807F0AD2064B074A31
:1017A0005860F02182F823100020072298601A6008
:1017B00070470120704700BF10E000E000ED00E03E
:1017C000F7B5002301935C4B856D1F68C36D2E68D0
:1017D00008229A40324204460CD00168086840074B
:1017E00008D5086820F004000860AA60626D42F025
:1017F0000102626501229A40324208D0216849699B
:10180000090641BFAA60626D42F0020262650422CD
:101810009A40324208D021680968880741BFAA600F
:10182000626D42F00402626510229A40324210D08A
:101830002368196809070CD5AA601A68500337D5C0
:101840001B68190301D4236C00E0A36C0BB1204684
:101850009847E16D20228A4032423AD023681868C6
:10186000C60636D5AA6094F83520052A1A6827D10D
:1018700022F016021A605A6922F080025A61226C24
:101880000AB9A26C1AB11A6822F008021A603F2342
:101890008B40AB60012384F83530002384F834306A
:1018A000236D002B45D0204603B0BDE8F04018471B
:1018B0001A68D2055EBF1A6822F008021A60C2E7F1
:1018C000500327D51B68190331D4636C0BB1204634
:1018D0009847636D6BB3636DDA0719D505232268EA
:1018E00084F83530136823F0010313604FF4165366
:1018F000B7FBF3F7019B0133BB42019302D8136896
:10190000DB07F7D4012384F83530002384F8343022
:10191000E36CC6E71A6812F4807208D1196821F0E6
:1019200010011960012384F8353084F83420E36B0A
:10193000CCE703B0F0BD00BFD8090020094910B5BD
:101940000C6924F440740C610C6944F440740C611B
:101950000C6944F001040C610260BFF36F8F4360B7
:1019600010BD00BF003C0240074B1A6922F44072D0
:101970001A611A6942F400721A611A6942F001028E
:101980001A610160704700BF003C0240074B1A69B2
:1019900022F440721A611A6942F480721A611A695B
:1019A00042F001021A610180704700BF003C024012
:1019B000204BDA68D00606D51F49CA6942F01002EA
:1019C000CA611022DA60DA68910606D51A49CA6936
:1019D00042F00802CA612022DA60164BDA68520629
:1019E00006D51549CA6942F00402CA614022DA608C
:1019F000DA68100606D51049CA6942F00202CA61C7
:101A00008022DA600B4BDA68D10507D50A49CA692A
:101A100042F00102CA614FF48072DA60DA6892071C
:101A200006D50549CA6942F02002CA610222DA607D
:101A3000704700BF003C024038390020064B1A694D
:101A4000002ABFBF054A5A6002F188325A60BABF05
:101A50001869C00F00207047003C02402301674511
:101A6000034A136943F0004313610020704700BF2D
:101A7000003C0240F8B5124B124C00220546DA61D8
:101A8000FFF706FE26460746E368DA030CD4E36850
:101A9000DB0744BF0123E360F06810F4F97007D05E
:101AA000FFF786FF012003E0691CEDD00DB903208C
:101AB000F8BDFFF7EDFDC01BA842E5D9F7E700BF71
:101AC00038390020003C02402DE9F0411F4D984676
:101AD0002B7E012B07460E46144635D001234CF2CF
:101AE00050302B76FFF7C6FFB0B9CFB9184B1A6943
:101AF00022F440721A611A691A611A69E4B242F05A
:101B000001021A6134704CF25030FFF7B3FF104AF3
:101B1000136923F00103136100232B76BDE8F081E4
:101B2000012F04D1A1B23046FFF730FFEBE7022FBF
:101B300004D121463046FFF717FFE4E7224643462B
:101B40003046FFF7FBFEDEE70220E7E738390020EA
:101B5000003C0240074B1A6922F440721A611A696C
:101B600042F004021A611A6942F4803242EA00200B
:101B700018617047003C024039B101291CD002298C
:101B80000CBF4FF400714FF440710D4B1A6922F4F1
:101B900040721A611A69114319611A6922F0F80238
:101BA0001A611A6942F0020242EAC00018611A6919
:101BB00042F480321A6170474FF48071E5E700BF4C
:101BC000003C0240144B1A6891050FD51A6822F4A4
:101BD00000721A601A6842F400621A601A6822F4ED
:101BE00000621A601A6842F400721A600A4B1A689E
:101BF00052050FD51A6822F480621A601A6842F4FE
:101C000080521A601A6822F480521A601A6842F4EC
:101C100080621A60704700BF003C02402DE9F84323
:101C2000234E337E012B044688463FD001234CF2DD
:101C300050303376FFF71EFF0546A8B94FF0FF334B
:101C4000C8F800302368012B13D1207CFFF782FFF6
:101C50004CF25030FFF70EFF164A136923F00403CD
:101C600005461361FFF7AEFF002333762846BDE833
:101C7000F883A768DFF83C90D4E902231344BB4201
:101C8000F0D9217C3846FFF777FF4CF25030FFF750
:101C9000F1FED9F8103023F0FA03C9F8103018B16A
:101CA000C8F800700546DDE70137E5E70225DDE706
:101CB00038390020003C02402DE9F04F85B00B6818
:101CC000DFF8A481664A01934FF0010B0023019DC8
:101CD0000BFA03F42540AC4240F0B2804E684FEA64
:101CE000430E06F00304032707FA0EF704F1FF3C46
:101CF000FF43BCF1010F00973CD8D0F808C00CEAB4
:101D0000070CCF6807FA0EF949EA0C0CC0F808C0B6
:101D1000D0F80490C6F3001C29EA05090CFA03FC6C
:101D20004CEA090CC0F804C0D0F80CC0009F0CEAC3
:101D3000070C8F6807FA0EF949EA0C0C022CC0F860
:101D40000CC019D14FEAD30900EB890903F0070A47
:101D5000D9F820704FEA8A0A4FF00F0C0CFA0AFCEF
:101D600027EA0C0C0F6907FA0AFA4AEA0C0AC9F8C2
:101D700020A001E0032CD7D1D0F800C0009F04FAC6
:101D80000EF40CEA0707274316F4403F076057D0CC
:101D90004FF0000ACDF80CA0D8F84470314C47F44D
:101DA0008047C8F84470D8F8447007F48047039718
:101DB000039F23F0030707F1804707F59C3703F0E3
:101DC000030ED7F808904FEA8E0E4FF00F0C0CFA66
:101DD0000EFCA04229EA0C0C39D004F58064A04224
:101DE00037D004F58064A04235D004F58064A04269
:101DF00033D004F58064A04214BF0724042404FAFD
:101E00000EF444EA0C04BC601468EF4316F4803FFF
:101E10000CBF3C402C431460546816F4003F0CBFC8
:101E20003C402C435460946816F4801F0CBF3C4027
:101E30002C439460D468B60254BF3C402C43D46019
:101E40000133102B7FF443AF05B0BDE8F08F54464B
:101E5000D5E70124D3E70224D1E70324CFE700BF6D
:101E6000003C01400000024000380240F0B504464A
:101E70008BB060B390F8BD33056803F0FF021BB967
:101E800080F8BC2319F010F9032384F8BD33EB6B01
:101E9000254613F4807355F8100B08BF236101F039
:101EA000FBFA0FCD6E460FC60FCD0FC695E80300A7
:101EB00086E803002546271D97E80E0055F8100B0D
:101EC00001F030FA064620B1022384F8BD33012523
:101ED00056E00146206801F0E5FA3046D4F804C027
:101EE0001C264FF0010E0146C2B2944500F10100DC
:101EF0001CD800231C261946D8B2844503F10103DF
:101F000022D80FCD6E460FC60FCD0FC695E8030041
:101F100086E8030097E80E00206801F029FB012302
:101F2000054600B3022284F8BD23D0E706FB024336
:101F3000C3E9111183F83DE083F83C20A3F8422067
:101F400083F83F101965CFE706FB004282F8FD11C8
:101F500082F8FC0182F8FF11C2F80412C2F80812DC
:101F6000C2F81012C8E784F8380084F8BD33636AF9
:101F7000012B02D1204600F056FC206801F043FE00
:101F800028460BB0F0BD90F8BC33012B10B50446C9
:101F900016D00123006884F8BC33A36A012B06D154
:101FA000A369012B1EBF836B43F48033836301F06D
:101FB0006DFA206801F019FE002084F8BC0310BD02
:101FC0000220FCE72DE9F04F056887B0044628465B
:101FD00001F056FE0290002840F03B81206801F09D
:101FE00020FE002800F03581206801F01AFE8207EB
:101FF00048BF2268206842BF536903F0020353615F
:1020000001F00FFEC3062AD52268936923F010035E
:1020100093612E6AC6F34343022B06F00F0840F08B
:102020001B8147F6F0731E4214D01C2707FB08479C
:10203000C6F30A163246D7F80812284601F04CFDBE
:10204000D7F808323344C7F80832D7F814321E44A0
:10205000C7F814622268936943F010039361206803
:1020600001F0DFFD070300F10681206801F0D9FDD2
:1020700046030BD5206801F0E0FD26468246002786
:1020800005F51069BAF1000F40F0A381206801F056
:10209000C8FD002815DAD5F8043823F00103C5F887
:1020A000043894F8F433012B40F02E82002184F898
:1020B000F413204600F0CAFB2268536903F0004382
:1020C0005361206801F0ADFD00050BD5D5F8083847
:1020D000D90702D5204619F057F82268536903F44E
:1020E00000635361206801F09CFD020114D5236850
:1020F0005A6902F000625A6194F8F423002A40F011
:1021000007825B6D0121C3F3830384F8F413C4F8E1
:10211000F833204600F09AFB206801F082FDC304EA
:1021200035D505F500667368206823F001037360F8
:10213000102101F0E7F9606805F510634FF67F3173
:10214000029A904240F0E881F36943F00113F36191
:10215000236B002B00F0FC81D6F8843043F00B0396
:10216000C6F88430736C43F00B037364D5F8003801
:10217000217C206823F4FE63C5F8003804F57172F1
:1021800001F092FD2268536903F480535361206883
:1021900001F047FD870416D5206801F075FD206821
:1021A00001F09EFAE060256800F01AFC227B0146EF
:1021B000284601F0F7F8204618F0D3FF226853694B
:1021C00003F400535361206801F02BFD060707D587
:1021D000204618F0C2FF2268536903F008035361D8
:1021E000206801F01EFDC50208D50021204618F028
:1021F000EBFF2268536903F480135361206801F0F8
:1022000010FD800208D50021204618F0D9FF226871
:10221000536903F400135361206801F002FD41008B
:1022200007D5204618F0D4FF2268536903F0804395
:102230005361206801F0F5FC42070AD523685D6808
:102240006B0702D5204618F0C7FF226853682B435E
:10225000536007B0BDE8F08F062B7FF4FBAE082279
:1022600004F5717128461C2701F036FC07FB08476E
:10227000C6F30A16E9E62068DFF8EC92DFF8ECB264
:1022800001F0D3FC00268046B8F1000F3FF4EDAE1C
:1022900018F0010F61D05FFA86FA5146206801F00C
:1022A000D4FC0746F8071CD5730105F530621A44C3
:1022B00020680121916000F530622169D0F840C0AA
:1022C000134401299A686DD1110706D5CC4508D968
:1022D000100406D54FF4004202E0910641D52022B9
:1022E0009A60380720D5730105F530621A44082139
:1022F00091602268D2F840A002F530621344CA45CA
:102300009A6804D9110444BF4FF400429A602046F1
:1023100018F00CFFCA4507D92169012904D104F539
:102320007172206801F0C0FCFA0641BF05F5306308
:1023300003EB461310229A60BB0641BF05F53063DC
:1023400003EB461320229A60BF0441BF05F53063BA
:1023500003EB46134FF400529A6001364FEA5808D7
:1023600092E712F0280FBCD1CC4501D91204B1D4A8
:102370001C2202FB06421B69D2F80412C3F31203AB
:10238000CB1AC2F81432D2F808321944C2F8081233
:1023900086B9D4F810326BB904F57172012101F0DD
:1023A00083FC07E0DC450AD1110493D4920601D5E1
:1023B00020229A605146204618F0BEFE91E7002E7A
:1023C000F8D1D4F81032002BF4D104F571723146F3
:1023D000E5E71AF0010F74D05FFA87FB59462068D1
:1023E00001F03CFC10F0010F804620D0D5F83438C5
:1023F0002169012007F00F0200FA02F223EA02032A
:10240000C5F8343809EB4713814298600BD1D6E9FF
:1024100011231344B36437B9236D23B904F57172E2
:10242000206801F041FC5946204618F08EFE18F055
:10243000080F1EBF09EB471308229A6018F0100F0F
:102440001EBF09EB471310229A6018F0400F1EBF01
:1024500009EB471340229A6018F0020F1EBF09EBE8
:10246000471302229A6018F0800F2AD0D6E914325E
:102470009A4226D89B1A726C21680391934228BF16
:10248000134603339B08049301F5106303EB4713D2
:102490000593059B0498996989B28142D6E9143263
:1024A00014D293420DD8039B07F00F0203F5006B83
:1024B0000121D3F8343801FA02F223EA0203CBF8FF
:1024C000343001374FEA5A0A1C36DBE59342EAD929
:1024D000002BE8D0A3EB0208736C0398984528BF43
:1024E000984608F103039B080493237C00935A4603
:1024F0001FFA88F3B16C01F003FAB36C4344B36480
:10250000736D43447365C4E7204618F055FED3E568
:10251000204618F039FEFFE599601A6822F400128F
:102520001A601A6842F000621A60C3F80812D3F801
:10253000002222F40012C3F80022D3F8002242F055
:102540000062C3F80022029A013202922033F7E5BA
:10255000736943F4005343F02B037361336943F011
:102560000B03336102E600BF0A30544F0A31544F67
:1025700090F8BC23012A10B504460BD0012280F844
:10258000BC2384F83810006801F01FFB002084F899
:10259000BC0310BD0220FCE770B501F00F05044636
:1025A00011F0800FC5EBC5004FEA80004FF01C060C
:1025B0001FD006FB054600F13C010120214486F8AE
:1025C0003D008A604A780D70CB7002B1CD80022B3D
:1025D00004BF00230B7194F8BC33012B12D00123EC
:1025E00084F8BC33206801F086F8002084F8BC032E
:1025F00070BD06FB054600F5FE710020214486F8FB
:10260000FD01DEE70220F3E710B5044601F00F00FC
:10261000C0EBC00311F0800F4FEA83034FF01C02A0
:1026200016D002FB004203F13C010123214482F851
:102630003D30087094F8BC33012B12D0012384F88C
:10264000BC33206801F096F8002084F8BC0310BD6C
:1026500002FB004203F5FE710023214482F8FD31A4
:10266000E7E70220F3E738B501F00F051C2404FB6F
:10267000050104FB050401F5FE71C4F810320023C6
:10268000C4F80822C4F8143284F8FD3184F8FC51EF
:1026900003690068012B08BFC4F80C22DAB21DB927
:1026A00001F0BAF8002038BD01F03EF9FAE71C232A
:1026B00001F00F0103FB0101D1F81402704738B596
:1026C00001F00F051C2404FB050104FB05043C314B
:1026D0002365002363650123A26484F83D3084F8F8
:1026E0003C5003690068012B08BFE264DAB21DB9EF
:1026F00001F092F8002038BD01F016F9FAE738B57C
:10270000436801F00F059D4204462ED811F0800F5A
:102710004FF01C021FD002FB050102FB0503012242
:102720003C3381F83D2001229A701D7094F8BC134F
:1027300091421CD084F8BC231946206801F0F1F9BD
:102740002DB904F57172217C206801F0ADFA0020EA
:1027500084F8BC0338BD02FB010302FB0101002227
:1027600003F5FE7381F8FD21DDE70120F2E7022089
:10277000F0E738B5436801F00F029A4204462AD8C0
:10278000C2EBC20311F0800F4FEA83034FF01C002D
:1027900018D000FB024003F13C010123214480F8E2
:1027A0003D3000258D700A7094F8BC33012B14D095
:1027B000012384F8BC33206801F0DEF984F8BC53AF
:1027C000284638BD00FB024003F5FE71002321447A
:1027D00080F8FD31E5E70120F3E70220F1E700682A
:1027E00070B51204446A19B922438262002070BD98
:1027F000836A4D1E04EB134400235E1CDBB29D4232
:1028000005D83F3100EB810022434260EEE74033C0
:1028100000EB83035B6804EB13443346EDE7036886
:10282000002059627047026803460121C0F8FC137A
:10283000002083F8F403936943F000639361536DC0
:1028400043F0805343F00303536570477047000023
:10285000134908B58B6803F00C03042B03D0082B35
:1028600003D0104800E0104808BD4A684B6849682A
:1028700013F4800314BF0C480A48C1F3881118BF31
:10288000002302F03F02A1FB0001FEF797FC044B7E
:102890005B68C3F3014301335B00B0FBF3F0E3E794
:1028A000003802400024F40040787D012DE9F04119
:1028B0000D46044610B90120BDE8F081434B1A686B
:1028C00002F007028A4228D321688F072DD4C80757
:1028D00040D43E4B1A6802F00702AA4265D822682B
:1028E00051076BD4130707D5394A2169936823F43C
:1028F000604343EAC1039360FFF7AAFF344B354AB4
:102900009B68C3F30313D35CD840334B1860334B3D
:102910001868FEF773FE0020CEE7CAB21A701B6873
:1029200003F007038B42C6D1CEE7294B11F0040F09
:102930001EBF9A6842F4E0529A600E0742BF9A683E
:1029400042F460429A609A68A06822F0F002024362
:102950009A60BCE762681E4B012A1CD11B6813F405
:10296000003FA8D01A4EB36823F003031343B360AB
:10297000FEF78EFE41F288380746B368626803F0BE
:102980000C03B3EB820FA4D0FEF782FEC01B4045C0
:10299000F3D9032090E7911E01291B6802D813F098
:1029A000007FDEE713F0020FDBE7EAB21A701B6864
:1029B00003F00703AB427FF47EAF90E70449E06881
:1029C0008B6823F4E05303438B608BE7003C0240A9
:1029D00000380240E8AA0208D809002004000020BC
:1029E000014B1868704700BFD8090020044B054A06
:1029F0009B68C3F38223D35C034A1068D8407047B6
:102A000000380240F8AA0208D8090020044B054A01
:102A10009B68C3F34233D35C034A1068D8407047C5
:102A200000380240F8AA0208D80900200F230360EA
:102A30000B4B9A6802F0030242609A6802F0F002BF
:102A400082609A6802F4E052C2609B68DB0803F47B
:102A5000E0530361034B1B6803F007030B607047EF
:102A600000380240003C024002682DE9F34112F0B8
:102A7000010504460BD08E494569D1F88C3023F00E
:102A8000C0632B43B5FA85F5C1F88C306D09960704
:102A90000BD58748A169D0F88C3023F0C0530B4385
:102AA0000029C0F88C3008BF0125100730D500235D
:102AB00001937F4B7F4E1A6C42F080521A641B6C5C
:102AC00003F080530193019B336843F480733360B8
:102AD000FEF7DEFD07463368D9055CD5744E336FCB
:102AE00013F4407360D1E36903F44072B2F5407FA0
:102AF0006F4A78D1916823F0704021F4F81120F4E6
:102B0000407001439160116FC3F30B030B431367D4
:102B100023685F0742BF684B94F838201A60226828
:102B2000D60608D56249606AD1F8943023F4400390
:102B30000343C1F8943090060CD55D48A16AD0F8E3
:102B4000943023F000630B43B1F1006FC0F8943070
:102B500008BF0125510608D55549206AD1F894309F
:102B600023F080530343C1F89430012D3FD0802AD5
:102B70003DD02068C20500F1908010F4007010D0A4
:102B80004B4A216BD2F88C3023F400430B43C2F83C
:102B90008C30002005E0FEF77BFDC01B02289AD98F
:102BA000032002B0BDE8F081E26902F44072934272
:102BB00099D0336F414A0121116023F44073002101
:102BC00011603367336FDA078DD5FEF761FD41F28F
:102BD00088380746336F9B0785D4FEF759FDC01B25
:102BE0004045F7D9DCE7916821F4F8118AE7344DC4
:102BF0002F4E00232B60FEF74BFD074633681B0169
:102C000045D4304B626B1A602268D70701D56369DF
:102C10008BB1960701D5A3696BB1900603D5A36A62
:102C2000B3F1006F07D0510612D5236A83B9A36AA6
:102C3000B3F1006F0CD1D4E902131B0643EA8113F0
:102C400061680B43216943EA01731949C1F8843073
:102C500012060CD5D4E902231B0643EA82136268EC
:102C60001343226943EA0273114AC2F884300123F4
:102C70002B60FEF70DFD0E4D06462B681B013FF540
:102C800078AFFEF705FD801B0228F6D988E7FEF72E
:102C9000FFFCC01B0228B1D982E7054AE16AD2F8DD
:102CA0008C3023F000430B43C2F88C3065E700BF43
:102CB0000038024000700040E0114742400E474299
:102CC00068004742D810474270B5414CFEF7E0FC1F
:102CD000236843F00103054623602368980757D50E
:102CE000236843F080032360FEF7D2FC0023A36037
:102CF000374C054641F28836A36813F00C0F4ED1CD
:102D0000FEF7C6FC236823F450232360304C0546AD
:102D10002368990349D4FEF7BBFC236823F0807332
:102D200023602B4C054623689A0144D4FEF7B0FC7F
:102D3000236823F080632360254C054623681B012C
:102D40003FD4244B6360C4F88430E368224A23F400
:102D5000F853E360E36823F40053E360E36843F46B
:102D60001F03E360E36843F40013E360636F23F041
:102D700001036367636F43F080736367174B1A60E7
:102D8000174B1868FEF73AFC003018BF012005E029
:102D9000FEF77EFC401B02289FD9032070BDFEF782
:102DA00077FC401BB042A7D9F7E7FEF771FC401B48
:102DB0006428ADD9F1E7FEF76BFC401B0228B2D9BD
:102DC000EBE7FEF765FC401B0228B7D9E5E700BF3B
:102DD00000380240103000240024F400D8090020FC
:102DE000040000202DE9F341044608B901203FE02A
:102DF0000368DD0710D4236898075AD423681A079C
:102E000000F19C8023685B0700F1BA80A06900286C
:102E100040F01B8100202BE0A54B9A6802F00C02C9
:102E2000042A07D09A6802F00C02082A0AD15B68CB
:102E3000590207D59E4B1B689A03DCD56368002BAB
:102E4000D9D1D3E763689A4DB3F5803F13D12B688E
:102E500043F480332B60FEF71BFC954D06462B6830
:102E60009B03C8D4FEF714FC801B6428F7D9032009
:102E700002B0BDE8F081B3F5A02F04D12B6843F474
:102E800080232B60E3E72A6822F480322A602A68D4
:102E900022F480222A60002BDDD1FEF7F9FB0646E2
:102EA0002B689F03A7D5FEF7F3FB801B6428F7D997
:102EB000DDE77F4B9A6812F00C0F07D09A6802F09A
:102EC0000C02082A11D15B685E020ED4784B1A6896
:102ED000950702D5E268012A88D11A68216922F093
:102EE000F80242EAC1021A6088E7E268714BB2B1A7
:102EF00001221A60FEF7CCFB6D4D06462B68980741
:102F000007D52B68226923F0F80343EAC2032B603C
:102F100074E7FEF7BDFB801B0228EFD9A7E71A6014
:102F2000FEF7B6FB624D06462B6899077FF566AF44
:102F3000FEF7AEFB801B0228F6D998E762695E4B6C
:102F40007AB101221A60FEF7A3FB594D06466B6F5A
:102F50009F073FF557AFFEF79BFB801B0228F6D972
:102F600085E71A60FEF794FB514D06466B6F980794
:102F70007FF548AFFEF78CFB801B0228F6D976E779
:102F80004B4B1A6C12F0805228D101921A6C42F00D
:102F900080521A641B6C03F080530193019B01263D
:102FA000464D2B68D9051BD5A368414D012B27D170
:102FB0002B6F43F001032B67FEF76AFB3C4D07467E
:102FC00041F288382B6F9B0739D5002E3FF41EAF96
:102FD000374A136C23F08053136417E70026DFE7AA
:102FE0002B6843F480732B60FEF752FB07462B6877
:102FF000DA05D9D4FEF74CFBC01B0228F7D936E717
:10300000052B04D12B6F43F004032B67D0E72A6F05
:1030100022F001022A672A6F22F004022A67002B9D
:10302000CAD1FEF735FB41F2883807462B6F980767
:10303000CBD5FEF72DFBC01B4045F7D917E7FEF7B0
:1030400027FBC01B4045BDD911E7194DAB6803F004
:103050000C03082B49D01A4E00230228336037D1C5
:10306000FEF716FB07462B6899012BD4D4E90732EB
:103070001343626A43EA8213E26A43EA0263226B01
:1030800043EA0273A26A0A4C5208013A43EA024335
:103090006B6001233360FEF7FBFA054623689A0153
:1030A0003FF5B8AEFEF7F4FA401B0228F6D9DEE68B
:1030B0000038024000004742800E47420070004046
:1030C00060004742FEF7E4FAC01B0228CBD9CEE6E7
:1030D000FEF7DEFA04462B689B017FF59BAEFEF7F8
:1030E000D7FA001B0228F6D9C1E601283FF4C0AE8A
:1030F0006B68E26903F4800191427FF477AE216A44
:1031000003F03F028A427FF471AE616A47F6C072F3
:103110001A40B2EB811F7FF469AEA26A520803F431
:103120004031013AB1EB024F7FF460AEE16A03F047
:103130007062B2EB016F7FF459AE226B03F0E04393
:10314000B3EB027F14BF0120002091E6704738B531
:10315000044600285AD0436A002B53D14268B2F586
:10316000827F00D0C36194F8513003F0FF0223B98D
:1031700084F850202046FFF7E9FF2168A568A2697E
:10318000A06A022384F851300B6823F040030B60DF
:10319000636805F4044503F482732B43E56805F482
:1031A00000652B43256905F002052B43656905F091
:1031B00001052B4302F400752B43E56905F0380542
:1031C0002B43256A05F080052B4300F400552B4363
:1031D0000B60636A120C03F01003B0F5005F02F09D
:1031E000040242EA030208BFA38D4A6008BF0B61D4
:1031F000CB6923F40063CB6100200123606584F870
:10320000513038BD0023C0E90433ACE70120F8E7B2
:10321000304A0368904212D0B0F1804F0FD0A2F52F
:103220007C4290420BD002F58062904207D002F5BA
:103230008062904203D002F57842904219D14A68E8
:1032400023F070031343234A904229D0B0F1804FFA
:1032500026D0A2F57C42904222D002F580629042B4
:103260001ED002F5806290421AD002F57842904258
:1032700016D0194A904213D002F5806290420FD0C6
:1032800002F5806290420BD0A2F59832904207D0AE
:1032900002F58062904203D002F58062904203D131
:1032A000CA6823F4407313434A6923F0800313432D
:1032B00003608B68C3620B688362064B984203D03D
:1032C00003F58063984201D10B69036301234361D5
:1032D000704700BF000001400040014082B0002361
:1032E0000F4A0193019B01339342019315D803695F
:1032F000002BF7DA002301930369094A43F0010325
:103300000361019B01339342019306D8036913F0D3
:103310000103F6D1184602B070470320FBE700BF57
:10332000400D030084B038B505AD85E80E000A9B5A
:10333000012B044625D1836B23F480338363C36858
:1033400023F4840323F04003C360C36823F44013D1
:10335000C360119B012B02BFC36843F48013C36099
:10336000FFF7BCFF089B012B07D1A36843F00603BE
:10337000A360A36843F02003A360BDE8384004B015
:103380007047C36843F04003C360FFF7A7FF0E9B7D
:1033900023B9A36B43F48033A363E3E7A36B23F464
:1033A0008033F9E7022A58D12E4B2F4A0B4493421F
:1033B00047D92E4B2E4A0B44934244D9A1F57403AE
:1033C0002C4AA3F5105393423FD9A1F1837302F520
:1033D000C332A3F5E743A032934238D9264B274A9C
:1033E0000B44934235D9264B02F592220B4402F549
:1033F000787293422FD9234B02F5C3220B4402F576
:103400002072934229D9A1F1B77302F5B712A3F53F
:10341000585302F55872934221D91B4B02F51222E0
:103420000B4402F5F862934294BF07230623C26857
:1034300022F47052C260C26842EA8323C360002053
:1034400070470F23F3E70E23F1E70D23EFE70C237B
:10345000EDE70B23EBE70A23E9E70923E7E7082376
:10346000E5E700BF405327FFFF340C00401E1BFF61
:103470003F420F007F4F120060B6E5FE5FE316008B
:1034800000D3CEFEC05BB3FEE05459FE836843F028
:103490000103836000207047836823F00103836089
:1034A0000020704738B5C368012923F0C0430546A2
:1034B000C36010D1C36843F00053C36000240120EF
:1034C000FEF7ECF86B69D90704F1010415D4322C2E
:1034D000F5D1012038BD0029FBD1C36843F08043FA
:1034E000C3600C460120FEF7D9F86B69DA0704F1D6
:1034F000010402D5322CF5D1EBE7A4F13203584296
:103500005841E7E782B08901002341F02001084AD1
:1035100001930161019B01339342019306D8036932
:1035200013F02003F6D1184602B070470320FBE7E2
:10353000400D030082B000230193084A1023036169
:10354000019B01339342019306D8036913F01003E2
:10355000F6D1184602B070470320FBE7400D030088
:10356000D0F800381943C0F8001800207047000058
:1035700084B02DE9F843044609A880E80E00002332
:10358000139D0F46194603F1400204EB82020133FA
:103590000F2B5160F7D104F50066002D6CD17368D4
:1035A00043F002037360A36B23F40013A363236847
:1035B00043F040032360236843F08003236000232B
:1035C000C4F8003ED4F80038C4F800380E9B012B34
:1035D00059D10B99002954D12046FFF7C1FF102182
:1035E0002046FFF78FFF01462046FFF7A3FF002884
:1035F0004BD1081C18BF01200023336104F5106271
:1036000073611946F3614FF0904C4FF0006E4FF626
:103610007F38BB423BD1002104F530620F464FF0AA
:10362000904C4FF0006E4FF67F388B4242D1336999
:1036300023F4807333610023A3616FF080436361DF
:103640000C9B1BB9A36943F01003A361A269234B30
:103650001343A3610F9B1BB1A36943F00803A3614C
:10366000012D01BFA36943F0804343F00403A3612C
:10367000BDE8F84304B07047A36B43F40013A363A1
:103680009DE71946A8E70321A6E70120B4E7D2F891
:103690000090B9F1000F0BDA3BB9C2F800E01161FC
:1036A0000133C2F808802032B3E7C2F800C0F6E761
:1036B0001160F4E7D2F80090B9F1000F0BDA39B9D4
:1036C000C2F800E017610131C2F808802032ACE78F
:1036D000C2F800C0F6E71760F4E700BF00383C808E
:1036E000D0F8083813F0060004D013F0020F14BF0E
:1036F00002200F20704730B50D78012405F00F032C
:103700009C404B7800F50062012B00EB4510D3691B
:1037100018D11C43D461D0F800391A0410D48B6836
:10372000C978D0F80029C3F30A0343F0805343F467
:10373000004343EA814343EA85531343C0F8003909
:10374000002030BD43EA0444D461D0F8003B1B04A0
:10375000F6D48B68C978D0F8002BC3F30A0343F082
:10376000805343F4004343EA81431343C0F8003BD2
:10377000E6E7000010B50A784978012900EB42130A
:1037800002F00F0100F5006020D1D3F80029002AD3
:103790000BDAD3F8002942F00062C3F80029D3F80D
:1037A000002942F08042C3F800290122C46B8A40FC
:1037B000D2431440C463C1690A40C261D3F80019FE
:1037C000134A0A40C3F80029002010BDD3F8002B8B
:1037D000002A0BDAD3F8002B42F00062C3F8002B6A
:1037E000D3F8002B42F08042C3F8002B4FF4803214
:1037F000C46B8A40D2431440C463C1690A40C261A9
:10380000D3F8001B034A0A40C3F8002BDCE700BFD3
:10381000007833EC0078F3EF4B78F0B50C784D6915
:10382000354E364F012B00EB441444D104F51063A0
:10383000B5B91D692E401E611D6945F400251D6145
:103840001D692F401F61012A21D10A6902B15A6105
:10385000D4F8003943F00443C4F800390020F0BD27
:10386000D3F810C00CEA07071F611F693E401E61B4
:103870008E68AE421D6938BF4E6145F400251D615A
:103880004D691E69C5F3120535431D61DBE7D4F8A8
:10389000003943F00443C4F800394B69002BDDD0F4
:1038A0000B78D0F8344803F00F02012393402343F0
:1038B000C0F83438D2E704F530631869384018612D
:1038C000186930401861886805B148611D6945F480
:1038D00000251D611D69C0F312002843012A1861EB
:1038E00002D1CA6802B15A61D4F8003B43F00443E4
:1038F000C4F8003BB2E700BFFFFF07E00000F8FF9D
:1039000010B59DF808404CB9033300EB02309B081A
:1039100000F5805001EB8303994201D1002010BDD6
:1039200051F8042B0260F7E7F7B54D780C784B6936
:10393000CE78DFF89CC1DFF89CE1012D00EB441448
:103940007CD104F510652F693BBB07EA0C072F619A
:103950002F6947F400272F612F6907EA0E072F61AF
:10396000012A41D10B6903B16B61012E0CD1D0F852
:10397000083813F4807FD4F800390CBF43F00053AB
:1039800043F08053C4F80039D4F8003943F00443BD
:10399000C4F80039002003B0F0BD07EA0E072F611C
:1039A0002F6907EA0C07D1F808C02F610CEB030759
:1039B000013FB7FBFCFC454FD5F810E007EACC47C8
:1039C00047EA0E072F61D5F810C0C3F3120747EA84
:1039D0000C07012E2F61C3D12F6927F0C0472F613B
:1039E0002F6947F00057BAE7D4F80059012E45F087
:1039F0000445C4F800590CD0002BCBD00B78D0F87C
:103A0000344803F00F02012393402343C0F83438B5
:103A1000C0E7D0F8085815F4807FD4F800590CBFDF
:103A200045F0005545F08055C4F800590C780092D7
:103A30009BB22246C968FFF763FFABE704F5306726
:103A40003D6905EA0E053D613D6905EA0C053D61EC
:103A50008D681BBB3B69C5F312051D433D613B6986
:103A600043F40023012A3B6102D1CB6803B17B619F
:103A7000012E0CD1D0F8083813F4807FD4F8003B25
:103A80000CBF43F0005343F08053C4F8003BD4F81C
:103A9000003B43F00443C4F8003B7BE7DFF82CC055
:103AA000D7F810E02B44013BB3FBF5F30CEAC34C11
:103AB0004CEA0E0CC7F810C09BB2D7F810C06B438D
:103AC000C3F3120343EA0C03CCE700BF0000F81F66
:103AD000FFFF07E00000F8FF70B50023940800F531
:103AE000805502F00302A34216D301EB84018AB190
:103AF00000F580500C4605680023D80025FA00F038
:103B0000013304F8010B98B28242F6D1013A92B225
:103B100001321144084670BD2E6841F8236001331C
:103B2000E1E74A780B78012A00EB431012D1D0F874
:103B30000029002A06DB2BB1D0F8003923F080439E
:103B4000C0F80039D0F8003943F40013C0F8003948
:103B500000207047D0F8002B002A06DB2BB1D0F8EC
:103B6000003B23F08043C0F8003BD0F8003B43F417
:103B70000013C0F8003BEBE70B784A7800EB4310EA
:103B8000CB78012AA3F10203DBB20FD1D0F80029D0
:103B9000012B22F40012C0F8002905D8D0F8003912
:103BA00043F08053C0F8003900207047D0F8002B54
:103BB00022F40012012BC0F8002B9EBFD0F8003B6E
:103BC00043F08053C0F8003BEEE7D0F8003823F410
:103BD000FE63C0F80038D0F80038090101F4FE6136
:103BE0001943C0F8001800207047D0F8003E23F0B9
:103BF0000303C0F8003ED0F8043823F00203C0F8F5
:103C0000043800207047D0F8003E23F00303C0F8CA
:103C1000003ED0F8043843F00203C0F80438002016
:103C200070474269806910407047D0F8183800F535
:103C30000060C0691840000C7047D0F8183800F5D3
:103C40000060C069184080B2704700EB411100F578
:103C50000060D1F8082B40691040704710B5D0F8CB
:103C60001048D0F8343800EB411001F00F01CB4080
:103C700000F51060DB018068DBB22343184010BD03
:103C8000406900F001007047D0F8003923F4FF6369
:103C900023F00703C0F80039D0F8043843F48073E8
:103CA000C0F804380020704730B5056C104CA542B0
:103CB00000F5306303D9D0F8004B002C16DB00244C
:103CC0001C611C6944F400241C611C6944F0180444
:103CD0001C611C69012944F0C0441C6101BF5A6188
:103CE000D0F8003B43F08023C0F8003B002030BDFB
:103CF0000A30544F004870470800002008B5074BB1
:103D00001A784AB95B783BB9054B1B6F984720205E
:103D1000BDE8084010F0C6BA08BD00BFD40C0020B2
:103D2000043A002038B505460DF066FE022808D09A
:103D300008F00AFA044610B12846FFF7DFFF2046D4
:103D400038BD0124FBE70346172B4FF0000012D8C3
:103D5000012202FA03F313F4700F0AD113F4702F47
:103D600004D113F4704F06D0104670474FF0020094
:103D700070474FF0040070470F4890F8AE3110B50F
:103D8000CBB90E4B90F8AB2193F810310C49DB43C3
:103D9000DBB21A4002F00704D24302F007020A70B5
:103DA00090F8AD214C70134003F00702DB4303F0A1
:103DB0000703CA708B7010BD043A0020A43C002099
:103DC000D00B0020094B18680023C2B262F307032E
:103DD000C0F3072262F30F23C0F3074262F31743D5
:103DE00082B063F3170002B0704700BFD00B002011
:103DF00037B50D4D0D4995F8AE510A784B788C7852
:103E0000C978C0B22DB922430B43024003400140A0
:103E10000440002062F3070063F30F2064F31740AF
:103E200061F31F6003B030BD043A0020D00B0020C6
:103E30000048704714000020037D6FF3451310B550
:103E400003751F4BD9650023C3601E4B016093F8B7
:103E5000292042F08002027693F8292042F00402E1
:103E600083F82920027E42F00402027693F829208A
:103E700042F0010283F82920037E43F00103037618
:103E800003695A685B6B0C466421D1600120984736
:103E900001682046FCF770FF00210446FDF700F999
:103EA00060B9094B0949D86DFCF766FF2146FDF75B
:103EB00001F9002814BF2B20002010BD2920FCE7A9
:103EC00058390020D40C0020A43C00206666663FD0
:103ED000084BD3F8943010B5044603B198472378C3
:103EE0001BB10021204609F029FB2046BDE8104007
:103EF0001AF088B9B43B002008B50C201AF07AF902
:103F0000034638B1084A07CA83E8070007490A6828
:103F10002AB90B60181C18BF012008BD0A46916819
:103F20000029FBD19360F5E76C0C0020800C002089
:103F3000004870472C000020F8B50025094E2C469B
:103F40004FF07E577319640039465869E4B2FDF7A3
:103F5000A7F808B944F00104043D15F10C0FF1D1A4
:103F60002046F8BD2000002010B5FFF7E5FF0C4B00
:103F70004FF07E5100229A605A601A6059611961AF
:103F8000D960084B0022C4B29A77FFF7D5FFC0B2C0
:103F9000A04204D00220BDE8104010F083B910BD4B
:103FA000200000205839002038B5084D831C05EB4F
:103FB000800204462234D16F55F82300FCF7D4FD6B
:103FC00055F82410FCF7D0FD38BD00BF583900204B
:103FD0002DE9F74F0F4606462A4D28B1022831D069
:103FE000E87103B0BDE8F08F2F46044657F8943FC0
:103FF0004FF0000B03F1080AA3F1040802464FF04A
:104000000103594657F8040D019299460093FDF7B4
:1040100047F8DDE9003200B19146C7F800B04AF830
:1040200004B944EA0904C245E4B2EAD1EE71002CB5
:10403000D7D04FF4806010F035F903B0BDE8F04FF1
:1040400010F082B91046FCF743FE0F4A142303FB1D
:10405000072307F12209196BFCF742FF804601464E
:1040600055F829004FF00104FDF71AF808B14FF098
:104070000004D5F8943045F82980E4B243F827804D
:10408000D4E700BF58390020A43C0020022331B1FE
:10409000012909D0012243700270002302E00122AD
:1040A0000170427083707047037000234370817009
:1040B00070470000F0B53B4D3B4C95F87D6087B0F4
:1040C000002E3FD09422002120461AF0CFF8374B23
:1040D0001422002118461AF0C9F8C4F89400344E8E
:1040E000306800283FD195F8293023770DF022F869
:1040F0006065FFF739FF207D2E492F4C0CF0F0F85A
:1041000010B9A3680720984795F87D3063B12B4B11
:1041100093F8FF309B0707D429490B200CF0E0F8F7
:1041200010B9A36807209847E66A1EB195F87D305C
:10413000F3B9B047A369002B31D01B4807B0BDE8E5
:10414000F04018477C22314620461AF08FF8D4F808
:104150009400036923671B4BD3F80431002BBED0B6
:1041600031469847BBE787681AF04CF83760B7E7E5
:1041700000230C2269460F480293CDE900331AF060
:104180005BF80028D5D10C22CDE9030005900DEB9A
:1041900002010B481AF050F80028CAD1CAE707B04C
:1041A000F0BD00BFD40C002058390020F0390020A9
:1041B000800C002060390020B43B0020A43C00208B
:1041C000D4390020043A002008B5064B00229A6436
:1041D00000229A760DF050F91020BDE8084010F04A
:1041E00061B800BF5839002008B5054B002058764B
:1041F000044B1B6F98472020BDE8084010F052B8D0
:1042000058390020043A0020014B586D704700BF18
:10421000583900202DE9F74F0F4603785A1E1F2A00
:10422000834600F10100F8D93B2B05D02F2B0BD191
:10423000394B9B7DDA0606D500238BF800305846B3
:1042400003B0BDE8F08F8346DFF8D480DFF8D49068
:10425000DFF8D4A05E465D4600242B780BB933709E
:10426000EDE7202B49D9292B09D03B2B03D0282B54
:1042700038D12C4643E0002C41D12C70EDE7002CC6
:1042800039D098F878304BBB2B7099F8A6319B0742
:104290001AD4CFB13B68BBB90522204920461AF099
:1042A00057FD88B92A1B043A1046019219F0A2FF63
:1042B000386048B1019A631D1C46013321782029DA
:1042C0000ED0214619F0C7FF23781BB33A682AB9EC
:1042D000DAF898300192EBB12046984700240AE0C2
:1042E000013AE9E75CB9A3F16102192A98BF03F02A
:1042F0005F03337001360135AFE7002CFBD02A1B7A
:10430000042AF8DCA3F16102192A98BF03F05F03C5
:104310002B70F0E71C46EEE7D40C0020582A020868
:1043200058390020043A0020B43B00202DE9F04F1A
:10433000A7B026A9002341F8503DFFF76BFF047892
:10434000064634B9129880B90024204627B0BDE84B
:10435000F08F252C754A0BD144784CB992F8743003
:1043600083F0010382F87430ECE7FFF7B1FDECE76E
:104370006F4F6E4DAC220021384619F077FF0FCDFC
:1043800007F108040FC40FCD0FC495E8030084E8BB
:104390000300337800240794242B8DF81040BDF8D7
:1043A0001CB007D101239B463B819DF81C30BB729A
:1043B00087F823301BF0010F0CBF00230323139356
:1043C000002306931D461C460893059309934FF05E
:1043D000000A139B5A1C1392F75C002F33D19DF8EF
:1043E000103013F0FF0F04D0059B002B08BF0223F1
:1043F00005934E4D95F8773033B1059B022B03D1D1
:104400001BF0010F02F03686494A92F8953013F0FE
:10441000400F144605D0D2F88010464A914202F36C
:104420002C861BF0010200F0DF84980740F13385F1
:10443000E37A002B00F0E184A06B3F49FCF79CFC81
:10444000A06300F0DABC402F03D8242F03D001244E
:104450007BE75A2FFBD814AA13A9304605F0AAFF10
:1044600020B9002D02F0FD85344B1493DDF8508007
:1044700041464046FCF746FE002854D14046FCF732
:104480007DFE0446FCF720FC01464046FCF76AFB33
:104490002B49FCF771FC1BF00BFDFCF76FFE472F5F
:1044A00050D04D2F00F036820023243F1593362F35
:1044B00000F2B680DFE817F08304B400B400B40063
:1044C000B400B400B400B400B400B400B400B4004C
:1044D000B400B400B400B400B400B400B400B4003C
:1044E000B400B400B400B400B400B400B400B4002C
:1044F000B400B400B400B40057037A038403B400DA
:104500008E03A403BE03CC03DA03B400EF03FC0361
:1045100012041C04260430043A04B400B400B400AD
:104520005304630473040020B9E700BF5839002026
:10453000D40B0020809698003333CB410000C07F1D
:104540000000C84200231693632C69D8DFE814F0FA
:10455000CD00CD00CD00CD007F00CD00680064000F
:1045600064006800780068006800680068006800FF
:1045700068000201020102013E013E01680068007C
:1045800068006800680068007800680078006800CB
:104590006800A4006800680068006800B80068004F
:1045A0004B016800680052016800680068006800FC
:1045B00068005201C501C50168007F006A016A01F7
:1045C0006A016A016A016A0168008901680068007D
:1045D000680093016800680068006800680068006F
:1045E0006800E90068006800A400680068006800CE
:1045F000D200E900E900E9006800E900E90068008C
:104600006800E9000D010D0178002901290134013C
:10461000A601A601B901B901B74B1B7E022B01D03F
:10462000142492E69DF85930E11F43F040038DF8C1
:1046300059304A42B14B4A415A73D0B1172484E6EB
:1046400028B9059B0BB118247FE6012305939DF83B
:104650005830AA4A43F0010324F002018DF8583083
:104660001C29E3B213700DD108B10A28D8D118441F
:104670001070169B069A13EA020542F0F5841A435D
:104680000692A6E65C2CD8D11E28C9D89C4BC34004
:10469000DB07C5D55C30EBE70028C1D1059B002BBB
:1046A000D1D19DF858309DF8142043F002038DF8C5
:1046B0005830924B1C8183F8272002230593D8E7BA
:1046C000904BD3F8FC30002BAAD0A0F114021E2A84
:1046D000A6D88B4BD340DB4313F00103A0D10A24AF
:1046E000B0FBF4F000F18A041846059B002BAAD118
:1046F000022305939DF85830052C43F002038DF8F2
:1047000058300BD150B10A288AD17C4B33221A8100
:1047100000207A4B002283F827208EE7774B1C81FC
:10472000F7E7059B002B8ED19DF8583043F002032C
:104730008DF85830714B012283F82720A2B21A81DC
:10474000714B1B889B1A18BF012363F3410B022393
:10475000059372E79DF85830684A43F004038DF8DA
:104760005830A4F11103937367E79DF8583060B98E
:1047700043F00803A4F15B0C8DF85830DCF1000223
:104780005E4B42EB0C021A7373E743F010030A28E6
:104790008DF858307FF444AF5A2C3FF441AF5B247E
:1047A00067E79DF85830554A43F020038DF858309C
:1047B000C4F15E03937240E79DF8583043F0200344
:1047C0008DF858304D4B02229A7236E79DF85830DA
:1047D000A4F1140743F040038DF858307A42474B58
:1047E0007A41DA7229E79DF8583043F080038DF85A
:1047F000583022E79DF85930312C43F001038DF8F1
:10480000593003D13D4B0022DA7332E70A287FF496
:1048100007AF059B002B7FF416AF384B0222DA73EB
:1048200003234BE79DF85930344A43F008038DF8D1
:104830005930A4F13603DBB23B2C13777FF4FDAE85
:1048400000283FF416AF1E283FF6EAAE2F49C140BC
:10485000CD077FF5E5AE0A21B0FBF1F003441377F5
:1048600007E79DF8593043F010038DF859300028C0
:104870003FF4FFAED4E69DF8583043F001038DF8C5
:1048800058301E4B41221A7000287FF4C9AE204BCD
:10489000D3F8E030002B7FF4ECAEC1E6164B1B7E64
:1048A000022B7FF4BDAE9DF85930144A43F020032B
:1048B0008DF85930A4F1600383F0010382F82330AE
:1048C000BBE69DF859300D4A43F002038DF859308C
:1048D000A4F1620382F82530AFE69DF85930A4F1C7
:1048E000330143F004038DF859304A42034B4A41E7
:1048F00083F8262004232BE7A43C0020D40B0020BF
:1049000001041040043A00205839002000041040EF
:10491000B43B0020C14F3B78412B0BD197F8953029
:104920009A0602F1A48343F02003C7F84C8087F86D
:1049300095304EE500287FF481AE332C16905FD879
:10494000302C67D2052C1ED8032CC0F095809DF822
:104950005A3043F002038DF85A30621F97F8223024
:1049600018BF0122211F62F300034A424A4162F349
:104970004103AB4A87F8223092F82C3043F004030D
:1049800082F82C3087E0092C24D8072CC0F09A80BC
:104990009DF85A30A24A43F004038DF85A3092F839
:1049A0002C30082C43F0020382F82C304BF4807B2F
:1049B00000F09D80092C00F09F809A4B93F8A43161
:1049C000DA077FF52DAE97F8213043F0020387F820
:1049D000213060E01E2C4FD0924BD3F88431002B55
:1049E0003FF41EAEA0B29847788000283FF418AE7E
:1049F0009DF85A3043F010038DF85A3001257EE0BF
:104A0000412C1DD83E2C80F08580382C7BD009D8D5
:104A1000352CE1D19DF85A3043F008038DF85A3017
:104A20007C7038E03C2C27D03D2CD5D19DF85A30F5
:104A300043F001038DF85A300123002509935EE00D
:104A4000442C0AD8432C774B78D3D3F81C21002A66
:104A50003FF4E6AD93F8173164E0632CBCD19DF8C8
:104A6000593043F080038DF859306F4B87F8204060
:104A7000D3F8E4307BB9D3E59DF8593043F0800397
:104A80008DF8593024B1012C07D087F8204002E07E
:104A9000032387F82030002531E0624B93F8A821EA
:104AA000900608D59B6E984780F02000C0F3401513
:104AB0002DB30123EDE75A4B9D7D85F04005C5F3ED
:104AC0008015F5E7594B93F82C30042BE3D0554B68
:104AD000D3F8D42022B9D3F80831002B3FF4A0AD8D
:104AE0009DF85A3043F001038DF85A30D3E797F818
:104AF000213043F001036AE7002587F82150169B17
:104B0000069A1342B9E5494B93F828315B077FF5C4
:104B100087AD7FE7434BD3F81821002A3FF480ADDF
:104B200093F81531002B3FF47BAD9DF85A3043F0DC
:104B300010038DF85A30E3B20893ACE7D3F8202184
:104B4000002A3FF46DADD3F8143113F0FF1F3FF48A
:104B500067AD9DF85A3043F010038DF85A30422368
:104B600000250893CBE79DF8543043F080038DF87F
:104B700054302A4BC3F83080DFF8A090DDF8548021
:104B8000D9F8947017EA080F42F07182284B1B681D
:104B900018EA030F00F0228151461498FCF78AFAB4
:104BA000002800F01B810424FFF7CFBB9DF855308F
:104BB00043F001038DF85530184BC3F83480DBE720
:104BC0009DF8553043F002038DF85530134BC3F870
:104BD0003880D1E700287FF431AD9DF8553041464B
:104BE00043F0080340468DF85530FCF78BFA0B4B29
:104BF00000280CBF22464FF0FF32C3F88820BBE7E5
:104C0000079B43F0010307939DF8543043F01003D2
:104C10008DF85430014BC3F83C80ADE7D40B002035
:104C2000D40C0020043A0020B43B0020A43C002017
:104C3000682A0208079B43F0020307939DF854304B
:104C400043F020038DF85430B84BC3F8408093E70D
:104C5000079B43F0040307939DF8543043F040034F
:104C60008DF85430B14BC3F8448085E700287FF4B9
:104C7000E5AC9DF85530414643F0100340468DF8B1
:104C80005530FCF73FFAA94B00280CBF2246FF2203
:104C900083F8902070E79DF85530404643F040037C
:104CA0008DF85530FCF744FAA04BC3F8800063E759
:104CB00000287FF4C3AC9DF85530414643F0800393
:104CC00040468DF85530FCF71DFA984B00280CBF74
:104CD00022464FF0FF32C3F884204DE79DF856304E
:104CE00043F001038DF85630904BC3F8508043E7F2
:104CF0009DF8563043F002038DF856308B4BC3F8C5
:104D0000548039E79DF8563043F004038DF856304F
:104D1000864BC3F858802FE79DF8563043F00803C0
:104D20008DF85630814BC3F85C8025E700287FF46E
:104D300085AC671C02F0A4819DF85630414643F0D3
:104D4000100340468DF85630FCF7DCF9774B00280D
:104D50000CBF22464FF0FF32C3F88C200CE79DF8C1
:104D6000103043F001038DF810309DF8573043F0B8
:104D700001038DF857306D4BC3F86080FCE69DF859
:104D8000103043F002038DF810309DF8573043F097
:104D900002038DF85730654BC3F86480ECE69DF84C
:104DA000103043F004038DF810309DF8573043F075
:104DB00004038DF857305D4BC3F86880DCE60028AB
:104DC0007FF43CAC9DF85430404643F001038DF82D
:104DD0005430FCF7ADF9554BD867CDE647EA0807E4
:104DE000C9F89470FFF7F5BA2189212947D194F8C1
:104DF0009430590636D4EB6DA36494F89430DF07F1
:104E000040F18C8094F896301E0703D5484B9B7870
:104E100018074FD5069BD90708D52389212B49D0E0
:104E200040F24B12934245D04C2B43D0069B9A0440
:104E300040D4C3F3074313F0080304D06378A3F10D
:104E400033077B427B41069A960301D4002B47D05F
:104E5000E06F5A1E90422FDA002B7FF4A4AE272475
:104E6000FFF773BA62F3861384F89430E37A606CC8
:104E70001BB13049FBF780FF6064A064BDE7A27AF4
:104E8000012A0BD1059A022AB7D15029B5D00029A1
:104E9000B3D09A07B1D41624FFF757BA12F0FD0F1A
:104EA000ABD19B073FF5C4AAAB789342A5D1AB6DBC
:104EB000A363A2E70123C6E740B20CF02DF9002856
:104EC000CDD0E06F002805DB40B20CF033F9C4F818
:104ED000A800686594F894306FF3000384F8943068
:104EE000A37A022B04D16B6D5B6B002B3FF498AB64
:104EF000069BC3F3072398060A9335D594F823300D
:104F0000012B77D16B6D5A7AD1077FF589AB94F875
:104F10009620120710D41C24FFF717BAD4F8A83033
:104F2000002BDDD16B6DC4F8A830D9E7D40B00207D
:104F3000C80C00203333CB415F685E6994F994302C
:104F4000002B55DAD4F8308031464046FCF7B2F8F1
:104F500000B1464694F89430FE616FF3C71384F8AD
:104F6000943094F82330EB7694F89660330742F14E
:104F7000BC808E4B9B7883F00802C2F3C0021F07EF
:104F80000D924AD5099B002B57D0B607C3D5656D46
:104F900028461AF045FD2946FBF7E4FD0021FCF701
:104FA0007FF800283FF44AAB2846FCF7E7F8451C99
:104FB00002F0668094F89630C4F88C006FF34103D9
:104FC00084F89630069BC3F3074313F010060B9347
:104FD00068D0089B002B65D03E3B062B62D8DFE8EB
:104FE00013F03200320032003200F3005501550157
:104FF000FE61B6E7EB7E012BB3D12B6D1BB1002315
:105000002B6507F0A1F86B6D5B681B68AB64A8E7C4
:10501000AB6CE36500230D93B4E7EB7E012BB1D1BC
:10502000E37AE06D3BB16249FBF7A6FE6B6DE0658C
:105030005B681861A6E75F49F6E7F0065CBF2B6F77
:10504000C4F88C30BEE794F89630D9077FF563AF8B
:10505000256D00212846FCF72DF800287FF4A3AD2C
:105060002846FCF78BF8544B93F8153101309842E1
:105070003FF6F5AE012784F898702846FCF77EF8D5
:10508000089B84F89A003E2B03D0A3F140025742BC
:1050900057414A4B93F89620C3F89C706FF3000277
:1050A00083F896200B9B454D13F0020F40F01781BB
:1050B0000B9B180700F13681D6B1404E7388BBB107
:1050C00031463A4F51F8943F3B603B4B3046D3F862
:1050D00088319847044600287FF437A93B68D6F802
:1050E0009420079053403B609DF81C308DF81030A1
:1050F000324E3378042B0FD196F89640E7077FF5B0
:105100000AAF0021306DFBF7D5FF00287FF44BADCF
:1051100060F3000486F89640A97B11A8FEF7B6FF5D
:10512000EB7AA3B19DF81070DFF89080DFF89490CF
:105130000324013C27FA04F3D80706D508EB8406BC
:105140004946306EFBF718FE3066002CF1D10A9B01
:105150001B4C13F0400F07D06B7B62799A4203D04F
:10516000082063710FF09EF863794BB19DF8103001
:10517000D90705D5286E4FF07C51FBF7FDFD286659
:10518000059B042B40F09B810C4C94F82630002B9F
:1051900000F0F2819DF81030002613F0FF0F84F824
:1051A000266040F041811A24FFF7CFB8C80C0020D8
:1051B0006666984300007A44043A0020D40B00202D
:1051C000583900203333CB41D4F8943013F4043FE2
:1051D0003FF4A1AE8F4A32EA030301F0548794F8FA
:1051E0009050042D3FF63BAE35B10021606DFBF7CA
:1051F00057FF00287FF433AE874C94F89630DB07D6
:1052000019D5276D00213846FBF754FF00287FF49D
:10521000CAAC3846FBF7B2FF804B93F8143101302B
:1052200098423FF61CAE012384F898303846FBF7CD
:10523000A5FF84F89A00784C94F89530DF0714D5D0
:10524000676B3846FBF79AFF744B93F816310130C1
:1052500098423FF604AE002D7FF401AE84F89850DA
:105260003846FBF78BFF84F89A0094F8963003F0E9
:10527000FD036FF3000384F8963094F8953003F043
:10528000EF036FF3000384F895300BE7D4F8943004
:10529000634A1A423FF43FAE676B3846FBF76EFF36
:1052A0005E4B93F817310130984201F2FE860025DB
:1052B00084F898503846FBF761FF84F89A00606DD7
:1052C000FBF736FF94F89630C4F89C0065F3410371
:1052D00084F8963094F8953065F30003D3E795F899
:1052E000223099077FF5E4AED5F8A840B4B920463E
:1052F0000BF012FF00283FF4DBAE20460BF01AFF44
:10530000407A10F002007FF4D3AE0BF013FF437A23
:1053100013F0080F7FF4CCAEFFF782B9637A13F075
:105320000A0FF7E795F89640E2071DD44FF07E5339
:105330002B656B78384C303B082B3FF6BDAE01A295
:1053400052F823F081530008935300089D5300083E
:10535000BB530008B9500008D5530008B9500008E5
:10536000B9500008EF5300080021286DFBF7A2FE9A
:1053700000287FF418AC60F3000485F89640D8E765
:1053800095F8243003F0FE036FF3820385F8243090
:1053900092E695F8243043F00503F7E70021206DED
:1053A0004FF00107FBF77CFE00B9074694F8243064
:1053B00067F3000384F824307EE60021206D4FF06F
:1053C0000107FBF76DFE00B9074694F8243067F338
:1053D0008203EFE70021206D4FF00107FBF760FE2D
:1053E00000B9074694F8243067F34103E2E70D4B18
:1053F00093F828315B077FF55FAE0021206D4FF0F9
:105400000107FBF74DFE00B9074694F8243067F317
:10541000C303CFE700010100D40B0020043A0020B1
:1054200000010200A43C0020DFF8908103254FF02A
:105430007E599DF810A0013D2AFA05F3DA071DD523
:10544000AB0008EB03022344D0681B6E0C93194693
:105450000492FBF725FE4FF00107049A0C9B08B15C
:105460004FF00007D3600123AB403E432AEA030319
:105470000220F6B28DF810300EF014FF94F82630AA
:10548000002B77D1494658F82500FBF709FEB0FA02
:1054900080F0400984F82600002DCAD1444AD4F88F
:1054A0009430126823EA0203424AC4F89430937F8E
:1054B00090774340334302D002200EF0F3FE3D4B81
:1054C0009B7FD3B13C4D9DF810802B7B3B4F0C93C1
:1054D0000324013C28FA04F3DB070CD5A300EE18E3
:1054E0003B44306ED3F80C900C9B002B47D04946C0
:1054F000FBF742FC3066002CEBD10A9B2E4D13F0DB
:1055000001030E9308D0EB7B022B05D19DF81030E0
:1055100013F0FF0F01F0BA850A9B1F073BD42E78CA
:105520009DF810400A2E4DD05C2E00F05481BCB185
:10553000059B032B14D02B7BDFF87C90DFF874A045
:105540000A930327013F24FA07F3DB0700F1708178
:10555000BB0009EB030253441B6E1366002FF1D10D
:105560001E2E00F09C8100F283811C2E40F0A3804F
:10557000092095E101208DE7FEF7F6FC9FE757F83B
:1055800024A05146FBF7EEFA4946FBF7F5FB5146DE
:10559000FBF7EAFAAEE7074B287F1B7D8342BED0BC
:1055A00007490AF09DFE0028B9D10724FEF7CDBEB9
:1055B000542A020858390020D40B00202000002073
:1055C000E40B00204CB995F89030142B3FF4EBAD70
:1055D00095F896305E077FF5E6ADD5F8943013F474
:1055E000883F3FF498AC2E6D00213046FBF762FDFA
:1055F00000287FF4D8AA30461AF0E4FC95F89030E1
:10560000022B00F0DB80142B7FF40AA8FBF7B6FD19
:10561000C0B2092801F23D85BD4D002840F0D4807C
:10562000287FBC4985F878000AF05AFE0028BCD0D3
:10563000B94B93F8283113F0E00F0AD095F8782091
:10564000063AD1B2022904D85B09D340D80701F148
:105650002385AF4EB14A96F890A00327B146013F8B
:1056600024FA07F3D90718D5BAF1140F4FEA8705C2
:1056700040F0AD8002EB05084D44D8F86000296E7B
:105680000A92FBF76FFAD8F87C10FBF76BFAD8F8A0
:105690008810FBF767FA0A9AE866002FDFD196F8C0
:1056A000963067F3000386F8963096F8953067F3E6
:1056B000041386F89530964B1C89502C1A4640F0FE
:1056C0000F819DF8103013F0FF0F03D0059B012BC5
:1056D00041F0E584002382F825301BF00102DFF859
:1056E000309200F0C48699F8953003F0FD036FF313
:1056F000861389F89530059B3BB1894AD9F89430D7
:10570000126823EA0203C9F89430D9F894100029EA
:1057100041F0E08428221CA818F0A8FD814B9DF8D8
:10572000852093F89430B3FA83F35B0963F30002A6
:1057300063F341021BF0010F8DF8852000F0B28663
:10574000794B069A1B6832EA030341F0C68499F844
:105750000030352B02D0002B41F0BF846F4C04F198
:1057600048030FCB1DAD85E80F00627E8DF88620C3
:1057700094F87620A37E8DF87830002A40F0878652
:1057800013F0020303D0636D5B7AC3F3C0039DF88B
:105790008420664D5E4963F386128DF884201CA830
:1057A0002A4603F0EDFE044600287EF4CEAD604BA1
:1057B00093E8070085E80700FEF7C7BD95F8963027
:1057C0005D073EF52DAF21E70138C0B229E74D4412
:1057D0002B6EEB6661E7002C3FF4E5ACDFF83C9103
:1057E000DFF82CA100250326013E24FA06F3DA0790
:1057F00016D50AEB050809EB0507D8F81810B86E9E
:10580000FBF7B0F9D8F86810FBF7ACF9D7F89010AF
:10581000FBF7A8F9C8F86800043D002EE4D14AE778
:1058200009EB05020AEB0503D2F884209A66F3E738
:10583000352E3FF493AEBD0009EB05080A9AD8F85F
:1058400060303AB155441946286EFBF78DF9C8F817
:10585000600083E65544D8F81000E96F0C93FBF71D
:1058600083F9D5F88810FBF77FF90C9B1946ECE714
:10587000352E274C2BD0412E7FF41DAF94F8965037
:10588000EE077FF548AB2B49206DFBF731FC002874
:105890007FF4E5AA60F3000584F896500BE70A2030
:1058A0001C490AF01DFD00283FF47FAEB4B1184931
:1058B0001A480323013B24FA03F2D70704D49A00C1
:1058C0008D180244126EEA66002BF3D1F3E62389A9
:1058D000012B7FF6F0AE1E24FEF737BD0594EAE6F5
:1058E000059A022A7FF4F9AE0C4AB2F800A0B4EB94
:1058F0000A0218BF012262F3492BECB99DF810305F
:1059000013F0FF0F7FF4E9AE00230593E5E600BF37
:10591000D40B0020400C0020A43C0020583900206B
:10592000542A0208D40C0020642A0208B839002046
:10593000340C002000FF7F4793F827200AB983F832
:105940002520764B93F82320012A1D460BD193F88E
:105950002220D00741F1A6830021D86DFBF7A0FBE0
:10596000002841F09F83212C40F0DE806C4B5B6D62
:105970005B6B002B3EF454AE0021A86CFBF790FB50
:1059800000287FF46CAA4BF0200B644A92F8273071
:105990001446002B00F0CC821BF0020927D0604B8C
:1059A0009978012901F0848392F8962056077FF5B3
:1059B000B2AA9DF846209DF81010D140CD077FF582
:1059C000AAAA9DF844100A31002043F821009DF84E
:1059D000451098630A31183243F82100012183F8F9
:1059E000441053F82220DA63002183F845104B4B12
:1059F00093F8952012F0100F1E4640F018820123F4
:105A000086F8903096F896305C0716D5F37AB06D2C
:105A1000002B00F014824349414DFBF7ADF9337B75
:105A20009DF846400746002B00F00C82183455F8CC
:105A300024103846FBF798F82864384E9DF810304B
:105A40009DF84680364D0793337B0A9308F10A038D
:105A50000C932F6C08F1180305F1300A03240F93FF
:105A6000079B013C23FA04F1C8070DD506EB84011E
:105A7000A045086ECAF8000000F0F381DAF838108B
:105A8000FBF770F8CAF80000AAF1040A002CE7D16D
:105A9000234D08F10A03384655F823603146FBF7D9
:105AA00009FB002841F007831C4B93F89520B3F8BD
:105AB000088064F3041283F8952093F8962064F329
:105AC000820283F89620A8F149021C46102A3FF66C
:105AD00004AE01A353F822F0E35E0008DB56000891
