:020000040800F2
:1000000000000420D53C0308BDD20208BFD202087C
:10001000C1D20208C3D20208C5D202080000000003
:10002000000000000000000000000000C7D202082D
:10003000C9D2020800000000CBD20208CDD20208CB
:10004000253D0308253D0308253D0308253D0308FC
:10005000253D0308253D030889BC0208A1BC020810
:10006000253D0308253D0308253D0308253D0308DC
:10007000253D0308253D0308253D0308253D0308CC
:10008000253D0308253D0308253D0308253D0308BC
:10009000253D0308253D0308253D0308B9BC02089A
:1000A00025BC0208253D0308253D0308253D03081E
:1000B000253D0308253D030899BB0208253D03089B
:1000C000253D0308253D0308253D0308253D03087C
:1000D000253D0308A9CF02081DD00208253D0308CD
:1000E00001BD0208253D0308253D0308253D030801
:1000F000253D0308253D0308253D0308253D03084C
:1001000000000000253D030879BB0208253D0308D7
:100110000000000000000000253D0308253D030805
:10012000253D0308253D030869D2020875D202085F
:10013000253D0308253D0308253D0308253D03080B
:10014000253D0308253D0308253D0308DDD20208AF
:10015000253D0308253D0308253D0308253D0308EB
:10016000253D0308253D03080000000000000000B5
:10017000000000000000000000000000000000007F
:10018000253D0308253D0308000000000000000095
:10019000253D0308253D0308000000000000000085
:1001A000000000000000000000000000000000004F
:1001B000253D03080000000000000000253D030865
:0401C000253D0308CE
:1001D00010B5054C237833B9044B13B10448AFF381
:1001E00000800123237010BD680E00200000000075
:1001F000283D030808B5034B1BB103490348AFF37F
:10020000008008BD000000006C0E0020283D03089F
:1002100010F8012B11F8013B012A28BF9A42F7D0B0
:10022000D01A7047034613F8012B002AFBD1181A85
:1002300001387047000000000000000000000000CE
:1002400001F0FF01102A2BDB10F0070F08D010F887
:10025000013B013A8B422DD010F0070F42B3F6D18B
:10026000F0B441EA012141EA014122F007047FF0A4
:1002700000070023F0E80256083C85EA010586EAFB
:10028000010685FA47F5A3FA87F586FA47F6A5FA37
:1002900087F68EB9EED1F0BC01F0FF0102F0070243
:1002A00032B110F8013B013A83EA010313B1F8D1EE
:1002B0000020704701387047002D06BF35460338CF
:1002C000073815F0010F07D1013015F4807F02BF08
:1002D000013015F4C03F0130F0BC0138704700BF59
:1002E00081F0004102E000BF83F0004330B54FEAE7
:1002F00041044FEA430594EA050F08BF90EA020F54
:100300001FBF54EA000C55EA020C7FEA645C7FEAE6
:10031000655C00F0E2804FEA5454D4EB5555B8BF09
:100320006D420CDD2C4480EA020281EA030382EA7A
:10033000000083EA010180EA020281EA0303362D0C
:1003400088BF30BD11F0004F4FEA01314FF4801CDF
:100350004CEA113102D0404261EB410113F0004FF1
:100360004FEA03334CEA133302D0524263EB4303A8
:1003700094EA050F00F0A780A4F10104D5F1200E46
:100380000DDB02FA0EFC22FA05F2801841F10001A1
:1003900003FA0EF2801843FA05F359410EE0A5F175
:1003A00020050EF1200E012A03FA0EFC28BF4CF0A6
:1003B000020C43FA05F3C01851EBE37101F000455C
:1003C00007D54FF0000EDCF1000C7EEB00006EEB69
:1003D0000101B1F5801F1BD3B1F5001F0CD34908F3
:1003E0005FEA30004FEA3C0C04F101044FEA44524A
:1003F00012F5800F80F09A80BCF1004F08BF5FEAD1
:10040000500C50F1000041EB045141EA050130BDB0
:100410005FEA4C0C404141EB010111F4801FA4F153
:100420000104E9D191F0000F04BF01460020B1FAA8
:1004300081F308BF2033A3F10B03B3F120020CDAE0
:100440000C3208DD02F1140CC2F10C0201FA0CF0BE
:1004500021FA02F10CE002F11402D8BFC2F1200C23
:1004600001FA02F120FA0CFCDCBF41EA0C019040D9
:10047000E41AA2BF01EB0451294330BD6FEA040422
:100480001F3C1CDA0C340EDC04F11404C4F120020D
:1004900020FA04F001FA02F340EA030021FA04F31F
:1004A00045EA030130BDC4F10C04C4F1200220FA76
:1004B00002F001FA04F340EA0300294630BD21FAB4
:1004C00004F0294630BD94F0000F83F4801306BF7A
:1004D00081F480110134013D4EE77FEA645C18BF6E
:1004E0007FEA655C29D094EA050F08BF90EA020F05
:1004F00005D054EA000C04BF1946104630BD91EAFD
:10050000030F1EBF0021002030BD5FEA545C05D1FF
:100510004000494128BF41F0004130BD14F580043E
:100520003CBF01F5801130BD01F0004545F0FE41B2
:1005300041F470014FF0000030BD7FEA645C1ABFE7
:10054000194610467FEA655C1CBF0B46024650EA1E
:10055000013406BF52EA033591EA030F41F400214A
:1005600030BD00BF90F0000F04BF0021704730B5D0
:100570004FF4806404F132044FF000054FF00001A5
:1005800050E700BF90F0000F04BF0021704730B566
:100590004FF4806404F1320410F0004548BF40423B
:1005A0004FF000013EE700BF42004FEAE2014FEA90
:1005B00031014FEA02701FBF12F07F4393F07F4F6B
:1005C00081F06051704732F07F4208BF704793F06E
:1005D0007F4F04BF41F40021704730B54FF4607481
:1005E00001F0004521F000411CE700BF50EA010284
:1005F00008BF704730B54FF000050AE050EA01022D
:1006000008BF704730B511F0004502D5404261EB9C
:1006100041014FF4806404F132045FEA915C3FF4DD
:10062000D8AE4FF003025FEADC0C18BF03325FEA7A
:10063000DC0C18BF033202EBDC02C2F1200300FA2B
:1006400003FC20FA02F001FA03FE40EA0E0021FA50
:1006500002F11444BDE600BF70B54FF0FF0C4CF43E
:10066000E06C1CEA11541DBF1CEA135594EA0C0FF0
:1006700095EA0C0F00F0DEF82C4481EA030621EA2B
:100680004C5123EA4C5350EA013518BF52EA033566
:1006900041F4801143F4801338D0A0FB02CE4FF018
:1006A0000005E1FB02E506F00042E0FB03E54FF048
:1006B0000006E1FB03569CF0000F18BF4EF0010E40
:1006C000A4F1FF04B6F5007F64F5407404D25FEA3C
:1006D0004E0E6D4146EB060642EAC62141EA5551EF
:1006E0004FEAC52040EA5E504FEACE2EB4F1FD0C31
:1006F00088BFBCF5E06F1ED8BEF1004F08BF5FEAAF
:10070000500E50F1000041EB045170BD06F0004660
:1007100046EA010140EA020081EA0301B4EB5C040D
:10072000C2BFD4EB0C0541EA045170BD41F4801105
:100730004FF0000E013C00F3AB8014F1360FDEBF2A
:10074000002001F0004170BDC4F10004203C35DA06
:100750000C341BDC04F11404C4F1200500FA05F389
:1007600020FA04F001FA05F240EA020001F000422A
:1007700021F0004110EBD37021FA04F642EB0601A0
:100780005EEA430E08BF20EAD37070BDC4F10C04CA
:10079000C4F1200500FA04F320FA05F001FA04F28E
:1007A00040EA020001F0004110EBD37041F100017A
:1007B0005EEA430E08BF20EAD37070BDC4F1200585
:1007C00000FA05F24EEA020E20FA04F301FA05F2ED
:1007D00043EA020321FA04F001F0004121FA04F295
:1007E00020EA020000EBD3705EEA430E08BF20EA65
:1007F000D37070BD94F0000F0FD101F0004640009F
:1008000041EB010111F4801F08BF013CF7D041EA20
:10081000060195F0000F18BF704703F00046520024
:1008200043EB030313F4801F08BF013DF7D043EAF5
:100830000603704794EA0C0F0CEA135518BF95EAAB
:100840000C0F0CD050EA410618BF52EA4306D1D132
:1008500081EA030101F000414FF0000070BD50EA51
:10086000410606BF1046194652EA430619D094EADB
:100870000C0F02D150EA013613D195EA0C0F05D1C5
:1008800052EA03361CBF104619460AD181EA030119
:1008900001F0004141F0FE4141F470014FF00000D1
:1008A00070BD41F0FE4141F4780170BD70B54FF06C
:1008B000FF0C4CF4E06C1CEA11541DBF1CEA1355EC
:1008C00094EA0C0F95EA0C0F00F0A7F8A4EB0504CE
:1008D00081EA030E52EA03354FEA013100F08880C5
:1008E0004FEA03334FF0805545EA131343EA12638E
:1008F0004FEA022245EA111545EA10654FEA002643
:100900000EF000419D4208BF964244F1FD0404F5FB
:10091000407402D25B084FEA3202B61A65EB030557
:100920005B084FEA32024FF480104FF4002CB6EB14
:10093000020E75EB030E22BFB61A754640EA0C0094
:100940005B084FEA3202B6EB020E75EB030E22BFD4
:10095000B61A754640EA5C005B084FEA3202B6EB15
:10096000020E75EB030E22BFB61A754640EA9C00D4
:100970005B084FEA3202B6EB020E75EB030E22BFA4
:10098000B61A754640EADC0055EA060E18D04FEA62
:10099000051545EA16754FEA06164FEAC30343EA02
:1009A00052734FEAC2025FEA1C1CC0D111F4801FCF
:1009B0000BD141EA00014FF000004FF0004CB6E7C8
:1009C00011F4801F04BF01430020B4F1FD0C88BF67
:1009D000BCF5E06F3FF6AFAEB5EB030C04BFB6EB72
:1009E000020C5FEA500C50F1000041EB045170BD65
:1009F0000EF0004E4EEA113114EB5C04C2BFD4EB92
:100A00000C0541EA045170BD41F480114FF0000E15
:100A1000013C90E645EA060E8DE60CEA135594EA91
:100A20000C0F08BF95EA0C0F3FF43BAF94EA0C0F94
:100A30000AD150EA01347FF434AF95EA0C0F7FF409
:100A400025AF104619462CE795EA0C0F06D152EA5D
:100A500003353FF4FDAE1046194622E750EA410641
:100A600018BF52EA43067FF4C5AE50EA41047FF452
:100A70000DAF52EA43057FF4EBAE12E74FF0FF3CB7
:100A800006E000BF4FF0010C02E000BF4FF0010C88
:100A90004DF804CD4FEA410C7FEA6C5C4FEA430C01
:100AA00018BF7FEA6C5C1BD001B050EA410C0CBF50
:100AB00052EA430C91EA030F02BF90EA020F0020B2
:100AC000704710F1000F91EA030F58BF994208BF19
:100AD00090422CBFD8176FEAE37040F001007047D6
:100AE0004FEA410C7FEA6C5C02D150EA013C07D12D
:100AF0004FEA430C7FEA6C5CD6D152EA033CD3D078
:100B00005DF8040B704700BF8446104662468C4671
:100B10001946634600E000BF01B5FFF7B7FF0028A4
:100B200048BF10F1000F01BD4DF808EDFFF7F4FFCD
:100B30000CBF012000205DF808FB00BF4DF808ED58
:100B4000FFF7EAFF34BF012000205DF808FB00BF7B
:100B50004DF808EDFFF7E0FF94BF012000205DF89D
:100B600008FB00BF4DF808EDFFF7CEFF94BF012052
:100B700000205DF808FB00BF4DF808EDFFF7C4FF4B
:100B800034BF012000205DF808FB00BF4FEA410C94
:100B90007FEA6C5C02D150EA013C0AD14FEA430C77
:100BA0007FEA6C5C02D152EA033C02D14FF00000B4
:100BB00070474FF0010070474FEA410212F50012F2
:100BC00015D211D56FF47873B3EB625212D94FEA94
:100BD000C12343F0004343EA505311F0004F23FA7E
:100BE00002F018BF404270474FF00000704750EAD3
:100BF000013005D111F0004008BF6FF00040704790
:100C00004FF00000704700BF4A0011D212F50012E9
:100C100011D20DD56FF47873B3EB62520ED44FEA54
:100C2000C12343F0004343EA505323FA02F07047D4
:100C30004FF00000704750EA013002D14FF0FF3012
:100C400070474FF0000070474FEA4102B2F1E043B5
:100C500024BFB3F5001CDCF1FE5C0DD901F0004CA3
:100C60004FEAC0024CEA5070B2F1004F40EB8300F3
:100C700008BF20F00100704711F0804F21D113F11F
:100C80003872BCBF01F00040704741F480114FEA58
:100C90005252C2F11802C2F1200C10FA0CF320FAE1
:100CA00002F018BF40F001004FEAC1234FEAD323FE
:100CB00003FA0CFC40EA0C0023FA02F34FEA430368
:100CC000CCE77FEA625307D150EA01331EBF4FF0F1
:100CD000FE4040F44000704701F0004040F0FE400C
:100CE00040F40000704700BF80F0004002E000BF09
:100CF00081F0004142001FBF5FEA410392EA030F07
:100D00007FEA226C7FEA236C6AD04FEA1262D2EB50
:100D10001363C1BFD218414048404140B8BF5B4255
:100D2000192B88BF704710F0004F40F4000020F0EE
:100D30007F4018BF404211F0004F41F4000121F004
:100D40007F4118BF494292EA030F3FD0A2F101024E
:100D500041FA03FC10EB0C00C3F1200301FA03F18C
:100D600000F0004302D5494260EB4000B0F5000FAF
:100D700013D3B0F1807F06D340084FEA310102F16E
:100D80000102FE2A51D2B1F1004F40EBC25008BF20
:100D900020F0010040EA03007047490040EB0000EA
:100DA00010F4000FA2F10102EDD1B0FA80FCACF119
:100DB000080CB2EB0C0200FA0CF0AABF00EBC25018
:100DC00052421843BCBFD0401843704792F0000F06
:100DD00081F4000106BF80F400000132013BB5E759
:100DE0004FEA41037FEA226C18BF7FEA236C21D0CF
:100DF00092EA030F04D092F0000F08BF0846704734
:100E000090EA010F1CBF0020704712F07F4F04D101
:100E1000400028BF40F00040704712F100723CBF14
:100E200000F50000704700F0004343F0FE4040F43E
:100E3000000070477FEA226216BF08467FEA2363FC
:100E40000146420206BF5FEA412390EA010F40F4E7
:100E5000800070474FF0000304E000BF10F0004333
:100E600048BF40425FEA000C08BF704743F096431A
:100E700001464FF000001CE050EA010208BF704735
:100E80004FF000030AE000BF50EA010208BF7047BC
:100E900011F0004302D5404261EB41015FEA010CD1
:100EA00002BF84460146002043F0B64308BFA3F1C9
:100EB0008053A3F50003BCFA8CF2083AA3EBC253AB
:100EC00010DB01FA02FC634400FA02FCC2F12002CA
:100ED000BCF1004F20FA02F243EB020008BF20F001
:100EE0000100704702F1200201FA02FCC2F1200267
:100EF00050EA4C0021FA02F243EB020008BF20EA5C
:100F0000DC7070474FF0FF0C1CEAD0521EBF1CEA89
:100F1000D15392EA0C0F93EA0C0F6FD01A4480EA77
:100F2000010C400218BF5FEA41211ED04FF0006360
:100F300043EA501043EA5111A0FB01310CF000408C
:100F4000B1F5000F3EBF490041EAD3715B0040EAB2
:100F5000010062F17F02FD2A1DD8B3F1004F40EB82
:100F6000C25008BF20F00100704790F0000F0CF055
:100F7000004C08BF49024CEA502040EA51207F3A19
:100F8000C2BFD2F1FF0340EAC250704740F40000F4
:100F90004FF00003013A5DDC12F1190FDCBF00F0E5
:100FA00000407047C2F10002410021FA02F1C2F193
:100FB000200200FA02FC5FEA310040F1000053EA2F
:100FC0004C0308BF20EADC70704792F0000F00F07D
:100FD000004C02BF400010F4000F013AF9D040EA83
:100FE0000C0093F0000F01F0004C02BF490011F417
:100FF000000F013BF9D041EA0C018FE70CEAD15315
:1010000092EA0C0F18BF93EA0C0F0AD030F0004C94
:1010100018BF31F0004CD8D180EA010000F0004048
:10102000704790F0000F17BF90F0004F084691F006
:10103000000F91F0004F14D092EA0C0F01D1420240
:101040000FD193EA0C0F03D14B0218BF084608D109
:1010500080EA010000F0004040F0FE4040F4000053
:10106000704740F0FE4040F4400070474FF0FF0CE6
:101070001CEAD0521EBF1CEAD15392EA0C0F93EA2D
:101080000C0F69D0A2EB030280EA010C49024FEA7F
:10109000402037D04FF0805343EA111143EA101338
:1010A0000CF000408B4238BF5B0042F17D024FF4F0
:1010B000000C8B4224BF5B1A40EA0C00B3EB510FCB
:1010C00024BFA3EB510340EA5C00B3EB910F24BFB4
:1010D000A3EB910340EA9C00B3EBD10F24BFA3EB39
:1010E000D10340EADC001B0118BF5FEA1C1CE0D101
:1010F000FD2A3FF650AF8B4240EBC25008BF20F0B4
:10110000010070470CF0004C4CEA50207F32C2BF07
:10111000D2F1FF0340EAC250704740F400004FF0A4
:101120000003013A37E792F0000F00F0004C02BFD5
:10113000400010F4000F013AF9D040EA0C0093F09F
:10114000000F01F0004C02BF490011F4000F013BF9
:10115000F9D041EA0C0195E70CEAD15392EA0C0F61
:1011600008D142027FF47DAF93EA0C0F7FF470AF99
:10117000084676E793EA0C0F04D14B023FF44CAFDC
:1011800008466EE730F0004C18BF31F0004CCAD171
:1011900030F000427FF45CAF31F000437FF43CAFAD
:1011A0005FE700BF4FF0FF3C06E000BF4FF0010CCF
:1011B00002E000BF4FF0010C4DF804CD4FEA4002B1
:1011C0004FEA41037FEA226C18BF7FEA236C11D0FB
:1011D00001B052EA530C18BF90EA010F58BFB2EBAE
:1011E000030088BFC81738BF6FEAE17018BF40F02E
:1011F000010070477FEA226C02D15FEA402C05D1E2
:101200007FEA236CE4D15FEA412CE1D05DF8040B66
:10121000704700BF844608466146FFE70FB5FFF7F9
:10122000C9FF002848BF10F1000F0FBD4DF808EDB1
:10123000FFF7F4FF0CBF012000205DF808FB00BFA2
:101240004DF808EDFFF7EAFF34BF012000205DF8FC
:1012500008FB00BF4DF808EDFFF7E0FF94BF012049
:1012600000205DF808FB00BF4DF808EDFFF7D2FF46
:1012700094BF012000205DF808FB00BF4DF808ED89
:10128000FFF7C8FF34BF012000205DF808FB00BF56
:101290004FEA40024FEA41037FEA226C02D15FEA43
:1012A000402C08D17FEA236C02D15FEA412C02D1A5
:1012B0004FF0000070474FF0010070474FEA4002C6
:1012C000B2F1FE4F0FD34FF09E03B3EB12620DD974
:1012D0004FEA002343F0004310F0004F23FA02F0DE
:1012E00018BF404270474FF00000704712F1610F85
:1012F00001D1420205D110F0004008BF6FF000405C
:1013000070474FF00000704742000ED2B2F1FE4F1E
:101310000BD34FF09E03B3EB126209D44FEA0023C4
:1013200043F0004323FA02F070474FF0000070478B
:1013300012F1610F01D1420202D14FF0FF3070472C
:101340004FF00000704700BF7BB972B90029BEBFE3
:1013500000204FF0004106E008BF00281CBF6FF0DE
:1013600000414FF0FF3000F0BDB9ADF1080C6DE960
:1013700004CE002909DB002B1ADB00F04DF8DDF864
:1013800004E0DDE9022304B07047404261EB410113
:10139000002B1BDB00F040F8DDF804E0DDE9022360
:1013A00004B0404261EB4101524263EB430370479A
:1013B000524263EB430300F02FF8DDF804E0DDE96F
:1013C000022304B0404261EB41017047524263EB9B
:1013D000430300F021F8DDF804E0DDE9022304B066
:1013E000524263EB4303704753B94AB9002908BF1F
:1013F00000281CBF4FF0FF314FF0FF3000F072B9F2
:10140000ADF1080C6DE904CE00F006F8DDF804E05B
:10141000DDE9022304B070472DE9F047089E044639
:101420008846002B4BD18A42154667D9B2FA82F220
:101430004AB1C2F1200701FA02F320FA07F79540FA
:1014400047EA030894404FEA154E230CB8FBFEF719
:101450001FFA85FC0EFB178843EA084307FB0CF1D3
:10146000994209D9EB1807F1FF3080F01B819942AE
:1014700040F21881023F2B445B1AA4B2B3FBFEF08A
:101480000EFB103344EA034400FB0CFCA44509D9CD
:101490002C1900F1FF3380F00781A44540F204814C
:1014A00002382C4440EA0740A4EB0C0400271EB18C
:1014B000D4400023C6E900433946BDE8F0878B429B
:1014C00009D9002E00F0EB800027C6E9000138465C
:1014D0003946BDE8F087B3FA83F7002F47D18B4236
:1014E00002D3824200F2FA80841A61EB03030120E6
:1014F0009846002EE0D0C6E90048DDE702B9FFDEDD
:10150000B2FA82F2002A40F08F80491B4FEA154E52
:101510001FFA85F80127B1FBFEFC230C0EFB1C1102
:1015200043EA014308FB0CF1994207D9EB180CF18F
:10153000FF3002D2994200F2CD808446591AA3B2FC
:10154000B1FBFEF00EFB101443EA044408FB00F864
:10155000A04507D92C1900F1FF3302D2A04500F2B3
:10156000B6801846A4EB080440EA0C409FE7C7F198
:10157000200CBB4022FA0CFE4EEA030E01FA07F4DF
:1015800020FA0CF521FA0CF34FEA1E482543B3FB71
:10159000F8F92C0C08FB19331FFA8EFA44EA0343BE
:1015A00009FB0AF49C4202FA07F200FA07F10BD990
:1015B0001EEB030309F1FF3080F087809C4240F26C
:1015C0008480A9F1020973441B1BADB2B3FBF8F090
:1015D00008FB103345EA034400FB0AFAA24508D988
:1015E0001EEB040400F1FF336BD2A24569D9023827
:1015F000744440EA0940A0FB0289A4EB0A044C456C
:10160000C2464B4654D351D0002E69D0B1EB0A05E7
:1016100064EB030404FA0CFCFD40FC404CEA0505B5
:10162000C6E90054002747E7C2F1200320FA03F778
:10163000954001FA02F021FA03F34FEA154E3843C0
:10164000010CB3FBFEF71FFA85F80EFB173341EAD6
:10165000034107FB08F38B4204FA02F407D9691827
:1016600007F1FF3C2FD28B422DD9023F2944CB1AE0
:1016700081B2B3FBFEF00EFB103341EA034100FBE5
:1016800008F38B4207D9691800F1FF3C17D28B424F
:1016900015D902382944C91A40EA07473BE73746BB
:1016A000304609E70746E7E61846FBE64145ABD278
:1016B000B8EB020A69EB0E0201381346A4E7604654
:1016C000E9E7184695E76746D1E781467CE70238A7
:1016D0002C4447E7ACF1020C2B442FE7384608E7CF
:1016E0003746E9E6704700BF7047000010B5094B68
:1016F0004FF0FF3200241A621C625A625C621A6167
:101700001C615A615C619A619C61FFF7EDFF2046A4
:1017100010BD00BF0038024038B50E4A0E4B0546DA
:1017200018784FF47A73B3FBF0F31068B0FBF3F062
:1017300000F0BEF8044658B90F2D09D802462946D4
:101740004FF0FF3000F05EF8044B20461D6038BDBE
:101750000120FCE7280C00200000002004000020ED
:1017600008B50B4B1A6842F400721A601A6842F40A
:1017700080621A601A6842F480721A60032000F0D6
:101780002FF80F20FFF7C8FF2BF07AFD002008BDCF
:10179000003C0240034A044B11681B780B44136061
:1017A000704700BFE061002000000020014B186876
:1017B000704700BFE061002038B50446FFF7F6FF30
:1017C000631C1CBF054B1B78054618BFE418FFF7C8
:1017D000EDFF401BA042FAD338BD00BF000000203F
:1017E000074AD36823F4E0631B041B0C43F0BF6378
:1017F000000243F4003300F4E0600343D360704719
:1018000000ED00E0174B70B5DC68C4F30224C4F1AE
:101810000705042D04F1040328BF04254FF0FF360B
:10182000062B06FA05F38CBF033C002421EA0303D0
:10183000A34006FA04F422EA0404002843EA04035D
:10184000A8BF00F160404FEA0313BCBF00F00F00D7
:10185000054ADBB2AABF00F56140135480F800339B
:1018600070BD00BF00ED00E014ED00E0002808DBD3
:101870004209012300F01F0003FA00F0014B43F876
:101880002200704700E100E000280DDB430901223F
:1018900000F01F0002FA00F02033044A42F823004F
:1018A000BFF34F8FBFF36F8F704700BF00E100E0C1
:1018B0000138B0F1807F0AD2064B074A5860F02108
:1018C00082F823100020072298601A6070470120D8
:1018D000704700BF10E000E000ED00E00368DAB2FE
:1018E00023F47F7323F003031821103AB2FBF1F2C3
:1018F0000449032A88BF0433895C8365C165806D10
:10190000704700BFE03D030870B50446FFF74EFF87
:101910000546002C71D00223226884F8353000235C
:1019200084F83430136823F00103136021680B68D6
:10193000D8073CD40B68324DA0691D40D4E901237F
:101940001343E26813432269134362691343E26954
:1019500003431343226A1343626A042A43EA0503DA
:1019600002BFD4E90B5635432B430B604B69042A65
:1019700023F0070343EA02030BD1A26AE56A13438B
:101980003DB1F8B9012A2DD001D3022A01D1EA01D3
:101990002BD44B612046FFF7A1FFE26D3F2393401C
:1019A000836000200123606584F8353009E0FFF78B
:1019B000FDFE401B0528B9D920236365032084F868
:1019C000350070BDB0F5005F13D1032AE1D801A046
:1019D00050F822F0EB1900088F190008EB190008E5
:1019E000E5190008B5F1C07FD3D14023636501201C
:1019F000E5E7022AF9D9032AC8E70120E1E700BF99
:101A00003F8010F070B590F83440012C32D00124A2
:101A100080F8344090F83540866D012C4FF0000579
:101A20004FF0020424D180F83540046845652568EC
:101A300025F48025256063608368402B0EBFA2607B
:101A4000A160E260C26D08BFE1603F239340B360D4
:101A5000236843F016032360036C1BB1236843F033
:101A600008032360236843F001032360002070BD56
:101A700080F834500220FAE7F7B5002301935C4B5D
:101A8000856D1F68C36D2E6808229A403242044655
:101A90000CD001680868400708D5086820F00400E9
:101AA0000860AA60626D42F00102626501229A40FC
:101AB000324208D021684969090641BFAA60626DB7
:101AC00042F00202626504229A40324208D0216844
:101AD0000968880741BFAA60626D42F0040262652E
:101AE00010229A40324210D02368196809070CD599
:101AF000AA601A68500337D51B68190301D4236CF8
:101B000000E0A36C0BB120469847E16D20228A408B
:101B100032423AD023681868C60636D5AA6094F8CF
:101B20003520052A1A6827D122F016021A605A6950
:101B300022F080025A61226C0AB9A26C1AB11A68AA
:101B400022F008021A603F238B40AB60012384F827
:101B50003530002384F83430236D002B45D02046E7
:101B600003B0BDE8F04018471A68D2055EBF1A6896
:101B700022F008021A60C2E7500327D51B68190338
:101B800031D4636C0BB120469847636D6BB3636DC2
:101B9000DA0719D50523226884F83530136823F055
:101BA000010313604FF41653B7FBF3F7019B0133A6
:101BB000BB42019302D81368DB07F7D4012384F8F2
:101BC0003530002384F83430E36CC6E71A6812F429
:101BD000807208D1196821F010011960012384F87E
:101BE000353084F83420E36BCCE703B0F0BD00BFA0
:101BF000280C0020094910B50C6924F440740C61CC
:101C00000C6944F440740C610C6944F001040C61EB
:101C10000260BFF36F8F436010BD00BF003C024005
:101C2000074B1A6922F440721A611A6942F4007271
:101C30001A611A6942F001021A610160704700BF1F
:101C4000003C0240074B1A6922F440721A611A697B
:101C500042F480721A611A6942F001021A6101802D
:101C6000704700BF003C0240204BDA68D00606D522
:101C70001F49CA6942F01002CA611022DA60DA68AC
:101C8000910606D51A49CA6942F00802CA612022A3
:101C9000DA60164BDA68520606D51549CA6942F071
:101CA0000402CA614022DA60DA68100606D51049DB
:101CB000CA6942F00202CA618022DA600B4BDA681C
:101CC000D10507D50A49CA6942F00102CA614FF439
:101CD0008072DA60DA68920706D50549CA6942F06F
:101CE0002002CA610222DA60704700BF003C024055
:101CF000E4610020064B1A69002ABFBF054A5A60FA
:101D000002F188325A60BABF1869C00F00207047CC
:101D1000003C024023016745034A136943F0004336
:101D200013610020704700BF003C0240F8B5124B21
:101D3000124C00220546DA61FFF738FD26460746B9
:101D4000E368DA030CD4E368DB0744BF0123E360F4
:101D5000F06810F4F97007D0FFF786FF012003E068
:101D6000691CEDD00DB90320F8BDFFF71FFDC01BA6
:101D7000A842E5D9F7E700BFE4610020003C02403B
:101D80002DE9F0411F4D98462B7E012B07460E464C
:101D9000144635D001234CF250302B76FFF7C6FFA6
:101DA000B0B9CFB9184B1A6922F440721A611A6996
:101DB0001A611A69E4B242F001021A6134704CF2FD
:101DC0005030FFF7B3FF104A136923F0010313618A
:101DD00000232B76BDE8F081012F04D1A1B230465B
:101DE000FFF730FFEBE7022F04D121463046FFF723
:101DF00017FFE4E7224643463046FFF7FBFEDEE7E7
:101E00000220E7E7E4610020003C0240074B1A692A
:101E100022F440721A611A6942F004021A611A69C6
:101E200042F4803242EA002018617047003C0240D0
:101E300039B101291CD002290CBF4FF400714FF4B5
:101E400040710D4B1A6922F440721A611A691143EC
:101E500019611A6922F0F8021A611A6942F0020245
:101E600042EAC00018611A6942F480321A61704770
:101E70004FF48071E5E700BF003C0240144B1A6844
:101E800091050FD51A6822F400721A601A6842F49C
:101E900000621A601A6822F400621A601A6842F43A
:101EA00000721A600A4B1A6852050FD51A6822F49C
:101EB00080621A601A6842F480521A601A6822F42A
:101EC00080521A601A6842F480621A60704700BF3C
:101ED000003C02402DE9F843234E337E012B04469B
:101EE00088463FD001234CF250303376FFF71EFF77
:101EF0000546A8B94FF0FF33C8F800302368012B1E
:101F000013D1207CFFF782FF4CF25030FFF70EFF19
:101F1000164A136923F0040305461361FFF7AEFF69
:101F2000002333762846BDE8F883A768DFF83C90A5
:101F3000D4E902231344BB42F0D9217C3846FFF791
:101F400077FF4CF25030FFF7F1FED9F8103023F054
:101F5000FA03C9F8103018B1C8F800700546DDE77B
:101F60000137E5E70225DDE7E4610020003C02409F
:101F70002DE9F04F85B00B68DFF8A481664A019324
:101F80004FF0010B0023019D0BFA03F42540AC42F6
:101F900040F0B2804E684FEA430E06F00304032778
:101FA00007FA0EF704F1FF3CFF43BCF1010F009765
:101FB0003CD8D0F808C00CEA070CCF6807FA0EF935
:101FC00049EA0C0CC0F808C0D0F80490C6F3001C15
:101FD00029EA05090CFA03FC4CEA090CC0F804C014
:101FE000D0F80CC0009F0CEA070C8F6807FA0EF9B6
:101FF00049EA0C0C022CC0F80CC019D14FEAD309E5
:1020000000EB890903F0070AD9F820704FEA8A0A21
:102010004FF00F0C0CFA0AFC27EA0C0C0F6907FAB8
:102020000AFA4AEA0C0AC9F820A001E0032CD7D129
:10203000D0F800C0009F04FA0EF40CEA070727430B
:1020400016F4403F076057D04FF0000ACDF80CA0BF
:10205000D8F84470314C47F48047C8F84470D8F839
:10206000447007F480470397039F23F0030707F1A9
:10207000804707F59C3703F0030ED7F808904FEA26
:102080008E0E4FF00F0C0CFA0EFCA04229EA0C0C3D
:1020900039D004F58064A04237D004F58064A042B2
:1020A00035D004F58064A04233D004F58064A042AA
:1020B00014BF0724042404FA0EF444EA0C04BC60A0
:1020C0001468EF4316F4803F0CBF3C402C4314606F
:1020D000546816F4003F0CBF3C402C435460946895
:1020E00016F4801F0CBF3C402C439460D468B602A9
:1020F00054BF3C402C43D4600133102B7FF443AFDA
:1021000005B0BDE8F08F5446D5E70124D3E702249B
:10211000D1E70324CFE700BF003C014000000240AC
:1021200000380240F0B504468BB060B390F8BD3380
:10213000056803F0FF021BB980F8BC2327F062FE9C
:10214000032384F8BD33EB6B254613F4807355F8F5
:10215000100B08BF236101F029FE0FCD6E460FC69C
:102160000FCD0FC695E8030086E803002546271D1E
:1021700097E80E0055F8100B01F05EFD064620B101
:10218000022384F8BD33012556E00146206801F0A2
:1021900013FE3046D4F804C01C264FF0010E014651
:1021A000C2B2944500F101001CD800231C26194638
:1021B000D8B2844503F1010322D80FCD6E460FC675
:1021C0000FCD0FC695E8030086E8030097E80E00E0
:1021D000206801F057FE0123054600B3022284F86F
:1021E000BD23D0E706FB0243C3E9111183F83DE0AC
:1021F00083F83C20A3F8422083F83F101965CFE70D
:1022000006FB004282F8FD1182F8FC0182F8FF1102
:10221000C2F80412C2F80812C2F81012C8E784F813
:10222000380084F8BD33636A012B02D1204600F0E8
:1022300056FC206802F071F928460BB0F0BD90F80A
:10224000BC33012B10B5044616D00123006884F876
:10225000BC33A36A012B06D1A369012B1EBF836B7C
:1022600043F48033836301F09BFD206802F047F95B
:10227000002084F8BC0310BD0220FCE72DE9F04FDC
:10228000056887B00446284602F084F902900028C9
:1022900040F03B81206802F04EF9002800F03581C3
:1022A000206802F048F9820748BF2268206842BFD0
:1022B000536903F00203536102F03DF9C3062AD5C6
:1022C0002268936923F0100393612E6AC6F3434397
:1022D000022B06F00F0840F01B8147F6F0731E42F8
:1022E00014D01C2707FB0847C6F30A163246D7F856
:1022F0000812284602F07AF8D7F808323344C7F8B3
:102300000832D7F814321E44C7F814622268936961
:1023100043F010039361206802F00DF9070300F108
:102320000681206802F007F946030BD5206802F009
:102330000EF926468246002705F51069BAF1000F0E
:1023400040F0A381206802F0F6F8002815DAD5F8ED
:10235000043823F00103C5F8043894F8F433012B52
:1023600040F02E82002184F8F413204600F0CAFBCE
:102370002268536903F000435361206802F0DBF8E0
:1023800000050BD5D5F80838D90702D5204627F027
:10239000A9FD2268536903F400635361206802F0C9
:1023A000CAF8020114D523685A6902F000625A6122
:1023B00094F8F423002A40F007825B6D0121C3F3F7
:1023C000830384F8F413C4F8F833204600F09AFB32
:1023D000206802F0B0F8C30435D505F500667368CF
:1023E000206823F001037360102101F015FD60687F
:1023F00005F510634FF67F31029A904240F0E88174
:10240000F36943F00113F361236B002B00F0FC81AF
:10241000D6F8843043F00B03C6F88430736C43F075
:102420000B037364D5F80038217C206823F4FE6325
:10243000C5F8003804F5717202F0C0F822685369DB
:1024400003F480535361206802F075F8870416D5B1
:10245000206802F0A3F8206801F0CCFDE060256858
:1024600000F01AFC227B0146284601F025FC20469C
:1024700027F025FD2268536903F400535361206857
:1024800002F059F8060707D5204627F014FD226808
:10249000536903F008035361206802F04CF8C50249
:1024A00008D50021204627F03DFD2268536903F43A
:1024B00080135361206802F03EF8800208D50021A5
:1024C000204627F02BFD2268536903F40013536163
:1024D000206802F030F8410007D5204627F026FD9D
:1024E0002268536903F080435361206802F023F8A7
:1024F00042070AD523685D686B0702D5204627F09E
:1025000019FD226853682B43536007B0BDE8F08F74
:10251000062B7FF4FBAE082204F5717128461C27B8
:1025200001F064FF07FB0847C6F30A16E9E62068D6
:10253000DFF8EC92DFF8ECB202F001F800268046FA
:10254000B8F1000F3FF4EDAE18F0010F61D05FFA63
:1025500086FA5146206802F002F80746F8071CD5B3
:10256000730105F530621A4420680121916000F57D
:1025700030622169D0F840C0134401299A686DD1B6
:10258000110706D5CC4508D9100406D54FF40042F2
:1025900002E0910641D520229A60380720D57301C8
:1025A00005F530621A44082191602268D2F840A0F3
:1025B00002F530621344CA459A6804D9110444BF35
:1025C0004FF400429A60204627F05EFCCA4507D9C6
:1025D0002169012904D104F57172206801F0EEFF30
:1025E000FA0641BF05F5306303EB461310229A60EB
:1025F000BB0641BF05F5306303EB461320229A600A
:10260000BF0441BF05F5306303EB46134FF400529E
:102610009A6001364FEA580892E712F0280FBCD1B1
:10262000CC4501D91204B1D41C2202FB06421B691D
:10263000D2F80412C3F31203CB1AC2F81432D2F840
:1026400008321944C2F8081286B9D4F810326BB9AE
:1026500004F57172012101F0B1FF07E0DC450AD1F8
:10266000110493D4920601D520229A605146204647
:1026700027F010FC91E7002EF8D1D4F81032002B8F
:10268000F4D104F571723146E5E71AF0010F74D008
:102690005FFA87FB5946206801F06AFF10F0010FCE
:1026A000804620D0D5F834382169012007F00F0288
:1026B00000FA02F223EA0203C5F8343809EB4713A3
:1026C000814298600BD1D6E911231344B36437B922
:1026D000236D23B904F57172206801F06FFF59462C
:1026E000204627F0E0FB18F0080F1EBF09EB471348
:1026F00008229A6018F0100F1EBF09EB4713102232
:102700009A6018F0400F1EBF09EB471340229A60F1
:1027100018F0020F1EBF09EB471302229A6018F04F
:10272000800F2AD0D6E914329A4226D89B1A726CAE
:1027300021680391934228BF134603339B080493F7
:1027400001F5106303EB47130593059B0498996902
:1027500089B28142D6E9143214D293420DD8039B38
:1027600007F00F0203F5006B0121D3F8343801FAAA
:1027700002F223EA0203CBF8343001374FEA5A0A57
:102780001C36DBE59342EAD9002BE8D0A3EB020824
:10279000736C0398984528BF984608F103039B087B
:1027A0000493237C00935A461FFA88F3B16C01F01E
:1027B00031FDB36C4344B364736D43447365C4E744
:1027C000204627F0A7FBD3E5204627F08BFBFFE54B
:1027D00099601A6822F400121A601A6842F00062C6
:1027E0001A60C3F80812D3F8002222F40012C3F8CA
:1027F0000022D3F8002242F00062C3F80022029ABD
:10280000013202922033F7E5736943F4005343F039
:102810002B037361336943F00B03336102E600BF9E
:102820000A30544F0A31544F90F8BC23012A10B596
:1028300004460BD0012280F8BC2384F838100068CD
:1028400001F04DFE002084F8BC0310BD0220FCE71F
:1028500070B501F00F05044611F0800FC5EBC500FF
:102860004FEA80004FF01C061FD006FB054600F122
:102870003C010120214486F83D008A604A780D70B1
:10288000CB7002B1CD80022B04BF00230B7194F8F2
:10289000BC33012B12D0012384F8BC33206801F033
:1028A000B4FB002084F8BC0370BD06FB054600F5B0
:1028B000FE710020214486F8FD01DEE70220F3E7E7
:1028C00010B5044601F00F00C0EBC00311F0800FFB
:1028D0004FEA83034FF01C0216D002FB004203F1C3
:1028E0003C010123214482F83D30087094F8BC3348
:1028F000012B12D0012384F8BC33206801F0C4FB03
:10290000002084F8BC0310BD02FB004203F5FE71F9
:102910000023214482F8FD31E7E70220F3E738B5D0
:1029200001F00F051C2404FB050104FB050401F55F
:10293000FE71C4F810320023C4F80822C4F814321F
:1029400084F8FD3184F8FC5103690068012B08BF4D
:10295000C4F80C22DAB21DB901F0E8FB002038BD42
:1029600001F06CFCFAE71C2301F00F0103FB0101ED
:10297000D1F81402704738B501F00F051C2404FB90
:10298000050104FB05043C31236500236365012335
:10299000A26484F83D3084F83C5003690068012B40
:1029A00008BFE264DAB21DB901F0C0FB002038BDF7
:1029B00001F044FCFAE738B5436801F00F059D4289
:1029C00004462ED811F0800F4FF01C021FD002FBDE
:1029D000050102FB050301223C3381F83D20012261
:1029E0009A701D7094F8BC1391421CD084F8BC23DB
:1029F0001946206801F01FFD2DB904F57172217C84
:102A0000206801F0DBFD002084F8BC0338BD02FB28
:102A1000010302FB0101002203F5FE7381F8FD2191
:102A2000DDE70120F2E70220F0E738B5436801F066
:102A30000F029A4204462AD8C2EBC20311F0800F5B
:102A40004FEA83034FF01C0018D000FB024003F153
:102A50003C010123214480F83D3000258D700A702F
:102A600094F8BC33012B14D0012384F8BC332068C4
:102A700001F00CFD84F8BC53284638BD00FB024031
:102A800003F5FE710023214480F8FD31E5E70120C4
:102A9000F3E70220F1E7006870B51204446A19B93F
:102AA00022438262002070BD836A4D1E04EB1344F2
:102AB00000235E1CDBB29D4205D83F3100EB810054
:102AC00022434260EEE7403300EB83035B6804EB94
:102AD00013443346EDE703680020596270470268EB
:102AE00003460121C0F8FC13002083F8F403936926
:102AF00043F000639361536D43F0805343F003034D
:102B00005365704770470000134908B58B6803F0A0
:102B10000C03042B03D0082B03D0104800E010480E
:102B200008BD4A684B68496813F4800314BF0C4819
:102B30000A48C1F3881118BF002302F03F02A1FB2D
:102B40000001FEF751FC044B5B68C3F30143013302
:102B50005B00B0FBF3F0E3E7003802400024F40030
:102B600040787D012DE9F0410D46044610B9012061
:102B7000BDE8F081434B1A6802F007028A4228D36D
:102B800021688F072DD4C80740D43E4B1A6802F045
:102B90000702AA4265D8226851076BD4130707D5EC
:102BA000394A2169936823F4604343EAC10393607F
:102BB000FFF7AAFF344B354A9B68C3F30313D35C7A
:102BC000D840334B1860334B1868FEF7A5FD002042
:102BD000CEE7CAB21A701B6803F007038B42C6D156
:102BE000CEE7294B11F0040F1EBF9A6842F4E05261
:102BF0009A600E0742BF9A6842F460429A609A68EF
:102C0000A06822F0F00202439A60BCE762681E4BA3
:102C1000012A1CD11B6813F4003FA8D01A4EB368D8
:102C200023F003031343B360FEF7C0FD41F288387D
:102C30000746B368626803F00C03B3EB820FA4D0BD
:102C4000FEF7B4FDC01B4045F3D9032090E7911E69
:102C500001291B6802D813F0007FDEE713F0020F92
:102C6000DBE7EAB21A701B6803F00703AB427FF49C
:102C70007EAF90E70449E0688B6823F4E053034398
:102C80008B608BE7003C02400038024004E80308F8
:102C9000280C002004000020014B1868704700BF7A
:102CA000280C0020044B054A9B68C3F38223D35CA5
:102CB000034A1068D84070470038024014E80308FF
:102CC000280C0020044B054A9B68C3F34233D35CB5
:102CD000034A1068D84070470038024014E80308DF
:102CE000280C00200F2303600B4B9A6802F00302AC
:102CF00042609A6802F0F00282609A6802F4E05240
:102D0000C2609B68DB0803F4E0530361034B1B685C
:102D100003F007030B60704700380240003C02409C
:102D200002682DE9F34112F0010504460BD08E49EB
:102D30004569D1F88C3023F0C0632B43B5FA85F593
:102D4000C1F88C306D0996070BD58748A169D0F87A
:102D50008C3023F0C0530B430029C0F88C3008BFDF
:102D60000125100730D5002301937F4B7F4E1A6C4D
:102D700042F080521A641B6C03F080530193019B54
:102D8000336843F480733360FEF710FD0746336801
:102D9000D9055CD5744E336F13F4407360D1E36989
:102DA00003F44072B2F5407F6F4A78D1916823F006
:102DB000704021F4F81120F4407001439160116FCC
:102DC000C3F30B030B43136723685F0742BF684BD2
:102DD00094F838201A602268D60608D56249606ADD
:102DE000D1F8943023F440030343C1F894309006A3
:102DF0000CD55D48A16AD0F8943023F000630B43F2
:102E0000B1F1006FC0F8943008BF0125510608D514
:102E10005549206AD1F8943023F080530343C1F818
:102E20009430012D3FD0802A3DD02068C20500F1AA
:102E3000908010F4007010D04B4A216BD2F88C3087
:102E400023F400430B43C2F88C30002005E0FEF76A
:102E5000ADFCC01B02289AD9032002B0BDE8F08166
:102E6000E26902F44072934299D0336F414A0121E2
:102E7000116023F44073002111603367336FDA0768
:102E80008DD5FEF793FC41F288380746336F9B07D8
:102E900085D4FEF78BFCC01B4045F7D9DCE7916871
:102EA00021F4F8118AE7344D2F4E00232B60FEF7F2
:102EB0007DFC074633681B0145D4304B626B1A60BA
:102EC0002268D70701D563698BB1960701D5A3693D
:102ED0006BB1900603D5A36AB3F1006F07D051061A
:102EE00012D5236A83B9A36AB3F1006F0CD1D4E978
:102EF00002131B0643EA811361680B43216943EA0D
:102F000001731949C1F8843012060CD5D4E90223A3
:102F10001B0643EA821362681343226943EA027381
:102F2000114AC2F8843001232B60FEF73FFC0E4D9E
:102F300006462B681B013FF578AFFEF737FC801B78
:102F40000228F6D988E7FEF731FCC01B0228B1D968
:102F500082E7054AE16AD2F88C3023F000430B4344
:102F6000C2F88C3065E700BF0038024000700040B6
:102F7000E0114742400E474268004742D81047429E
:102F800070B5414CFEF712FC236843F0010305467F
:102F900023602368980757D5236843F08003236094
:102FA000FEF704FC0023A360374C054641F2883647
:102FB000A36813F00C0F4ED1FEF7F8FB236823F43F
:102FC00050232360304C05462368990349D4FEF70B
:102FD000EDFB236823F0807323602B4C05462368A8
:102FE0009A0144D4FEF7E2FB236823F08063236058
:102FF000254C054623681B013FD4244B6360C4F86D
:103000008430E368224A23F4F853E360E36823F44E
:103010000053E360E36843F41F03E360E36843F4B1
:103020000013E360636F23F001036367636F43F092
:1030300080736367174B1A60174B1868FEF76CFBB9
:10304000003018BF012005E0FEF7B0FB401B02284E
:103050009FD9032070BDFEF7A9FB401BB042A7D942
:10306000F7E7FEF7A3FB401B6428ADD9F1E7FEF7B5
:103070009DFB401B0228B2D9EBE7FEF797FB401BF4
:103080000228B7D9E5E700BF00380240103000241D
:103090000024F400280C0020040000202DE9F34156
:1030A000044608B901203FE00368DD0710D4236817
:1030B00098075AD423681A0700F19C8023685B079D
:1030C00000F1BA80A069002840F01B8100202BE0AD
:1030D000A54B9A6802F00C02042A07D09A6802F005
:1030E0000C02082A0AD15B68590207D59E4B1B685F
:1030F0009A03DCD56368002BD9D1D3E763689A4D76
:10310000B3F5803F13D12B6843F480332B60FEF777
:103110004DFB954D06462B689B03C8D4FEF746FB36
:10312000801B6428F7D9032002B0BDE8F081B3F515
:10313000A02F04D12B6843F480232B60E3E72A6897
:1031400022F480322A602A6822F480222A60002B2E
:10315000DDD1FEF72BFB06462B689F03A7D5FEF7B4
:1031600025FB801B6428F7D9DDE77F4B9A6812F0B6
:103170000C0F07D09A6802F00C02082A11D15B6884
:103180005E020ED4784B1A68950702D5E268012AD0
:1031900088D11A68216922F0F80242EAC1021A6055
:1031A00088E7E268714BB2B101221A60FEF7FEFABD
:1031B0006D4D06462B68980707D52B68226923F0CA
:1031C000F80343EAC2032B6074E7FEF7EFFA801BB3
:1031D0000228EFD9A7E71A60FEF7E8FA624D064623
:1031E0002B6899077FF566AFFEF7E0FA801B02288F
:1031F000F6D998E762695E4B7AB101221A60FEF750
:10320000D5FA594D06466B6F9F073FF557AFFEF74E
:10321000CDFA801B0228F6D985E71A60FEF7C6FAB8
:10322000514D06466B6F98077FF548AFFEF7BEFA23
:10323000801B0228F6D976E74B4B1A6C12F08052AD
:1032400028D101921A6C42F080521A641B6C03F070
:1032500080530193019B0126464D2B68D9051BD550
:10326000A368414D012B27D12B6F43F001032B673E
:10327000FEF79CFA3C4D074641F288382B6F9B07BE
:1032800039D5002E3FF41EAF374A136C23F080531C
:10329000136417E70026DFE72B6843F480732B6085
:1032A000FEF784FA07462B68DA05D9D4FEF77EFAD2
:1032B000C01B0228F7D936E7052B04D12B6F43F04A
:1032C00004032B67D0E72A6F22F001022A672A6FD6
:1032D00022F004022A67002BCAD1FEF767FA41F2F6
:1032E000883807462B6F9807CBD5FEF75FFAC01BCF
:1032F0004045F7D917E7FEF759FAC01B4045BDD93D
:1033000011E7194DAB6803F00C03082B49D01A4E96
:1033100000230228336037D1FEF748FA07462B68AE
:1033200099012BD4D4E907321343626A43EA82132A
:10333000E26A43EA0263226B43EA0273A26A0A4C1E
:103340005208013A43EA02436B6001233360FEF7FF
:103350002DFA054623689A013FF5B8AEFEF726FA26
:10336000401B0228F6D9DEE6003802400000474242
:10337000800E47420070004060004742FEF716FA98
:10338000C01B0228CBD9CEE6FEF710FA04462B6804
:103390009B017FF59BAEFEF709FA001B0228F6D9C8
:1033A000C1E601283FF4C0AE6B68E26903F4800116
:1033B00091427FF477AE216A03F03F028A427FF4A4
:1033C00071AE616A47F6C0721A40B2EB811F7FF49A
:1033D00069AEA26A520803F44031013AB1EB024FE0
:1033E0007FF460AEE16A03F07062B2EB016F7FF4CC
:1033F00059AE226B03F0E043B3EB027F14BF012010
:10340000002091E62DE9F7431E46884617460546FB
:10341000FEF7CCF90A9C3444241AFEF7C7F9254B71
:103420001B68C3F3CB33814663432A6801939368D7
:1034300038EA03030CBF01230023BB4201D1002063
:103440002EE0731CF3D0FEF7B1F9A0EB0900A04207
:1034500029D32B685A6822F0E0025A606A68B2F5F4
:10346000827F0AD1AA68B2F5004F02D0B2F5806F10
:1034700003D11A6822F040021A60AA6AB2F5005F0E
:1034800007D11A6822F400521A601A6842F40052F6
:103490001A60012385F85130002385F8503003204D
:1034A00003B0BDE8F083019B002B019B08BF002403
:1034B000013BBAE7280C00207FB50B461249134E9A
:1034C0000D684168B5FBF6F64FF47A757543B1F5B2
:1034D000827F044603950CD1009280210022FFF7E1
:1034E00091FF78B1636D43F020036365032004B05E
:1034F00070BD039B33B1039B013B039323689B681F
:103500001B06F6D40020F2E7280C002000366E01DE
:1035100037B50B464168B1F5827F044622D18168F8
:10352000B1F5004F02D0B1F5806F07D1256828684A
:10353000B1F5806F20F04000286009D00092802112
:1035400000222046FFF75EFF30B9002003B030BDF7
:10355000009201210022F4E7636D43F020036365CC
:103560000320F3E7009201210022EBE7704738B512
:10357000044600285AD0436A002B53D14268B2F562
:10358000827F00D0C36194F8513003F0FF0223B969
:1035900084F850202046FFF7E9FF2168A568A2695A
:1035A000A06A022384F851300B6823F040030B60BB
:1035B000636805F4044503F482732B43E56805F45E
:1035C00000652B43256905F002052B43656905F06D
:1035D00001052B4302F400752B43E56905F038051E
:1035E0002B43256A05F080052B4300F400552B433F
:1035F0000B60636A120C03F01003B0F5005F02F079
:10360000040242EA030208BFA38D4A6008BF0B61AF
:10361000CB6923F40063CB6100200123606584F84B
:10362000513038BD0023C0E90433ACE70120F8E78E
:1036300090F85030012B10B504465DD0012380F87E
:10364000503090F85100C0B2984253D100293CD07C
:10365000002A3AD0032384F8513000236365A36322
:10366000E286C4E91033A387E387A368A286B3F593
:10367000004F2163226807D1136823F040031360D1
:10368000136843F480431360A36AB3F5005F07D166
:10369000136823F400531360136843F4005313605A
:1036A000A06C164B0364164BC363164BC364002314
:1036B00003650C32E38EFEF7A5F950B1636D01206E
:1036C00043F01003636584F85100002384F8503000
:1036D00010BD23681A6852065EBF1A6842F04002A5
:1036E0001A605A6842F020025A605A6842F0020298
:1036F0005A60EAE70220E8E70220E9E729390008F2
:103700006F3900084D39000838B5044690F850006C
:1037100001287CD0012084F8500094F85100C0B2F8
:10372000012808D06568B5F5827F6CD1A568002DA9
:1037300069D1042867D1002967D0002A65D0002B01
:1037400063D094F85100A38604281CBF052084F898
:10375000510000206065A387E386E387A36A2163A5
:10376000B3F5005FA263C4E91000216807D10B68BC
:1037700023F400530B600B6843F400530B6094F880
:103780005130E06C042B0BBF224B234B03640364CA
:103790000CBF224B224BC363224BC364002303653F
:1037A0000C31E38FFEF72EF9034650B1636D012013
:1037B00043F01003636584F85100002384F850300F
:1037C00038BD2268A06C516841F001015160C0E928
:1037D0000F33C0E913330C32E38E216BFEF712F97D
:1037E0000028E3D123681A6852065EBF1A6842F0C7
:1037F00040021A605A6842F020025A605A6842F049
:1038000002025A60D9E70220D7E70120D5E702205B
:10381000D6E700BF3539000841390008D93900081A
:10382000873A00084D3900081346826870B504468F
:103830000D465AB94668B6F5827F07D1042280F852
:103840005120BDE870400A46FFF75EBF94F8501063
:1038500001295DD094F851000121C0B2884284F85A
:10386000501053D1002D3CD0002B3AD0042184F8C5
:103870005110B2F5004F4FF000016165C4E910111D
:10388000E387A186E186A563A387216807D10B683A
:1038900023F040030B600B6823F480430B60A36AA2
:1038A000B3F5005F07D10B6823F400530B600B687E
:1038B00043F400530B60E06C164B0364164BC36378
:1038C000164BC364002303652A46E38F0C31FEF7D1
:1038D00099F850B1636D012043F01003636584F8DB
:1038E0005100002384F8503070BD23681A685206D6
:1038F0005EBF1A6842F040021A605A6842F0200225
:103900005A605A6842F001025A60EAE70220E8E78A
:103910000220E9E735390008D93900084D39000897
:10392000704770477047704708B5806BFFF7FBFF23
:1039300008BD704708B5806BFFF7FBFF08BD7047F7
:1039400008B5806BFFF7FBFF08BD7047806B02680E
:1039500008B5536823F003035360436D43F010032D
:103960004365012380F85130FFF7EFFF08BD37B5FD
:103970000546846BFDF71AFF2B681B68DB050246C2
:1039800026D42368596821F020015960596821F034
:103990000201596020466421FFF78EFD18B1636D66
:1039A00043F020036365A36833B901932368DA68A1
:1039B00001929B680193019B0023E386012384F815
:1039C0005130636D23B12046FFF7BFFF03B030BD18
:1039D0002046FFF7A5FFF9E77FB5064600230393CE
:1039E000846BFDF7E3FE33681B68DA05054646D4B1
:1039F0002268536823F020035360A36AB3F5005F85
:103A00000FD101220090642311462046FFF7FAFCF3
:103A100018B1636D43F0020363652368DB680393A9
:103A2000039BA268236832BB6268B2F5827F22D111
:103A30005A6822F003025A6064212A462046FFF7A2
:103A400067FD08B1202363650023E3872268012313
:103A500084F851309368DB0606D5636D43F00203AA
:103A600063654FF6EF739360636D43B12046FFF7D4
:103A70006CFF04B070BD5A6822F00102DBE72046FB
:103A8000FFF74FFFF5E77FB5064600230393846BEE
:103A9000FDF78CFE33681B68D90505463ED42268C5
:103AA000536823F020035360A36AB3F5005F0FD17E
:103AB00001220090642311462046FFF7A3FC18B1B1
:103AC000636D43F0020363652368DB680393039B24
:103AD0002A4664212046FFF7EFFC18B1636D43F0DE
:103AE0002003636523685A6822F003025A600022AB
:103AF000E286E287012284F851209A68D20606D530
:103B0000626D42F0020262654FF6EF729A60636D79
:103B100023B12046FFF719FF04B070BD2046FFF720
:103B200001FFF9E7304A0368904212D0B0F1804FAC
:103B30000FD0A2F57C4290420BD002F580629042F9
:103B400007D002F58062904203D002F5784290429D
:103B500019D14A6823F070031343234A904229D0B5
:103B6000B0F1804F26D0A2F57C42904222D002F5DF
:103B7000806290421ED002F5806290421AD002F517
:103B80007842904216D0194A904213D002F58062D2
:103B900090420FD002F5806290420BD0A2F598328D
:103BA000904207D002F58062904203D002F5806215
:103BB000904203D1CA6823F4407313434A6923F047
:103BC0008003134303608B68C3620B688362064BF8
:103BD000984203D003F58063984201D10B690363D7
:103BE00001234361704700BF0000014000400140D5
:103BF00082B000230F4A0193019B0133934201934A
:103C000015D80369002BF7DA002301930369094AE9
:103C100043F001030361019B01339342019306D8F2
:103C2000036913F00103F6D1184602B07047032070
:103C3000FBE700BF400D030084B038B505AD85E853
:103C40000E000A9B012B044625D1836B23F480339D
:103C50008363C36823F4840323F04003C360C36811
:103C600023F44013C360119B012B02BFC36843F4CC
:103C70008013C360FFF7BCFF089B012B07D1A3682B
:103C800043F00603A360A36843F02003A360BDE8EC
:103C9000384004B07047C36843F04003C360FFF787
:103CA000A7FF0E9B23B9A36B43F48033A363E3E721
:103CB000A36B23F48033F9E7022A58D12E4B2F4A05
:103CC0000B44934247D92E4B2E4A0B44934244D97E
:103CD000A1F574032C4AA3F5105393423FD9A1F1E7
:103CE000837302F5C332A3F5E743A032934238D978
:103CF000264B274A0B44934235D9264B02F5922294
:103D00000B4402F5787293422FD9234B02F5C3225C
:103D10000B4402F52072934229D9A1F1B77302F541
:103D2000B712A3F5585302F55872934221D91B4B91
:103D300002F512220B4402F5F862934294BF072366
:103D40000623C26822F47052C260C26842EA83232A
:103D5000C360002070470F23F3E70E23F1E70D2324
:103D6000EFE70C23EDE70B23EBE70A23E9E7092351
:103D7000E7E70823E5E700BF405327FFFF340C00C7
:103D8000401E1BFF3F420F007F4F120060B6E5FE52
:103D90005FE3160000D3CEFEC05BB3FEE05459FED5
:103DA000836843F00103836000207047836823F039
:103DB000010383600020704738B5C368012923F0F0
:103DC000C0430546C36010D1C36843F00053C360CD
:103DD00000240120FDF7F0FC6B69D90704F1010410
:103DE00015D4322CF5D1012038BD0029FBD1C36890
:103DF00043F08043C3600C460120FDF7DDFC6B6996
:103E0000DA0704F1010402D5322CF5D1EBE7A4F175
:103E1000320358425841E7E782B08901002341F05C
:103E20002001084A01930161019B013393420193F0
:103E300006D8036913F02003F6D1184602B0704784
:103E40000320FBE7400D030082B000230193084AE2
:103E500010230361019B01339342019306D8036948
:103E600013F01003F6D1184602B070470320FBE7A9
:103E7000400D0300D0F800381943C0F800180020A6
:103E80007047000084B02DE9F843044609A880E893
:103E90000E000023139D0F46194603F1400204EB68
:103EA000820201330F2B5160F7D104F50066002D1B
:103EB0006CD1736843F002037360A36B23F40013A7
:103EC000A363236843F040032360236843F0800327
:103ED00023600023C4F8003ED4F80038C4F800384A
:103EE0000E9B012B59D10B99002954D12046FFF785
:103EF000C1FF10212046FFF78FFF01462046FFF744
:103F0000A3FF00284BD1081C18BF012000233361F8
:103F100004F5106273611946F3614FF0904C4FF055
:103F2000006E4FF67F38BB423BD1002104F5306272
:103F30000F464FF0904C4FF0006E4FF67F388B429B
:103F400042D1336923F4807333610023A3616FF09E
:103F5000804363610C9B1BB9A36943F01003A36109
:103F6000A269234B1343A3610F9B1BB1A36943F0C9
:103F70000803A361012D01BFA36943F0804343F00F
:103F80000403A361BDE8F84304B07047A36B43F496
:103F90000013A3639DE71946A8E70321A6E70120C4
:103FA000B4E7D2F80090B9F1000F0BDA3BB9C2F8D0
:103FB00000E011610133C2F808802032B3E7C2F893
:103FC00000C0F6E71160F4E7D2F80090B9F1000FF5
:103FD0000BDA39B9C2F800E017610131C2F8088084
:103FE0002032ACE7C2F800C0F6E71760F4E700BF84
:103FF00000383C80D0F8083813F0060004D013F0E5
:10400000020F14BF02200F20704730B50D78012435
:1040100005F00F039C404B7800F50062012B00EB8C
:104020004510D36918D11C43D461D0F800391A0463
:1040300010D48B68C978D0F80029C3F30A0343F081
:10404000805343F4004343EA814343EA85531343D7
:10405000C0F80039002030BD43EA0444D461D0F8F0
:10406000003B1B04F6D48B68C978D0F8002BC3F34F
:104070000A0343F0805343F4004343EA814313436C
:10408000C0F8003BE6E7000010B50A78497801293E
:1040900000EB421302F00F0100F5006020D1D3F8CD
:1040A0000029002A0BDAD3F8002942F00062C3F895
:1040B0000029D3F8002942F08042C3F800290122E8
:1040C000C46B8A40D2431440C463C1690A40C261D0
:1040D000D3F80019134A0A40C3F80029002010BD84
:1040E000D3F8002B002A0BDAD3F8002B42F0006241
:1040F000C3F8002BD3F8002B42F08042C3F8002B0A
:104100004FF48032C46B8A40D2431440C463C16907
:104110000A40C261D3F8001B034A0A40C3F8002BCF
:10412000DCE700BF007833EC0078F3EF4B78F0B5B4
:104130000C784D69354E364F012B00EB441444D1B9
:1041400004F51063B5B91D692E401E611D6945F463
:1041500000251D611D692F401F61012A21D10A69B7
:1041600002B15A61D4F8003943F00443C4F800396D
:104170000020F0BDD3F810C00CEA07071F611F69CB
:104180003E401E618E68AE421D6938BF4E6145F4E7
:1041900000251D614D691E69C5F3120535431D617A
:1041A000DBE7D4F8003943F00443C4F800394B6925
:1041B000002BDDD00B78D0F8344803F00F02012338
:1041C00093402343C0F83438D2E704F530631869CC
:1041D00038401861186930401861886805B1486135
:1041E0001D6945F400251D611D69C0F312002843B7
:1041F000012A186102D1CA6802B15A61D4F8003BA1
:1042000043F00443C4F8003BB2E700BFFFFF07E000
:104210000000F8FF10B59DF808404CB9033300EBDF
:1042200002309B0800F5805001EB8303994201D1D5
:10423000002010BD51F8042B0260F7E7F7B54D7868
:104240000C784B69CE78DFF89CC1DFF89CE1012D3A
:1042500000EB44147CD104F510652F693BBB07EAE1
:104260000C072F612F6947F400272F612F6907EA98
:104270000E072F61012A41D10B6903B16B61012E39
:104280000CD1D0F8083813F4807FD4F800390CBF73
:1042900043F0005343F08053C4F80039D4F8003998
:1042A00043F00443C4F80039002003B0F0BD07EA2E
:1042B0000E072F612F6907EA0C07D1F808C02F619C
:1042C0000CEB0307013FB7FBFCFC454FD5F810E0B2
:1042D00007EACC4747EA0E072F61D5F810C0C3F3B1
:1042E000120747EA0C07012E2F61C3D12F6927F06F
:1042F000C0472F612F6947F00057BAE7D4F800593B
:10430000012E45F00445C4F800590CD0002BCBD049
:104310000B78D0F8344803F00F0201239340234375
:10432000C0F83438C0E7D0F8085815F4807FD4F8C6
:1043300000590CBF45F0005545F08055C4F80059B0
:104340000C7800929BB22246C968FFF763FFABE787
:1043500004F530673D6905EA0E053D613D6905EAF2
:104360000C053D618D681BBB3B69C5F312051D4300
:104370003D613B6943F40023012A3B6102D1CB68D4
:1043800003B17B61012E0CD1D0F8083813F4807F83
:10439000D4F8003B0CBF43F0005343F08053C4F803
:1043A000003BD4F8003B43F00443C4F8003B7BE7F8
:1043B000DFF82CC0D7F810E02B44013BB3FBF5F33A
:1043C0000CEAC34C4CEA0E0CC7F810C09BB2D7F8ED
:1043D00010C06B43C3F3120343EA0C03CCE700BFE6
:1043E0000000F81FFFFF07E00000F8FF70B5002392
:1043F000940800F5805502F00302A34216D301EBA6
:1044000084018AB100F580500C4605680023D8006D
:1044100025FA00F0013304F8010B98B28242F6D17C
:10442000013A92B201321144084670BD2E6841F83B
:1044300023600133E1E74A780B78012A00EB43104F
:1044400012D1D0F80029002A06DB2BB1D0F80039B0
:1044500023F08043C0F80039D0F8003943F400134A
:10446000C0F8003900207047D0F8002B002A06DB86
:104470002BB1D0F8003B23F08043C0F8003BD0F8CC
:10448000003B43F40013C0F8003BEBE70B784A789D
:1044900000EB4310CB78012AA3F10203DBB20FD16A
:1044A000D0F80029012B22F40012C0F8002905D809
:1044B000D0F8003943F08053C0F80039002070472D
:1044C000D0F8002B22F40012012BC0F8002B9EBF65
:1044D000D0F8003B43F08053C0F8003BEEE7D0F843
:1044E000003823F4FE63C0F80038D0F80038090122
:1044F00001F4FE611943C0F8001800207047D0F89D
:10450000003E23F00303C0F8003ED0F8043823F047
:104510000203C0F8043800207047D0F8003E23F0B2
:104520000303C0F8003ED0F8043843F00203C0F89B
:104530000438002070474269806910407047D0F805
:10454000183800F50060C0691840000C7047D0F8BA
:10455000183800F50060C069184080B2704700EB61
:10456000411100F50060D1F8082B406910407047F8
:1045700010B5D0F81048D0F8343800EB411001F0F5
:104580000F01CB4000F51060DB018068DBB22343F4
:10459000184010BD406900F001007047D0F80039A4
:1045A00023F4FF6323F00703C0F80039D0F8043880
:1045B00043F48073C0F804380020704730B5056CB0
:1045C000104CA54200F5306303D9D0F8004B002C05
:1045D00016DB00241C611C6944F400241C611C6966
:1045E00044F018041C611C69012944F0C0441C619A
:1045F00001BF5A61D0F8003B43F08023C0F8003B74
:10460000002030BD0A30544F004870470800002099
:1046100008B5074B1A784AB95B783BB9054B1B6F55
:1046200098472020BDE8084010F03EBB08BD00BF01
:10463000880F0020B062002038B505460DF0A0FEBE
:10464000022808D008F044FA044610B12846FFF7C3
:10465000DFFF204638BD0124FBE70346172B4FF050
:10466000000012D8012202FA03F313F4700F0AD1EA
:1046700013F4702F04D113F4704F06D01046704716
:104680004FF0020070474FF0040070470F4890F859
:10469000AE3110B5CBB90E4B90F8AB2193F8103179
:1046A0000C49DB43DBB21A4002F00704D24302F0AC
:1046B00007020A7090F8AD214C70134003F0070216
:1046C000DB4303F00703CA708B7010BDB06200209B
:1046D00050650020840E0020094B18680023C2B2E8
:1046E00062F30703C0F3072262F30F23C0F307420C
:1046F00062F3174382B063F3170002B0704700BF44
:10470000840E002037B50D4D0D4995F8AE510A784D
:104710004B788C78C978C0B22DB922430B43024044
:10472000034001400440002062F3070063F30F20C0
:1047300064F3174061F31F6003B030BDB062002026
:10474000840E0020024B1A6818609060704700BF0A
:10475000200000200048704714000020037D6FF304
:10476000451310B503751F4BD9650023C3601E4B5D
:10477000016093F8292042F08002027693F8292004
:1047800042F0040283F82920027E42F004020276FD
:1047900093F8292042F0010283F82920037E43F098
:1047A0000103037603695A685B6B0C466421D16090
:1047B0000120984701682046FCF7A4FB002104462D
:1047C000FCF734FD60B9094B0949D86DFCF79AFB39
:1047D0002146FCF735FD002814BF2B20002010BD1A
:1047E0002920FCE704620020880F0020506500208B
:1047F0006666663F084BD3F8943010B5044603B1A3
:10480000984723781BB10021204609F05BFB204626
:10481000BDE8104029F090B96064002008B50C2074
:1048200029F082F9034638B1084A07CA83E807002D
:1048300007490A682AB90B60181C18BF012008BD77
:104840000A4691680029FBD19360F5E7200F00200C
:10485000340F00200048704730000020F8B50025D4
:10486000094E2C464FF07E5773196400394658693B
:10487000E4B2FCF7DBFC08B944F00104043D15F197
:104880000C0FF1D12046F8BD2400002010B5FFF731
:10489000E5FF0C4B4FF07E5100229A605A601A607F
:1048A00059611961D960084B0022C4B29A77FFF7A9
:1048B000D5FFC0B2A04204D00220BDE8104010F0E5
:1048C000F3B910BD240000200462002038B5084D63
:1048D000831C05EB800204462234D16F55F8230077
:1048E000FCF708FA55F82410FCF704FA38BD00BFAD
:1048F000046200202DE9F74F0F4606462A4D28B1E5
:10490000022831D0E87103B0BDE8F08F2F4604468D
:1049100057F8943F4FF0000B03F1080AA3F1040885
:1049200002464FF00103594657F8040D019299468B
:104930000093FCF77BFCDDE9003200B19146C7F83B
:1049400000B04AF804B944EA0904C245E4B2EAD125
:10495000EE71002CD7D04FF4806010F0A5F903B0B1
:10496000BDE8F04F10F0F2B91046FCF777FA0F4AA5
:10497000142303FB072307F12209196BFCF776FBCD
:104980008046014655F829004FF00104FCF74EFC23
:1049900008B14FF00004D5F8943045F82980E4B20E
:1049A00043F82780D4E700BF046200205065002050
:1049B000022331B1012909D0012243700270002382
:1049C00002E001220170427083707047037000237F
:1049D0004370817070470000F0B53B4D3B4C95F83B
:1049E0007D6087B0002E3FD094220021204629F020
:1049F000F0F8374B14220021184629F0EAF8C4F8E1
:104A00009400344E306800283FD195F82930237740
:104A10000DF054F86065FFF739FF207D2E492F4CCB
:104A20000CF022F910B9A3680720984795F87D305B
:104A300063B12B4B93F8FF309B0707D429490B2018
:104A40000CF012F910B9A36807209847E66A1EB166
:104A500095F87D30F3B9B047A369002B31D01B48DE
:104A600007B0BDE8F04018477C223146204629F0C7
:104A7000B0F8D4F89400036923671B4BD3F80431D2
:104A8000002BBED031469847BBE7876829F054F821
:104A90003760B7E700230C2269460F480293CDE93F
:104AA000003329F063F80028D5D10C22CDE90300AA
:104AB00005900DEB02010B4829F058F80028CAD1E7
:104AC000CAE707B0F0BD00BF880F002004620020D5
:104AD0009C620020340F00200C62002060640020E3
:104AE0005065002080620020B062002008B5064BAF
:104AF00000229A6400229A760DF082F91020BDE817
:104B0000084010F0D1B800BF0462002008B5054B82
:104B100000205876044B1B6F98472020BDE80840C2
:104B200010F0C2B804620020B0620020014B586D42
:104B3000704700BF046200202DE9F74F0F4603784D
:104B40005A1E1F2A834600F10100F8D93B2B05D0DD
:104B50002F2B0BD1394B9B7DDA0606D500238BF822
:104B60000030584603B0BDE8F08F8346DFF8D480AC
:104B7000DFF8D490DFF8D4A05E465D4600242B78A1
:104B80000BB93370EDE7202B49D9292B09D03B2BEA
:104B900003D0282B38D12C4643E0002C41D12C7077
:104BA000EDE7002C39D098F878304BBB2B7099F892
:104BB000A6319B071AD4CFB13B68BBB90522204967
:104BC00020462AF0C6FB88B92A1B043A10460192F7
:104BD00028F0AAFF386048B1019A631D1C460133D2
:104BE000217820290ED0214628F0CFFF23781BB34F
:104BF0003A682AB9DAF898300192EBB12046984722
:104C000000240AE0013AE9E75CB9A3F16102192A3C
:104C100098BF03F05F03337001360135AFE7002C16
:104C2000FBD02A1B042AF8DCA3F16102192A98BFE1
:104C300003F05F032B70F0E71C46EEE7880F0020BF
:104C40006C51030804620020B06200206064002000
:104C50002DE9F04FA7B026A9002341F8503DFFF7FA
:104C60006BFF0478064634B9129880B900242046B8
:104C700027B0BDE8F08F252C754A0BD144784CB98C
:104C800092F8743083F0010382F87430ECE7FFF798
:104C9000B1FDECE76F4F6E4DAC220021384628F095
:104CA00098FF0FCD07F108040FC40FCD0FC495E88E
:104CB000030084E80300337800240794242B8DF844
:104CC0001040BDF81CB007D101239B463B819DF8E5
:104CD0001C30BB7287F823301BF0010F0CBF002380
:104CE00003231393002306931D461C460893059344
:104CF00009934FF0000A139B5A1C1392F75C002F84
:104D000033D19DF8103013F0FF0F04D0059B002B1A
:104D100008BF022305934E4D95F8773033B1059BBC
:104D2000022B03D11BF0010F02F03686494A92F89C
:104D3000953013F0400F144605D0D2F88010464A43
:104D4000914202F32C861BF0010200F0DF849807E9
:104D500040F13385E37A002B00F0E184A06B3F49FA
:104D6000FCF7D0F8A06300F0DABC402F03D8242F62
:104D700003D001247BE75A2FFBD814AA13A930468D
:104D800005F0DCFF20B9002D02F0FD85344B1493B3
:104D9000DDF8508041464046FCF77AFA002854D1AD
:104DA0004046FCF7B1FA0446FCF754F80146404689
:104DB000FBF79EFF2B49FCF7A5F82DF0D9FBFCF77C
:104DC000A3FA472F50D04D2F00F036820023243F06
:104DD0001593362F00F2B680DFE817F08304B40095
:104DE000B400B400B400B400B400B400B400B40023
:104DF000B400B400B400B400B400B400B400B40013
:104E0000B400B400B400B400B400B400B400B40002
:104E1000B400B400B400B400B400B40057037A0383
:104E20008403B4008E03A403BE03CC03DA03B400EE
:104E3000EF03FC0312041C04260430043A04B400FB
:104E4000B400B4005304630473040020B9E700BF46
:104E500004620020880E0020809698003333CB41F6
:104E60000000C07F0000C84200231693632C69D85D
:104E7000DFE814F0CD00CD00CD00CD007F00CD00E7
:104E800068006400640068007800680068006800DA
:104E90006800680068000201020102013E013E0153
:104EA00068006800680068006800680078006800B2
:104EB000780068006800A400680068006800680066
:104EC000B80068004B016800680052016800680083
:104ED0006800680068005201C501C50168007F00D4
:104EE0006A016A016A016A016A016A01680089014E
:104EF0006800680068009301680068006800680046
:104F0000680068006800E90068006800A4006800A4
:104F100068006800D200E900E900E9006800E900E3
:104F2000E90068006800E9000D010D017800290121
:104F300029013401A601A601B901B901B74B1B7EB5
:104F4000022B01D0142492E69DF85930E11F43F062
:104F500040038DF859304A42B14B4A415A73D0B19F
:104F6000172484E628B9059B0BB118247FE601239A
:104F700005939DF85830AA4A43F0010324F002013A
:104F80008DF858301C29E3B213700DD108B10A28EE
:104F9000D8D118441070169B069A13EA020542F005
:104FA000F5841A430692A6E65C2CD8D11E28C9D8EF
:104FB0009C4BC340DB07C5D55C30EBE70028C1D173
:104FC000059B002BD1D19DF858309DF8142043F05B
:104FD00002038DF85830924B1C8183F8272002235E
:104FE0000593D8E7904BD3F8FC30002BAAD0A0F162
:104FF00014021E2AA6D88B4BD340DB4313F00103C7
:10500000A0D10A24B0FBF4F000F18A041846059BF5
:10501000002BAAD1022305939DF85830052C43F0AC
:1050200002038DF858300BD150B10A288AD17C4B3D
:1050300033221A8100207A4B002283F827208EE742
:10504000774B1C81F7E7059B002B8ED19DF85830DC
:1050500043F002038DF85830714B012283F827206A
:10506000A2B21A81714B1B889B1A18BF012363F3EC
:10507000410B0223059372E79DF85830684A43F0CC
:1050800004038DF85830A4F11103937367E79DF87A
:10509000583060B943F00803A4F15B0C8DF8583028
:1050A000DCF100025E4B42EB0C021A7373E743F033
:1050B00010030A288DF858307FF444AF5A2C3FF47F
:1050C00041AF5B2467E79DF85830554A43F0200311
:1050D0008DF85830C4F15E03937240E79DF8583064
:1050E00043F020038DF858304D4B02229A7236E778
:1050F0009DF85830A4F1140743F040038DF8583060
:105100007A42474B7A41DA7229E79DF8583043F0EA
:1051100080038DF8583022E79DF85930312C43F048
:1051200001038DF8593003D13D4B0022DA7332E789
:105130000A287FF407AF059B002B7FF416AF384B8E
:105140000222DA7303234BE79DF85930344A43F0C7
:1051500008038DF85930A4F13603DBB23B2C1377EA
:105160007FF4FDAE00283FF416AF1E283FF6EAAEEE
:105170002F49C140CD077FF5E5AE0A21B0FBF1F024
:105180000344137707E79DF8593043F010038DF877
:10519000593000283FF4FFAED4E69DF8583043F074
:1051A00001038DF858301E4B41221A7000287FF4FD
:1051B000C9AE204BD3F8E030002B7FF4ECAEC1E653
:1051C000164B1B7E022B7FF4BDAE9DF85930144A5E
:1051D00043F020038DF85930A4F1600383F00103FC
:1051E00082F82330BBE69DF859300D4A43F00203A4
:1051F0008DF85930A4F1620382F82530AFE69DF8AE
:105200005930A4F1330143F004038DF859304A4278
:10521000034B4A4183F8262004232BE750650020E6
:10522000880E002001041040B062002004620020BB
:105230000004104060640020C14F3B78412B0BD12B
:1052400097F895309A0602F1A48343F02003C7F83B
:105250004C8087F895304EE500287FF481AE332CE2
:1052600016905FD8302C67D2052C1ED8032CC0F0C6
:1052700095809DF85A3043F002038DF85A30621F32
:1052800097F8223018BF0122211F62F300034A421F
:105290004A4162F34103AB4A87F8223092F82C303E
:1052A00043F0040382F82C3087E0092C24D8072C23
:1052B000C0F09A809DF85A30A24A43F004038DF85A
:1052C0005A3092F82C30082C43F0020382F82C302C
:1052D0004BF4807B00F09D80092C00F09F809A4B5E
:1052E00093F8A431DA077FF52DAE97F8213043F01B
:1052F000020387F8213060E01E2C4FD0924BD3F888
:105300008431002B3FF41EAEA0B29847788000286D
:105310003FF418AE9DF85A3043F010038DF85A3020
:1053200001257EE0412C1DD83E2C80F08580382C54
:105330007BD009D8352CE1D19DF85A3043F00803D1
:105340008DF85A307C7038E03C2C27D03D2CD5D1DC
:105350009DF85A3043F001038DF85A30012300259F
:1053600009935EE0442C0AD8432C774B78D3D3F8CA
:105370001C21002A3FF4E6AD93F8173164E0632C5A
:10538000BCD19DF8593043F080038DF859306F4BF4
:1053900087F82040D3F8E4307BB9D3E59DF8593045
:1053A00043F080038DF8593024B1012C07D087F8E1
:1053B000204002E0032387F82030002531E0624BD3
:1053C00093F8A821900608D59B6E984780F020009E
:1053D000C0F340152DB30123EDE75A4B9D7D85F0B9
:1053E0004005C5F38015F5E7594B93F82C30042B95
:1053F000E3D0554BD3F8D42022B9D3F80831002B91
:105400003FF4A0AD9DF85A3043F001038DF85A30B7
:10541000D3E797F8213043F001036AE7002587F8C6
:105420002150169B069A1342B9E5494B93F828314F
:105430005B077FF587AD7FE7434BD3F81821002A40
:105440003FF480AD93F81531002B3FF47BAD9DF810
:105450005A3043F010038DF85A30E3B20893ACE7AA
:10546000D3F82021002A3FF46DADD3F8143113F0A6
:10547000FF1F3FF467AD9DF85A3043F010038DF8DD
:105480005A30422300250893CBE79DF8543043F06F
:1054900080038DF854302A4BC3F83080DFF8A09099
:1054A000DDF85480D9F8947017EA080F42F0718241
:1054B000284B1B6818EA030F00F02281514614980C
:1054C000FBF7BEFE002800F01B810424FFF7CFBBD2
:1054D0009DF8553043F001038DF85530184BC3F853
:1054E0003480DBE79DF8553043F002038DF85530EA
:1054F000134BC3F83880D1E700287FF431AD9DF815
:105500005530414643F0080340468DF85530FBF7CF
:10551000BFFE0B4B00280CBF22464FF0FF32C3F8F2
:105520008820BBE7079B43F0010307939DF85430A5
:1055300043F010038DF85430014BC3F83C80ADE7C5
:10554000880E0020880F0020B062002060640020D8
:10555000506500207C510308079B43F0020307932A
:105560009DF8543043F020038DF85430B84BC3F805
:10557000408093E7079B43F0040307939DF8543062
:1055800043F040038DF85430B14BC3F8448085E7B5
:1055900000287FF4E5AC9DF85530414643F01003F8
:1055A00040468DF85530FBF773FEA94B00280CBF21
:1055B0002246FF2283F8902070E79DF85530404640
:1055C00043F040038DF85530FBF778FEA04BC3F84D
:1055D000800063E700287FF4C3AC9DF85530414656
:1055E00043F0800340468DF85530FBF751FE984B51
:1055F00000280CBF22464FF0FF32C3F884204DE74D
:105600009DF8563043F001038DF85630904BC3F8A7
:10561000508043E79DF8563043F002038DF8563032
:105620008B4BC3F8548039E79DF8563043F00403A0
:105630008DF85630864BC3F858802FE79DF85630CA
:1056400043F008038DF85630814BC3F85C8025E7A2
:1056500000287FF485AC671C02F0A4819DF85630C9
:10566000414643F0100340468DF85630FBF710FEDC
:10567000774B00280CBF22464FF0FF32C3F88C2036
:105680000CE79DF8103043F001038DF810309DF8C1
:10569000573043F001038DF857306D4BC3F86080ED
:1056A000FCE69DF8103043F002038DF810309DF8B1
:1056B000573043F002038DF85730654BC3F86480D0
:1056C000ECE69DF8103043F004038DF810309DF89F
:1056D000573043F004038DF857305D4BC3F86880B2
:1056E000DCE600287FF43CAC9DF85430404643F0A3
:1056F00001038DF85430FBF7E1FD554BD867CDE63B
:1057000047EA0807C9F89470FFF7F5BA21892129FB
:1057100047D194F89430590636D4EB6DA36494F8CD
:105720009430DF0740F18C8094F896301E0703D543
:10573000484B9B7818074FD5069BD90708D5238976
:10574000212B49D040F24B12934245D04C2B43D0F1
:10575000069B9A0440D4C3F3074313F0080304D014
:105760006378A3F133077B427B41069A960301D409
:10577000002B47D0E06F5A1E90422FDA002B7FF4A7
:10578000A4AE2724FFF773BA62F3861384F894302B
:10579000E37A606C1BB13049FBF7B4FB6064A06432
:1057A000BDE7A27A012A0BD1059A022AB7D1502966
:1057B000B5D00029B3D09A07B1D41624FFF757BA51
:1057C00012F0FD0FABD19B073FF5C4AAAB78934213
:1057D000A5D1AB6DA363A2E70123C6E740B20CF0ED
:1057E0005FF90028CDD0E06F002805DB40B20CF057
:1057F00065F9C4F8A800686594F894306FF3000365
:1058000084F89430A37A022B04D16B6D5B6B002B70
:105810003FF498AB069BC3F3072398060A9335D54C
:1058200094F82330012B77D16B6D5A7AD1077FF52D
:1058300089AB94F89620120710D41C24FFF717BAEE
:10584000D4F8A830002BDDD16B6DC4F8A830D9E7AF
:10585000880E00207C0F00203333CB415F685E69E7
:1058600094F99430002B55DAD4F830803146404614
:10587000FBF7E6FC00B1464694F89430FE616FF306
:10588000C71384F8943094F82330EB7694F896603C
:10589000330742F1BC808E4B9B7883F00802C2F341
:1058A000C0021F070D924AD5099B002B57D0B6079F
:1058B000C3D5656D28462CF013FC2946FBF718FA72
:1058C0000021FBF7B3FC00283FF44AAB2846FBF766
:1058D0001BFD451C02F0668094F89630C4F88C00DD
:1058E0006FF3410384F89630069BC3F3074313F02C
:1058F00010060B9368D0089B002B65D03E3B062B0F
:1059000062D8DFE813F03200320032003200F300D8
:1059100055015501FE61B6E7EB7E012BB3D12B6D2E
:105920001BB100232B6507F0D3F86B6D5B681B6818
:10593000AB64A8E7AB6CE36500230D93B4E7EB7EA3
:10594000012BB1D1E37AE06D3BB16249FBF7DAFAA2
:105950006B6DE0655B681861A6E75F49F6E7F006E6
:105960005CBF2B6FC4F88C30BEE794F89630D90733
:105970007FF563AF256D00212846FBF761FC002809
:105980007FF4A3AD2846FBF7BFFC544B93F81531C9
:10599000013098423FF6F5AE012784F8987028460A
:1059A000FBF7B2FC089B84F89A003E2B03D0A3F1CE
:1059B0004002574257414A4B93F89620C3F89C70D7
:1059C0006FF3000283F896200B9B454D13F0020FF6
:1059D00040F017810B9B180700F13681D6B1404E7D
:1059E0007388BBB131463A4F51F8943F3B603B4B13
:1059F0003046D3F888319847044600287FF437A909
:105A00003B68D6F89420079053403B609DF81C30CB
:105A10008DF81030324E3378042B0FD196F8964023
:105A2000E7077FF50AAF0021306DFBF709FC00287E
:105A30007FF44BAD60F3000486F89640A97B11A873
:105A4000FEF7B6FFEB7AA3B19DF81070DFF89080F7
:105A5000DFF894900324013C27FA04F3D80706D515
:105A600008EB84064946306EFBF74CFA3066002C92
:105A7000F1D10A9B1B4C13F0400F07D06B7B62796E
:105A80009A4203D0082063710FF00EF963794BB18D
:105A90009DF81030D90705D5286E4FF07C51FBF7E3
:105AA00031FA2866059B042B40F09B810C4C94F83E
:105AB0002630002B00F0F2819DF81030002613F004
:105AC000FF0F84F8266040F041811A24FFF7CFB819
:105AD0007C0F00206666984300007A44B062002084
