:020000040800F2
:10000000000004207D850308E1180308E3180308B5
:10001000E5180308E7180308E918030800000000C2
:10002000000000000000000000000000EB180308C2
:10003000ED18030800000000EF180308F11803088A
:10004000CD850308CD850308CD850308CD8503083C
:10005000CD850308CD850308610103087D010308F0
:10006000CD850308CD850308CD850308CD8503081C
:10007000CD850308CD850308CD850308CD8503080C
:10008000CD850308CD850308CD850308CD850308FC
:10009000CD850308CD850308CD85030899010308A4
:1000A00071000308CD850308CD850308CD850308BD
:1000B000CD850308CD850308C1FF0208CD8503085F
:1000C000CD850308CD850308CD850308CD850308BC
:1000D000CD85030815160308CD850308CD850308D3
:1000E000B9020308CD850308CD850308CD85030833
:1000F000CD850308CD850308CD850308CD8503088C
:1001000000000000CD85030899FF0208CD85030893
:100110000000000000000000CD850308CD85030825
:10012000CD850308CD8503088118030891180308BD
:10013000CD850308CD850308CD850308CD8503084B
:10014000CD850308CD850308CD850308FD18030878
:10015000CD850308CD850308CD850308CD8503082B
:10016000CD850308CD8503080000000000000000D5
:10017000000000000000000000000000000000007F
:10018000CD850308CD8503080000000000000000B5
:10019000CD850308CD8503080000000000000000A5
:1001A000000000000000000000000000000000004F
:1001B000CD8503080000000000000000CD85030885
:0401C000CD850308DE
:1001D00010B5054C237833B9044B13B10448AFF381
:1001E00000800123237010BD480E00200000000095
:1001F000D085030808B5034B1BB103490348AFF38F
:10020000008008BD000000004C0E0020D0850308CF
:1002100010F8012B11F8013B012A28BF9A42F7D0B0
:10022000D01A7047034613F8012B002AFBD1181A85
:1002300001387047000000000000000000000000CE
:1002400001F0FF01102A2BDB10F0070F08D010F887
:10025000013B013A8B422DD010F0070F42B3F6D18B
:10026000F0B441EA012141EA014122F007047FF0A4
:1002700000070023F0E80256083C85EA010586EAFB
:10028000010685FA47F5A3FA87F586FA47F6A5FA37
:1002900087F68EB9EED1F0BC01F0FF0102F0070243
:1002A00032B110F8013B013A83EA010313B1F8D1EE
:1002B0000020704701387047002D06BF35460338CF
:1002C000073815F0010F07D1013015F4807F02BF08
:1002D000013015F4C03F0130F0BC0138704700BF59
:1002E00081F0004102E000BF83F0004330B54FEAE7
:1002F00041044FEA430594EA050F08BF90EA020F54
:100300001FBF54EA000C55EA020C7FEA645C7FEAE6
:10031000655C00F0E2804FEA5454D4EB5555B8BF09
:100320006D420CDD2C4480EA020281EA030382EA7A
:10033000000083EA010180EA020281EA0303362D0C
:1003400088BF30BD11F0004F4FEA01314FF4801CDF
:100350004CEA113102D0404261EB410113F0004FF1
:100360004FEA03334CEA133302D0524263EB4303A8
:1003700094EA050F00F0A780A4F10104D5F1200E46
:100380000DDB02FA0EFC22FA05F2801841F10001A1
:1003900003FA0EF2801843FA05F359410EE0A5F175
:1003A00020050EF1200E012A03FA0EFC28BF4CF0A6
:1003B000020C43FA05F3C01851EBE37101F000455C
:1003C00007D54FF0000EDCF1000C7EEB00006EEB69
:1003D0000101B1F5801F1BD3B1F5001F0CD34908F3
:1003E0005FEA30004FEA3C0C04F101044FEA44524A
:1003F00012F5800F80F09A80BCF1004F08BF5FEAD1
:10040000500C50F1000041EB045141EA050130BDB0
:100410005FEA4C0C404141EB010111F4801FA4F153
:100420000104E9D191F0000F04BF01460020B1FAA8
:1004300081F308BF2033A3F10B03B3F120020CDAE0
:100440000C3208DD02F1140CC2F10C0201FA0CF0BE
:1004500021FA02F10CE002F11402D8BFC2F1200C23
:1004600001FA02F120FA0CFCDCBF41EA0C019040D9
:10047000E41AA2BF01EB0451294330BD6FEA040422
:100480001F3C1CDA0C340EDC04F11404C4F120020D
:1004900020FA04F001FA02F340EA030021FA04F31F
:1004A00045EA030130BDC4F10C04C4F1200220FA76
:1004B00002F001FA04F340EA0300294630BD21FAB4
:1004C00004F0294630BD94F0000F83F4801306BF7A
:1004D00081F480110134013D4EE77FEA645C18BF6E
:1004E0007FEA655C29D094EA050F08BF90EA020F05
:1004F00005D054EA000C04BF1946104630BD91EAFD
:10050000030F1EBF0021002030BD5FEA545C05D1FF
:100510004000494128BF41F0004130BD14F580043E
:100520003CBF01F5801130BD01F0004545F0FE41B2
:1005300041F470014FF0000030BD7FEA645C1ABFE7
:10054000194610467FEA655C1CBF0B46024650EA1E
:10055000013406BF52EA033591EA030F41F400214A
:1005600030BD00BF90F0000F04BF0021704730B5D0
:100570004FF4806404F132044FF000054FF00001A5
:1005800050E700BF90F0000F04BF0021704730B566
:100590004FF4806404F1320410F0004548BF40423B
:1005A0004FF000013EE700BF42004FEAE2014FEA90
:1005B00031014FEA02701FBF12F07F4393F07F4F6B
:1005C00081F06051704732F07F4208BF704793F06E
:1005D0007F4F04BF41F40021704730B54FF4607481
:1005E00001F0004521F000411CE700BF50EA010284
:1005F00008BF704730B54FF000050AE050EA01022D
:1006000008BF704730B511F0004502D5404261EB9C
:1006100041014FF4806404F132045FEA915C3FF4DD
:10062000D8AE4FF003025FEADC0C18BF03325FEA7A
:10063000DC0C18BF033202EBDC02C2F1200300FA2B
:1006400003FC20FA02F001FA03FE40EA0E0021FA50
:1006500002F11444BDE600BF70B54FF0FF0C4CF43E
:10066000E06C1CEA11541DBF1CEA135594EA0C0FF0
:1006700095EA0C0F00F0DEF82C4481EA030621EA2B
:100680004C5123EA4C5350EA013518BF52EA033566
:1006900041F4801143F4801338D0A0FB02CE4FF018
:1006A0000005E1FB02E506F00042E0FB03E54FF048
:1006B0000006E1FB03569CF0000F18BF4EF0010E40
:1006C000A4F1FF04B6F5007F64F5407404D25FEA3C
:1006D0004E0E6D4146EB060642EAC62141EA5551EF
:1006E0004FEAC52040EA5E504FEACE2EB4F1FD0C31
:1006F00088BFBCF5E06F1ED8BEF1004F08BF5FEAAF
:10070000500E50F1000041EB045170BD06F0004660
:1007100046EA010140EA020081EA0301B4EB5C040D
:10072000C2BFD4EB0C0541EA045170BD41F4801105
:100730004FF0000E013C00F3AB8014F1360FDEBF2A
:10074000002001F0004170BDC4F10004203C35DA06
:100750000C341BDC04F11404C4F1200500FA05F389
:1007600020FA04F001FA05F240EA020001F000422A
:1007700021F0004110EBD37021FA04F642EB0601A0
:100780005EEA430E08BF20EAD37070BDC4F10C04CA
:10079000C4F1200500FA04F320FA05F001FA04F28E
:1007A00040EA020001F0004110EBD37041F100017A
:1007B0005EEA430E08BF20EAD37070BDC4F1200585
:1007C00000FA05F24EEA020E20FA04F301FA05F2ED
:1007D00043EA020321FA04F001F0004121FA04F295
:1007E00020EA020000EBD3705EEA430E08BF20EA65
:1007F000D37070BD94F0000F0FD101F0004640009F
:1008000041EB010111F4801F08BF013CF7D041EA20
:10081000060195F0000F18BF704703F00046520024
:1008200043EB030313F4801F08BF013DF7D043EAF5
:100830000603704794EA0C0F0CEA135518BF95EAAB
:100840000C0F0CD050EA410618BF52EA4306D1D132
:1008500081EA030101F000414FF0000070BD50EA51
:10086000410606BF1046194652EA430619D094EADB
:100870000C0F02D150EA013613D195EA0C0F05D1C5
:1008800052EA03361CBF104619460AD181EA030119
:1008900001F0004141F0FE4141F470014FF00000D1
:1008A00070BD41F0FE4141F4780170BD70B54FF06C
:1008B000FF0C4CF4E06C1CEA11541DBF1CEA1355EC
:1008C00094EA0C0F95EA0C0F00F0A7F8A4EB0504CE
:1008D00081EA030E52EA03354FEA013100F08880C5
:1008E0004FEA03334FF0805545EA131343EA12638E
:1008F0004FEA022245EA111545EA10654FEA002643
:100900000EF000419D4208BF964244F1FD0404F5FB
:10091000407402D25B084FEA3202B61A65EB030557
:100920005B084FEA32024FF480104FF4002CB6EB14
:10093000020E75EB030E22BFB61A754640EA0C0094
:100940005B084FEA3202B6EB020E75EB030E22BFD4
:10095000B61A754640EA5C005B084FEA3202B6EB15
:10096000020E75EB030E22BFB61A754640EA9C00D4
:100970005B084FEA3202B6EB020E75EB030E22BFA4
:10098000B61A754640EADC0055EA060E18D04FEA62
:10099000051545EA16754FEA06164FEAC30343EA02
:1009A00052734FEAC2025FEA1C1CC0D111F4801FCF
:1009B0000BD141EA00014FF000004FF0004CB6E7C8
:1009C00011F4801F04BF01430020B4F1FD0C88BF67
:1009D000BCF5E06F3FF6AFAEB5EB030C04BFB6EB72
:1009E000020C5FEA500C50F1000041EB045170BD65
:1009F0000EF0004E4EEA113114EB5C04C2BFD4EB92
:100A00000C0541EA045170BD41F480114FF0000E15
:100A1000013C90E645EA060E8DE60CEA135594EA91
:100A20000C0F08BF95EA0C0F3FF43BAF94EA0C0F94
:100A30000AD150EA01347FF434AF95EA0C0F7FF409
:100A400025AF104619462CE795EA0C0F06D152EA5D
:100A500003353FF4FDAE1046194622E750EA410641
:100A600018BF52EA43067FF4C5AE50EA41047FF452
:100A70000DAF52EA43057FF4EBAE12E74FF0FF3CB7
:100A800006E000BF4FF0010C02E000BF4FF0010C88
:100A90004DF804CD4FEA410C7FEA6C5C4FEA430C01
:100AA00018BF7FEA6C5C1BD001B050EA410C0CBF50
:100AB00052EA430C91EA030F02BF90EA020F0020B2
:100AC000704710F1000F91EA030F58BF994208BF19
:100AD00090422CBFD8176FEAE37040F001007047D6
:100AE0004FEA410C7FEA6C5C02D150EA013C07D12D
:100AF0004FEA430C7FEA6C5CD6D152EA033CD3D078
:100B00005DF8040B704700BF8446104662468C4671
:100B10001946634600E000BF01B5FFF7B7FF0028A4
:100B200048BF10F1000F01BD4DF808EDFFF7F4FFCD
:100B30000CBF012000205DF808FB00BF4DF808ED58
:100B4000FFF7EAFF34BF012000205DF808FB00BF7B
:100B50004DF808EDFFF7E0FF94BF012000205DF89D
:100B600008FB00BF4DF808EDFFF7CEFF94BF012052
:100B700000205DF808FB00BF4DF808EDFFF7C4FF4B
:100B800034BF012000205DF808FB00BF4FEA410C94
:100B90007FEA6C5C02D150EA013C0AD14FEA430C77
:100BA0007FEA6C5C02D152EA033C02D14FF00000B4
:100BB00070474FF0010070474FEA410212F50012F2
:100BC00015D211D56FF47873B3EB625212D94FEA94
:100BD000C12343F0004343EA505311F0004F23FA7E
:100BE00002F018BF404270474FF00000704750EAD3
:100BF000013005D111F0004008BF6FF00040704790
:100C00004FF00000704700BF4A0011D212F50012E9
:100C100011D20DD56FF47873B3EB62520ED44FEA54
:100C2000C12343F0004343EA505323FA02F07047D4
:100C30004FF00000704750EA013002D14FF0FF3012
:100C400070474FF0000070474FEA4102B2F1E043B5
:100C500024BFB3F5001CDCF1FE5C0DD901F0004CA3
:100C60004FEAC0024CEA5070B2F1004F40EB8300F3
:100C700008BF20F00100704711F0804F21D113F11F
:100C80003872BCBF01F00040704741F480114FEA58
:100C90005252C2F11802C2F1200C10FA0CF320FAE1
:100CA00002F018BF40F001004FEAC1234FEAD323FE
:100CB00003FA0CFC40EA0C0023FA02F34FEA430368
:100CC000CCE77FEA625307D150EA01331EBF4FF0F1
:100CD000FE4040F44000704701F0004040F0FE400C
:100CE00040F40000704700BF80F0004002E000BF09
:100CF00081F0004142001FBF5FEA410392EA030F07
:100D00007FEA226C7FEA236C6AD04FEA1262D2EB50
:100D10001363C1BFD218414048404140B8BF5B4255
:100D2000192B88BF704710F0004F40F4000020F0EE
:100D30007F4018BF404211F0004F41F4000121F004
:100D40007F4118BF494292EA030F3FD0A2F101024E
:100D500041FA03FC10EB0C00C3F1200301FA03F18C
:100D600000F0004302D5494260EB4000B0F5000FAF
:100D700013D3B0F1807F06D340084FEA310102F16E
:100D80000102FE2A51D2B1F1004F40EBC25008BF20
:100D900020F0010040EA03007047490040EB0000EA
:100DA00010F4000FA2F10102EDD1B0FA80FCACF119
:100DB000080CB2EB0C0200FA0CF0AABF00EBC25018
:100DC00052421843BCBFD0401843704792F0000F06
:100DD00081F4000106BF80F400000132013BB5E759
:100DE0004FEA41037FEA226C18BF7FEA236C21D0CF
:100DF00092EA030F04D092F0000F08BF0846704734
:100E000090EA010F1CBF0020704712F07F4F04D101
:100E1000400028BF40F00040704712F100723CBF14
:100E200000F50000704700F0004343F0FE4040F43E
:100E3000000070477FEA226216BF08467FEA2363FC
:100E40000146420206BF5FEA412390EA010F40F4E7
:100E5000800070474FF0000304E000BF10F0004333
:100E600048BF40425FEA000C08BF704743F096431A
:100E700001464FF000001CE050EA010208BF704735
:100E80004FF000030AE000BF50EA010208BF7047BC
:100E900011F0004302D5404261EB41015FEA010CD1
:100EA00002BF84460146002043F0B64308BFA3F1C9
:100EB0008053A3F50003BCFA8CF2083AA3EBC253AB
:100EC00010DB01FA02FC634400FA02FCC2F12002CA
:100ED000BCF1004F20FA02F243EB020008BF20F001
:100EE0000100704702F1200201FA02FCC2F1200267
:100EF00050EA4C0021FA02F243EB020008BF20EA5C
:100F0000DC7070474FF0FF0C1CEAD0521EBF1CEA89
:100F1000D15392EA0C0F93EA0C0F6FD01A4480EA77
:100F2000010C400218BF5FEA41211ED04FF0006360
:100F300043EA501043EA5111A0FB01310CF000408C
:100F4000B1F5000F3EBF490041EAD3715B0040EAB2
:100F5000010062F17F02FD2A1DD8B3F1004F40EB82
:100F6000C25008BF20F00100704790F0000F0CF055
:100F7000004C08BF49024CEA502040EA51207F3A19
:100F8000C2BFD2F1FF0340EAC250704740F40000F4
:100F90004FF00003013A5DDC12F1190FDCBF00F0E5
:100FA00000407047C2F10002410021FA02F1C2F193
:100FB000200200FA02FC5FEA310040F1000053EA2F
:100FC0004C0308BF20EADC70704792F0000F00F07D
:100FD000004C02BF400010F4000F013AF9D040EA83
:100FE0000C0093F0000F01F0004C02BF490011F417
:100FF000000F013BF9D041EA0C018FE70CEAD15315
:1010000092EA0C0F18BF93EA0C0F0AD030F0004C94
:1010100018BF31F0004CD8D180EA010000F0004048
:10102000704790F0000F17BF90F0004F084691F006
:10103000000F91F0004F14D092EA0C0F01D1420240
:101040000FD193EA0C0F03D14B0218BF084608D109
:1010500080EA010000F0004040F0FE4040F4000053
:10106000704740F0FE4040F4400070474FF0FF0CE6
:101070001CEAD0521EBF1CEAD15392EA0C0F93EA2D
:101080000C0F69D0A2EB030280EA010C49024FEA7F
:10109000402037D04FF0805343EA111143EA101338
:1010A0000CF000408B4238BF5B0042F17D024FF4F0
:1010B000000C8B4224BF5B1A40EA0C00B3EB510FCB
:1010C00024BFA3EB510340EA5C00B3EB910F24BFB4
:1010D000A3EB910340EA9C00B3EBD10F24BFA3EB39
:1010E000D10340EADC001B0118BF5FEA1C1CE0D101
:1010F000FD2A3FF650AF8B4240EBC25008BF20F0B4
:10110000010070470CF0004C4CEA50207F32C2BF07
:10111000D2F1FF0340EAC250704740F400004FF0A4
:101120000003013A37E792F0000F00F0004C02BFD5
:10113000400010F4000F013AF9D040EA0C0093F09F
:10114000000F01F0004C02BF490011F4000F013BF9
:10115000F9D041EA0C0195E70CEAD15392EA0C0F61
:1011600008D142027FF47DAF93EA0C0F7FF470AF99
:10117000084676E793EA0C0F04D14B023FF44CAFDC
:1011800008466EE730F0004C18BF31F0004CCAD171
:1011900030F000427FF45CAF31F000437FF43CAFAD
:1011A0005FE700BF4FF0FF3C06E000BF4FF0010CCF
:1011B00002E000BF4FF0010C4DF804CD4FEA4002B1
:1011C0004FEA41037FEA226C18BF7FEA236C11D0FB
:1011D00001B052EA530C18BF90EA010F58BFB2EBAE
:1011E000030088BFC81738BF6FEAE17018BF40F02E
:1011F000010070477FEA226C02D15FEA402C05D1E2
:101200007FEA236CE4D15FEA412CE1D05DF8040B66
:10121000704700BF844608466146FFE70FB5FFF7F9
:10122000C9FF002848BF10F1000F0FBD4DF808EDB1
:10123000FFF7F4FF0CBF012000205DF808FB00BFA2
:101240004DF808EDFFF7EAFF34BF012000205DF8FC
:1012500008FB00BF4DF808EDFFF7E0FF94BF012049
:1012600000205DF808FB00BF4DF808EDFFF7D2FF46
:1012700094BF012000205DF808FB00BF4DF808ED89
:10128000FFF7C8FF34BF012000205DF808FB00BF56
:101290004FEA40024FEA41037FEA226C02D15FEA43
:1012A000402C08D17FEA236C02D15FEA412C02D1A5
:1012B0004FF0000070474FF0010070474FEA4002C6
:1012C000B2F1FE4F0FD34FF09E03B3EB12620DD974
:1012D0004FEA002343F0004310F0004F23FA02F0DE
:1012E00018BF404270474FF00000704712F1610F85
:1012F00001D1420205D110F0004008BF6FF000405C
:1013000070474FF00000704742000ED2B2F1FE4F1E
:101310000BD34FF09E03B3EB126209D44FEA0023C4
:1013200043F0004323FA02F070474FF0000070478B
:1013300012F1610F01D1420202D14FF0FF3070472C
:101340004FF00000704700BF7BB972B90029BEBFE3
:1013500000204FF0004106E008BF00281CBF6FF0DE
:1013600000414FF0FF3000F0BDB9ADF1080C6DE960
:1013700004CE002909DB002B1ADB00F04DF8DDF864
:1013800004E0DDE9022304B07047404261EB410113
:10139000002B1BDB00F040F8DDF804E0DDE9022360
:1013A00004B0404261EB4101524263EB430370479A
:1013B000524263EB430300F02FF8DDF804E0DDE96F
:1013C000022304B0404261EB41017047524263EB9B
:1013D000430300F021F8DDF804E0DDE9022304B066
:1013E000524263EB4303704753B94AB9002908BF1F
:1013F00000281CBF4FF0FF314FF0FF3000F072B9F2
:10140000ADF1080C6DE904CE00F006F8DDF804E05B
:10141000DDE9022304B070472DE9F047089E044639
:101420008846002B4BD18A42154667D9B2FA82F220
:101430004AB1C2F1200701FA02F320FA07F79540FA
:1014400047EA030894404FEA154E230CB8FBFEF719
:101450001FFA85FC0EFB178843EA084307FB0CF1D3
:10146000994209D9EB1807F1FF3080F01B819942AE
:1014700040F21881023F2B445B1AA4B2B3FBFEF08A
:101480000EFB103344EA034400FB0CFCA44509D9CD
:101490002C1900F1FF3380F00781A44540F204814C
:1014A00002382C4440EA0740A4EB0C0400271EB18C
:1014B000D4400023C6E900433946BDE8F0878B429B
:1014C00009D9002E00F0EB800027C6E9000138465C
:1014D0003946BDE8F087B3FA83F7002F47D18B4236
:1014E00002D3824200F2FA80841A61EB03030120E6
:1014F0009846002EE0D0C6E90048DDE702B9FFDEDD
:10150000B2FA82F2002A40F08F80491B4FEA154E52
:101510001FFA85F80127B1FBFEFC230C0EFB1C1102
:1015200043EA014308FB0CF1994207D9EB180CF18F
:10153000FF3002D2994200F2CD808446591AA3B2FC
:10154000B1FBFEF00EFB101443EA044408FB00F864
:10155000A04507D92C1900F1FF3302D2A04500F2B3
:10156000B6801846A4EB080440EA0C409FE7C7F198
:10157000200CBB4022FA0CFE4EEA030E01FA07F4DF
:1015800020FA0CF521FA0CF34FEA1E482543B3FB71
:10159000F8F92C0C08FB19331FFA8EFA44EA0343BE
:1015A00009FB0AF49C4202FA07F200FA07F10BD990
:1015B0001EEB030309F1FF3080F087809C4240F26C
:1015C0008480A9F1020973441B1BADB2B3FBF8F090
:1015D00008FB103345EA034400FB0AFAA24508D988
:1015E0001EEB040400F1FF336BD2A24569D9023827
:1015F000744440EA0940A0FB0289A4EB0A044C456C
:10160000C2464B4654D351D0002E69D0B1EB0A05E7
:1016100064EB030404FA0CFCFD40FC404CEA0505B5
:10162000C6E90054002747E7C2F1200320FA03F778
:10163000954001FA02F021FA03F34FEA154E3843C0
:10164000010CB3FBFEF71FFA85F80EFB173341EAD6
:10165000034107FB08F38B4204FA02F407D9691827
:1016600007F1FF3C2FD28B422DD9023F2944CB1AE0
:1016700081B2B3FBFEF00EFB103341EA034100FBE5
:1016800008F38B4207D9691800F1FF3C17D28B424F
:1016900015D902382944C91A40EA07473BE73746BB
:1016A000304609E70746E7E61846FBE64145ABD278
:1016B000B8EB020A69EB0E0201381346A4E7604654
:1016C000E9E7184695E76746D1E781467CE70238A7
:1016D0002C4447E7ACF1020C2B442FE7384608E7CF
:1016E0003746E9E6704700BF7047000010B5094B68
:1016F0004FF0FF321A6200241C625A625C621A6167
:101700001C615A615C619A619C61FFF7EDFF2046A4
:1017100010BD00BF0038024010B504460E4B1878CB
:101720004FF47A73B3FBF0F30C4A1068B0FBF3F09C
:1017300000F0BEF868B90F2C01D901200AE00022A0
:1017400021464FF0FF3000F05FF8054B1C60002091
:1017500000E0012010BD00BF00000020080C0020A8
:101760000400002008B50B4B1A6842F400721A609E
:101770001A6842F480621A601A6842F480721A6031
:10178000032000F02FF80F20FFF7C6FF30F088F895
:10179000002008BD003C0240034A1168034B1B783F
:1017A0000B441360704700BF9C60002000000020C5
:1017B000014B1868704700BF9C60002038B5044694
:1017C000FFF7F6FF0546B4F1FF3F02D0044B1B784C
:1017D0001C44FFF7EDFF401BA042FAD338BD00BF09
:1017E00000000020074AD36823F4E0631B041B0CAD
:1017F000000200F4E060184340F0BF6040F40030A5
:10180000D060704700ED00E030B4174BDB68C3F3E5
:101810000223C3F10704042C28BF04241D1D062D38
:1018200018D9033B4FF0FF3505FA04F421EA04010F
:10183000994005FA03F322EA0303194300280BDB5E
:101840000901C9B200F1604000F5614080F8001361
:1018500030BC70470023E5E700F00F000901C9B272
:10186000024B1954F4E700BF00ED00E014ED00E076
:10187000002807DB00F01F02400901239340024AC1
:1018800042F82030704700BF00E100E000280CDB88
:1018900000F01F024009012393402030034A42F820
:1018A0002030BFF34F8FBFF36F8F704700E100E030
:1018B0000138B0F1807F0AD2064B5860064AF02109
:1018C00082F823100020986007221A6070470120D8
:1018D000704700BF10E000E000ED00E030B40568A4
:1018E0002C6824F480242C60046863608368402B97
:1018F00005D0036899600368DA6030BC70470368FC
:101900009A600368D960F8E70268D3B2103B0B49CC
:10191000A1FB03131B090A49C95CC165032B06D847
:1019200022F47F7222F003028265806D704722F4F8
:101930007F7222F0030204328265F6E7ABAAAAAAFC
:1019400060860308836A826992B9012B0AD01BB1B1
:10195000022B01D000207047C36A13F0807F2CD186
:1019600000207047C36AB3F1C07F28D000207047C1
:10197000B2F5005F05D0022B29D9032B15D000202A
:101980007047032B03D8DFE803F01C041C0A002077
:101990007047C36A13F0807F15D100207047C36A77
:1019A000B3F1C07F11D000207047C36A13F0807F6D
:1019B00001D00120704700207047012070470120AE
:1019C00070470120704701207047012070470120B7
:1019D0007047000070B50446FFF7EAFE002C5BD0AC
:1019E0000546022384F83530002384F83430226819
:1019F000136823F00103136023681A6812F0010FC3
:101A00000AD0FFF7D5FE401B0528F5D920236365D2
:101A1000032084F8350070BD1A68204810406168C2
:101A2000A2680A43E1680A4321690A4361690A43DB
:101A3000A1690A43E1690A43216A0A430243616AD0
:101A400004291ED01A602668756925F00705636AA7
:101A50001D43042B07D1A36A1D43E36A1BB1204633
:101A6000FFF770FF90B975612046FFF74DFFE26DFB
:101A70003F239340836000206065012384F8353064
:101A8000C9E7E16A206B01430A43DBE74023636552
:101A9000012084F83500BEE70120BCE73F8010F04C
:101AA00038B5856D90F83440012C2CD0012480F895
:101AB000344090F83540E4B2012C04D0002380F883
:101AC0003430022038BD0446022084F8350000205E
:101AD00060652046FFF702FFE26D3F239340AB6055
:101AE0002268136843F016031360236C23B1226845
:101AF000136843F0080313602268136843F001037E
:101B000013600020DEE70220DCE70000F0B583B0C0
:101B1000044600230193724B1D68724BA3FB0535ED
:101B2000AD0A876D3E68C26D08239340334210D0E2
:101B300003681A6812F0040F0BD01A6822F004022E
:101B40001A60C26D08239340BB60436D43F00103EC
:101B50004365E26D01239340334209D02268526904
:101B600012F0800F04D0BB60636D43F00203636525
:101B7000E26D04239340334209D02268126812F0C8
:101B8000020F04D0BB60636D43F004036365E26D34
:101B900010239340334224D02268126812F0080FB9
:101BA0001FD0BB6023681A6812F4802F0DD01B6809
:101BB00013F4002F04D1236C9BB12046984710E00A
:101BC000A36C73B1204698470BE01A6812F4807F2B
:101BD00003D11A6822F008021A60236C0BB1204668
:101BE0009847E26D20239340334255D02268126813
:101BF00012F0100F50D0BB6094F83530DBB2052BDB
:101C00000ED023681A6812F4802F33D01B6813F4A7
:101C1000002F2AD1636C002B3ED0204698473BE032
:101C20002268136823F0160313602268536923F0B7
:101C300080035361236CA3B12268136823F0080367
:101C40001360E26D3F239340BB60012384F835307D
:101C5000002384F83430236D002B3FD02046984772
:101C60003CE0A36C002BE7D1EBE7E36BA3B120468C
:101C7000984711E01A6812F4807F09D11A6822F09F
:101C800010021A60012384F83530002384F83430C0
:101C9000E36B0BB120469847636DFBB1636D13F0A6
:101CA000010F17D0052384F835302268136823F01C
:101CB00001031360019B01330193AB4204D82368F5
:101CC0001B6813F0010FF5D1012384F83530002390
:101CD00084F83430E36C0BB12046984703B0F0BD74
:101CE000080C0020B5814E1B10B409490C6924F47E
:101CF00040740C610C6944F440740C610C6944F04C
:101D000001040C610260BFF36F8F436010BC704729
:101D1000003C0240074B1A6922F440721A611A69AA
:101D200042F400721A611A6942F001021A610160FC
:101D3000704700BF003C0240074B1A6922F4407212
:101D40001A611A6942F480721A611A6942F001023A
:101D50001A610180704700BF003C0240064B1A69BF
:101D600022F440721A611A691A611A6942F001027A
:101D70001A610170704700BF003C0240274BDB68CE
:101D800013F0100F07D0264AD36943F01003D36134
:101D9000224B1022DA60214BDB6813F0200F07D0B2
:101DA0001F4AD36943F00803D3611C4B2022DA6039
:101DB0001A4BDB6813F0400F07D0194AD36943F080
:101DC0000403D361154B4022DA60144BDB6813F037
:101DD000800F07D0124AD36943F00203D3610F4B3F
:101DE0008022DA600D4BDB6813F4807F08D00C4A48
:101DF000D36943F00103D361084B4FF48072DA607A
:101E0000064BDB6813F0020F07D0054AD36943F095
:101E10002003D361014B0222DA607047003C02408C
:101E2000A0600020094B1B69002B01DB00207047DC
:101E3000064B074A5A6002F188325A601B69002B30
:101E400001DB002070470120704700BF003C0240CA
:101E500023016745034A136943F0004313610020DF
:101E6000704700BF003C024038B50446154B0022C5
:101E7000DA61FFF79DFC0546134BDB6813F4803FE6
:101E80000AD0B4F1FF3FF7D0CCB1FFF791FC401B73
:101E9000A042F1D903200DE00B4BDB6813F0010FDA
:101EA00002D0094B0122DA60074BDB6813F4F97F9B
:101EB00001D1002038BDFFF761FF0120FAE70320C0
:101EC000F8E700BFA0600020003C0240F8B51D4CC0
:101ED000247E012C34D01F4616460D460446194B6D
:101EE00001221A764CF25030FFF7BEFF014698B936
:101EF000BCB1012C1AD0022C1DD032463B462846DC
:101F0000FFF7F2FE4CF25030FFF7AEFF01460E4AEB
:101F1000136923F0010313610A4B00221A76084665
:101F2000F8BDF1B22846FFF719FFEBE7B1B228463A
:101F3000FFF702FFE6E731462846FFF7EBFEE1E751
:101F40000221ECE7A0600020003C0240074B1A6928
:101F500022F440721A611A6942F004021A611A6985
:101F600042EA002040F4803018617047003C024093
:101F700010B449B1012920D0022902D04FF4407495
:101F800003E04FF4007400E000240D4B196921F4C4
:101F9000407119611A6922431A611A6922F0F80224
:101FA0001A611A6942EAC00040F0020018611A6919
:101FB00042F480321A6110BC70474FF48074E4E739
:101FC000003C0240164B1B6813F4007F10D0144BEA
:101FD0001A6822F400721A601A6842F400621A60E9
:101FE0001A6822F400621A601A6842F400721A60D9
:101FF0000B4B1B6813F4806F10D0094B1A6822F446
:1020000080621A601A6842F480521A601A6822F4D8
:1020100080521A601A6842F480621A60704700BFEA
:10202000003C0240F8B5224B1B7E012B3ED00E46F1
:1020300004461F4B01221A764CF25030FFF714FF72
:10204000074670BB4FF0FF3333602368012B16D077
:10205000A568E368A2681344AB4220D9217C2846D6
:10206000FFF786FF4CF25030FFF7FEFE114A13696E
:1020700023F0FA031361074680B90135E9E7616887
:10208000207CFFF763FF4CF25030FFF7EDFE074670
:10209000084A136923F00403136100E03560FFF779
:1020A00091FF034B00221A763846F8BD0227FBE762
:1020B000A0600020003C024000230F2B00F2CA80E9
:1020C000F0B482B05DE086685F000324BC4026EA7D
:1020D0000406CC68BC4034438460466826EA0206A5
:1020E0004C68C4F300129A403243426056E0DC0868
:1020F000083450F8247003F0070296000F22B24013
:1021000027EA02070A69B2403A4340F8242059E01E
:10211000042200E00022B2403A4302344E4E46F818
:1021200024204E4A1468EA4302EA04064F6817F472
:10213000803F01D045EA0406484C2660646802EA04
:1021400004064F6817F4003F01D045EA0406434CEB
:102150006660A46802EA04064F6817F4801F01D085
:1021600045EA04063D4CA660E46822404E6816F439
:10217000001F01D045EA0402384CE26001330F2B06
:1021800065D801229A400C6804EA0205AA42F5D1FA
:102190004C6804F00304013C012C94D94A6802F015
:1021A0000302032A09D0C4685E000322B24024EA75
:1021B00002048A68B2402243C2604A6802F0030205
:1021C000022A94D004685E000322B24024EA02048A
:1021D0004A6802F00302B240224302604A6812F4E5
:1021E000403FCBD0002201921D4A546C44F48044FD
:1021F0005464526C02F480420192019A9C08A61C1D
:10220000154A52F8267003F0030296000F22B240DE
:1022100027EA0207134A90423FF47CAF02F580623E
:1022200090420ED002F5806290420CD002F580629E
:1022300090420AD002F5806290423FF469AF0722D3
:1022400069E7012267E7022265E7032263E702B03C
:10225000F0BC7047704700BF00380140003C0140AF
:1022600000380240000002402DE9F04782B00768C4
:10227000CA00521A930003445A6D1B6D9A4257D8F4
:10228000B8469B1AC1EBC104A2000244526C9A42A8
:1022900000D31A460C46064602F1030A4FEA9A0A90
:1022A00016E009F1030A4FEA9A0AE3001B1B9D009E
:1022B0003544A96C337C00931FFA89F3E2B23846A7
:1022C00002F0CAFAAB6C4B44AB646B6D4B446B656C
:1022D00008EB441303F510639B699BB2534513D37A
:1022E000E3001B1B9A003244516D136D99420BD2CF
:1022F00053B15B1AC4EBC4018A003244D2F8449053
:102300009945CED39946CCE7E3001B1B98000644C1
:10231000326D736D9A420FD804F00F040121A14071
:10232000D7F8344824EA0104C7F83448002000E014
:10233000012002B0BDE8F0870020FAE7F0B58BB0CD
:10234000002800F091800446056890F8BD3323B35F
:10235000032384F8BD33EB6B13F4807F01D100239A
:102360002361206802F020F8254655F8107B6E4660
:102370000FCD0FC60FCD0FC695E8030086E803000A
:10238000231D0ECB384601F04DFF58B1022384F8CF
:10239000BD33012528460BB0F0BD80F8BC332BF0CF
:1023A00045FDD5E70021206802F05AFC002315E026
:1023B000D900C81A82002244012082F83D0082F828
:1023C0003C30A2F84230002082F83F005064906414
:1023D000CA1A9100214408650133DBB26568AB423B
:1023E000E6D3002315E0D800C11A8A002244002158
:1023F00082F8FD1182F8FC3182F8FF11C2F8041254
:10240000C2F80812C21A90002044C0F8101201331A
:10241000DBB29D42E7D8254655F8107B6E460FCDBE
:102420000FC60FCD0FC695E8030086E80300231DF5
:102430000ECB384601F0F4FF054660B9002384F85E
:102440003830012384F8BD33636A012B08D020683B
:1024500002F0C4FB9EE7022384F8BD33012599E70F
:10246000204600F0CFFCF2E7012593E7026890F8E0
:10247000BC33012B19D010B5012380F8BC33836A1B
:10248000012B0AD00446006801F088FF206802F0A2
:1024900097FB002084F8BC0310BD8369012BF1D0A9
:1024A000936B43F480339363ECE7022070470000A2
:1024B00070B504460D460068066C00EB411303F549
:1024C00030639A682169012911D037498E4254D06E
:1024D0003DB9C5EBC50293002344D3F81032002B5D
:1024E0005CD0E9B220462BF0EBFC002070BD12F06E
:1024F000080F09D02D498E42F7D912F4004FF4D0BD
:102500004FF400429A60F0E712F0200F28D112F049
:10251000280FEAD125498E4202D912F4004F22D168
:10252000E900491B8A002244D2F804121B69C3F354
:102530001203C91AC2F81412D2F80412D2F80832DF
:102540000B44C2F8083235B9C5EBC50293002344E9
:10255000D3F810325BB1E9B220462BF0B1FCC4E7EE
:1025600020229A60C1E74FF400429A60BDE704F56B
:102570007172012102F0B6FBEDE712F4004F09D1B0
:1025800012F0200F01D020229A60E9B220462BF0F1
:1025900097FCAAE74FF400429A60A6E704F571722F
:1025A000002102F09FFB9CE70A31544F0A30544F40
:1025B00038B5044603681D6C03EB4111D1F8082BB4
:1025C0000E4B9D4207D901F5306112F4004F02D045
:1025D0004FF400438B6020462BF06AFC074B9D4272
:1025E00002D92369012B01D0002038BD04F5717296
:1025F0000121206802F076FBF6E700BF0A30544F55
:102600002DE9F84F04460568284602F025FB08B17D
:10261000BDE8F88F2F460646206802F0EDFA002844
:10262000F6D0206802F0E8FA10F0020F04D0226819
:10263000536903F002035361206802F0DDFA10F0E1
:10264000100F15D02268936923F010039361D5F819
:10265000208008F00F09C8F34343022B00F0858067
:10266000062B00F0A5802268936943F01003936164
:10267000206802F0C1FA10F4002F40F0AD8020680D
:1026800002F0BAFA10F4802F40F0F180206802F0D6
:10269000B3FA0028C0F25F81206802F0ADFA10F4AE
:1026A000006F0AD0D5F8083813F0010F40F06D81A3
:1026B0002268536903F400635361206802F09CFAB6
:1026C00010F0006F15D02268536903F00063536166
:1026D00094F8F433002B40F05C81012184F8F4136A
:1026E00023685B6DC3F38303C4F8F833204600F01E
:1026F0009CFB206802F080FA10F4805F40F04D816E
:10270000206802F079FA10F4005F40F0AC81206894
:1027100002F072FA10F0080F40F0BD81206802F05C
:102720006BFA10F4801F40F0BF81206802F064FA59
:1027300010F4001F40F0C281206802F05DFA10F032
:10274000804F40F0C581206802F056FA10F0040F67
:102750003FF45EAF23685D6815F0040F40F0C1815F
:10276000226853682B43536052E747F6F07318EA28
:10277000030F3FF478AF4FEAC90BABEB09034FEA05
:10278000830AA2444FEA1818C8F30A02DAF80812BA
:10279000284602F083F9C8F30A08DAF808324344FD
:1027A000CAF80832DAF814324344CAF814325AE745
:1027B000082204F57171284602F070F9C8F30A186E
:1027C0004FEAC903A3EB09018A002244D2F814326C
:1027D0004344C2F8143246E7206802F011FA8046FA
:1027E000B14617E007EB49130122C3F8082B49460D
:1027F0002046FFF75DFE1DE007EB49130822C3F8F2
:10280000082B49462046FFF7D3FE16E009F10109DF
:102810004FEA5808B8F1000F3FF431AF18F0010F3C
:10282000F4D05FFA89F1206802F0FAF9824610F0DC
:10283000010FD7D11AF0080FDED11AF0100F04D013
:1028400007EB49131022C3F8082B1AF0200F04D00D
:1028500007EB49132022C3F8082B1AF4005FD5D0E8
:1028600007EB49134FF40052C3F8082BCEE720685A
:1028700002F0CEF98046B1462AE0594620462BF0B8
:102880002BFB1AF0080F04D007EB49130822C3F8FA
:1028900008291AF0100F04D007EB49131022C3F8CF
:1028A00008291AF0400F04D007EB49134022C3F85F
:1028B00008291AF0020F04D007EB49130222C3F8CB
:1028C00008291AF0800F41D109F101094FEA58088F
:1028D000B8F1000F3FF4DAAE18F0010FF4D05FFA50
:1028E00089FB5946206802F0A4F9824610F0010FD6
:1028F000C7D009F00F03012101FA03F2D7F83438E9
:1029000023EA0203C7F8343807EB4913C3F8081960
:1029100023698B42B1D14FEAC902A2EB09029300AD
:102920002344596C9A6C0A449A64B9F1000FA4D1FB
:10293000C9EBC902930023441B6D002B9DD104F504
:1029400071720121206802F0CDF996E749462046D0
:10295000FFF78AFCB8E7D5F8043823F00103C5F87F
:10296000043894F8F433012B08D020462BF0EEFA0B
:102970002268536903F0004353618DE6002184F817
:10298000F413204600F051FAF2E720462BF0C6FA85
:102990008EE620462BF0C2FAABE605F50068D8F8C3
:1029A000043023F00103C8F804301021206801F03E
:1029B00001FD20E007EB46134FF67F31C3F80819FD
:1029C000D3F8002922F40012C3F80029D3F8002913
:1029D00042F00062C3F80029C3F8081BD3F8002BAB
:1029E00022F40012C3F8002BD3F8002B42F000624F
:1029F000C3F8002B01366368B342DBD8D8F81C302B
:102A000043F00113C8F81C30236BEBB1D8F88430C5
:102A100043F00B03C8F88430D8F8443043F00B037C
:102A2000C8F84430D5F8003823F4FE63C5F8003800
:102A300004F57172217C206802F054F92268536910
:102A400003F4805353615BE6D8F8143043F4005329
:102A500043F02B03C8F81430D8F8103043F00B03C0
:102A6000C8F81030DEE7206802F02BF9206801F08A
:102A70009BFDE060256800F0DDFA227B01462846D8
:102A800001F016FC20462BF038FA2268536903F453
:102A9000005353613BE620462BF029FA2268536924
:102AA00003F00803536139E6002120462BF05AFA5F
:102AB0002268536903F48013536136E600212046EF
:102AC0002BF04AFA2268536903F40013536133E68A
:102AD00020462BF04DFA2268536903F0804353617E
:102AE00031E620462BF04AFA3AE690F8BC33012B47
:102AF0000DD010B50446012380F8BC3380F838109F
:102B0000006802F04DF8002084F8BC0310BD0220DC
:102B10007047F8B511F0800F28D101F00F06F500CD
:102B2000AF1BBC00274604F5FC74044404343E4645
:102B30000644002586F8FD5101F00F012170A260C6
:102B4000E370627802B1E180022B1ED090F8BC33B2
:102B5000012B1DD00546012380F8BC3321460068B7
:102B600001F033FD002085F8BC03F8BD01F00F062D
:102B7000F500AF1BBC0027463834044404343E46FD
:102B80000644012586F83D50D6E700232371DDE792
:102B90000220EAE738B511F0800F21D101F00F05CE
:102BA000EA00541BA3001C4603F5FC7303440433E2
:102BB00025460544002285F8FD2101F00F0119701A
:102BC00090F8BC23012A1AD00446012280F8BC23C5
:102BD0001946006801F044FD002084F8BC0338BDAC
:102BE00001F00F04E200151BAB001D46383303440F
:102BF00004332C460444012284F83D20DDE7022002
:102C0000EDE770B501F00F05EE00711B8C0004F5C7
:102C1000FC740444211D761BB4000444C4F808224B
:102C2000C4F810320023C4F8143284F8FD3184F85B
:102C3000FC510369012B06D065B1DAB2006801F0DE
:102C40001FFE002070BDC5EBC506B4000444C4F8E7
:102C50000C22F1E7DAB2006801F070FDF1E701F053
:102C60000F01C1EBC1018B001844D0F8140270476A
:102C700070B501F00F05EE00711B8C003834044470
:102C8000211D761BB4000444A26423650023636500
:102C9000012384F83D3084F83C500369012B06D0B1
:102CA0005DB1DAB2006801F0EBFD002070BDC5EB4C
:102CB000C506B4000444E264F2E7DAB2006801F049
:102CC0003DFDF2E738B501F00F0543689D4236D867
:102CD00011F0800F20D1CA00541AA3001C4603F53E
:102CE000FC730344043322460244002182F8FD11A0
:102CF00001229A701D7090F8BC23012A21D004464D
:102D0000012280F8BC231946006801F0EEFE7DB177
:102D1000002084F8BC0313E0EA00511B8B00194625
:102D20003833034404330144012281F83D20DFE7B6
:102D300004F57172217C206801F0D4FFE8E70120DE
:102D400038BD0220FCE710B501F00F0443689C4237
:102D50002CD811F0800F1DD1E3001A1B91000A46F8
:102D600001F5FC71014404310244002382F8FD3175
:102D700000238B700C7090F8BC33012B18D00446E4
:102D8000012380F8BC33006801F0DCFE002084F8E9
:102D9000BC030CE0E3001A1B91000A4638310144E1
:102DA00004310244012382F83D30E1E7012010BDE7
:102DB0000220FCE730B40468606A29B10D46A36ABA
:102DC00000EB134000230CE040EA0240A06212E056
:102DD00003F1400104EB8101496800EB114001332C
:102DE000DBB2691E8B42F3D340EA024005F13F019A
:102DF00004EB81014860002030BC704703685962D1
:102E000000207047034602680121C0F8FC1300202F
:102E100083F8F403936943F000639361536D43F0C7
:102E2000805343F00303536570477047264B9B68FC
:102E300003F00C03042B44D0082B01D02348704727
:102E40002DE9F04B204B5A6802F03F025B6813F407
:102E5000800F13D01C4B5968C1F3881100231C4804
:102E6000A1FB0001FEF7C0FA174B5B68C3F30143F7
:102E700001335B00B0FBF3F0BDE8F08B124B5B68F5
:102E8000C3F388131E4600275C010025E41A65EB96
:102E90000705A90141EA9461A001001B61EB05014E
:102EA000CB0043EA5073C400A01943EB07018B0227
:102EB00043EA90538402204619460023FEF794FA11
:102EC000D2E70348704700BF003802400024F400F6
:102ED00040787D01002800F09E8070B50446504B7C
:102EE0001B6803F007038B4209D2CBB24C4A137024
:102EF000136803F007038B4201D0012070BD2368E3
:102F000013F0020F17D013F0040F04D0454A936852
:102F100043F4E0539360236813F0080F04D0414A50
:102F2000936843F4604393603E4A936823F0F00350
:102F3000A068034393600D46236813F0010F32D05D
:102F40006368012B21D09A1E012A25D9354A1268BF
:102F500012F0020F61D033498A6822F00302134352
:102F60008B60FEF725FC06462E4B9B6803F00C0396
:102F70006268B3EB820F16D0FEF71AFC801B41F299
:102F800088339842F0D90320B8E7264A126812F431
:102F9000003FE0D10120B1E7224A126812F0007F21
:102FA000D9D10120AAE71E4B1B6803F00703AB42EF
:102FB00009D9EAB21A4B1A701B6803F00703AB4237
:102FC00001D001209AE7236813F0040F06D0154AB8
:102FD000936823F4E053E1680B439360236813F094
:102FE000080F07D00F4A936823F46043216943EA2E
:102FF000C1039360FFF71AFF0A4B9B68C3F30313E7
:10300000094AD35CD840094B1860094B1868FEF791
:1030100083FB002072E70120704701206EE700BFAC
:10302000003C024000380240502D0408080C0020EB
:1030300004000020014B1868704700BF080C0020F6
:1030400008B5FFF7F7FF044B9B68C3F38223034ADD
:10305000D35CD84008BD00BF00380240602D040892
:1030600008B5FFF7E7FF044B9B68C3F34233034AFD
:10307000D35CD84008BD00BF00380240602D040872
:103080000F2303600B4B9A6802F0030242609A68B8
:1030900002F0F00282609A6802F4E052C2609B681B
:1030A000DB0803F4E0530361034B1B6803F00703E1
:1030B0000B60704700380240003C024070B582B09F
:1030C0000446036813F0010F0DD0A54AD2F88C30E6
:1030D00023F0C06341690B43C2F88C304369002B75
:1030E0006FD0002500E00025236813F0020F0BD0FD
:1030F0009B4AD2F88C3023F0C053A1690B43C2F82D
:103100008C30A36903B90125236813F0080F5AD145
:10311000236813F0040F03D094F83820914B1A6001
:10312000236813F0100F08D08D4AD2F8943023F49E
:103130004003616A0B43C2F89430236813F0200FF8
:103140000DD0874AD2F8943023F00063A16A0B4374
:10315000C2F89430A36AB3F1006F00F09B8023683B
:1031600013F0400F08D07E4AD2F8943023F08053F9
:10317000216A0B43C2F89430002D40F08D80236803
:10318000802B00F08980236813F4807F08D0744A74
:10319000D2F88C3023F00043E16A0B43C2F88C3044
:1031A000236813F4007F00F0D8806D4AD2F88C3089
:1031B00023F40043216B0B43C2F88C30002002B093
:1031C00070BD012590E700230193654B1A6C42F016
:1031D00080521A641B6C03F080530193019B624A76
:1031E000136843F480731360FEF7E2FA06465E4B01
:1031F0001B6813F4807F06D1FEF7DAFA801B0228E1
:10320000F5D90320DBE7564B1B6F13F4407312D044
:10321000E26902F440729A420DD0514B1A6F22F4C7
:103220004072524901200860002008601A671B6F35
:1032300013F0010F12D1E36903F44072B2F5407F3D
:103240001DD0474A936823F4F813936044490B6FE9
:10325000E269C2F30B0213430B6759E7FEF7A8FAC2
:1032600006463F4B1B6F13F0020FE4D1FEF7A0FAA6
:10327000801B41F288339842F3D903209FE73849F5
:103280008A6822F4F81223F0704323F44073134346
:103290008B60DBE7012562E7354B00221A60FEF701
:1032A00087FA05462E4B1B6813F0006F06D0FEF719
:1032B0007FFA401B0228F5D9032080E7626B2D4B73
:1032C0001A60236813F0010F01D06269A2B113F0F4
:1032D000020F01D0A2697AB113F0200F03D0A26AC5
:1032E000B2F1006F08D013F0400F12D0236A83B9F7
:1032F000A36AB3F1006F0CD16368A26843EA82133A
:10330000E26843EA0263226943EA0273144AC2F89C
:103310008430236813F0800F0CD06368A26843EAFE
:103320008213E26843EA0263226943EA02730C4AA9
:10333000C2F884300E4B01221A60FEF739FA0546B6
:10334000074B1B6813F0006F7FF41DAFFEF730FAD8
:10335000401B0228F4D9032031E700202FE700BFEB
:1033600000380240E011474200700040400E4742E2
:1033700068004742D810474238B5FEF719FA0446AC
:10338000474A136843F001031360454B1B6813F071
:10339000020F07D1FEF70CFA001B0228F5D9032310
:1033A000184638BD3E4D2B6843F080032B60FEF776
:1033B000FFF904460023AB60394B9B6813F00C0FF8
:1033C00008D0FEF7F5F9001B41F288339842F3D993
:1033D0000323E5E7FEF7ECF90446314A136823F4CA
:1033E000502313602E4B1B6813F4003F06D0FEF7EA
:1033F000DFF9001B6428F5D90323D1E7FEF7D8F9DC
:103400000446274A136823F080731360244B1B681B
:1034100013F0007F06D0FEF7CBF9001B0228F5D988
:103420000323BDE7FEF7C4F904461D4A136823F0E1
:10343000806313601A4B1B6813F0006F06D0FEF711
:10344000B7F9001B0228F5D90323A9E7144B154A45
:103450005A60C3F88420DA6822F4F852DA60DA6835
:1034600022F40052DA60DA6842F41F02DA60DA68A5
:1034700042F40012DA605A6F22F001025A675A6F62
:1034800042F080725A67084B084A1A60084B186865
:10349000FEF742F90346002882D0012380E700BFEF
:1034A0000038024010300024080C00200024F400F2
:1034B00004000020002800F0F48170B582B00446BA
:1034C000036813F0010F3BD0A74B9B6803F00C037C
:1034D000042B2CD0A44B9B6803F00C03082B21D0A9
:1034E0006368B3F5803F4FD0B3F5A02F52D09E4B09
:1034F0001A6822F480321A601A6822F480221A6054
:103500006368002B50D0FEF753F90546964B1B68B5
:1035100013F4003F14D1FEF74BF9401B6428F5D992
:103520000320C3E1904B5B6813F4800FD8D08E4B1F
:103530001B6813F4003F03D06368002B00F0B381D5
:10354000236813F0020F55D0874B9B6813F00C0FC4
:103550003ED0854B9B6803F00C03082B33D0E36807
:10356000002B68D0814B01221A60FEF721F9054635
:103570007D4B1B6813F0020F54D1FEF719F9401B65
:103580000228F5D9032091E1774A136843F4803388
:103590001360B5E7744B1A6842F480221A601A6807
:1035A00042F480321A60ABE7FEF702F905466E4B33
:1035B0001B6813F4003FC3D0FEF7FAF8401B6428E1
:1035C000F5D9032072E1684B5B6813F4800FC6D114
:1035D000654B1B6813F0020F04D0E368012B01D088
:1035E000012063E1604A136823F0F803216943EA8C
:1035F000C1031360236813F0080F40D0636963B3FD
:103600005B4B01221A60FEF7D3F80546564B5B6F01
:1036100013F0020F33D1FEF7CBF8401B0228F5D987
:10362000032043E1504A136823F0F803216943EA79
:10363000C1031360DEE74D4B00221A60FEF7B8F8B5
:103640000546494B1B6813F0020FD3D0FEF7B0F8C4
:10365000401B0228F5D9032028E1454B00221A60BF
:10366000FEF7A6F80546404B5B6F13F0020F06D03D
:10367000FEF79EF8401B0228F5D9032016E12368C7
:1036800013F0040F79D0384B1B6C13F0805F33D1EB
:1036900000230193344B1A6C42F080521A641B6C65
:1036A00003F080530193019B0125324B1B6813F4F7
:1036B000807F23D0A368012B34D0052B38D02A4B30
:1036C0001A6F22F001021A671A6F22F004021A67B9
:1036D000A368002B36D0FEF76BF80646224B1B6F13
:1036E00013F0020F48D1FEF763F8801B41F28833D4
:1036F0009842F3D90320D9E00025D6E71D4A136884
:1037000043F480731360FEF753F80646194B1B68A9
:1037100013F4807FCED1FEF74BF8801B0228F5D939
:103720000320C3E0104A136F43F001031367CFE790
:103730000D4B1A6F42F004021A671A6F42F0010231
:103740001A67C5E7FEF734F80646074B1B6F13F000
:10375000020F11D0FEF72CF8801B41F288339842FB
:10376000F3D90320A2E000BF003802400000474226
:10377000800E474200700040EDB9A369002B00F0B5
:1037800094804D4A926802F00C02082A54D0022B11
:1037900017D04A4B00221A60FEF70AF80446464B3F
:1037A0001B6813F0007F45D0FEF702F8001B0228CB
:1037B000F5D903207AE0404A136C23F08053136458
:1037C000DBE73E4B00221A60FDF7F2FF05463A4B5D
:1037D0001B6813F0007F06D0FDF7EAFF401B0228AC
:1037E000F5D9032062E0E369226A1343626A43EA7F
:1037F0008213A26A5208013A43EA0243E26A43EAA8
:103800000263226B43EA02732B4A53602B4B012263
:103810001A60FDF7CDFF0446274B1B6813F0007FAD
:1038200006D1FDF7C5FF001B0228F5D903203DE0B6
:1038300000203BE0002039E0012B39D01E4B5B68B3
:1038400003F48001E269914201D001202EE003F0EF
:103850003F02216A8A4201D0012027E0616A47F6CF
:10386000C0721A40B2EB811F01D001201EE003F4A8
:103870004031A26A5208013AB1EB024F01D0012057
:1038800014E003F07062E16AB2EB016F01D0012035
:103890000CE003F0E043226BB3EB027F0AD001207F
:1038A00004E001207047012000E0002002B070BD5C
:1038B0000120FBE70020F9E70038024060004742A2
:1038C0002DE9F04383B004460F4616461D46FDF72A
:1038D0006FFF0A9B181A00EB0508FDF769FF814688
:1038E0002A4B1B68C3F3CB3308FB03F30193236814
:1038F0009B6837EA03030CBF01230023B34240D087
:10390000B5F1FF3FF3D0FDF753FFA0EB09004045B1
:103910000AD2B8F1000F07D0019B0BB94FF0000895
:10392000019B013B0193E2E72268536823F0E00327
:1039300053606368B3F5827F0BD0A36AB3F5005F71
:1039400014D0012384F85130002384F85030032030
:1039500018E0A368B3F5004F02D0B3F5806FECD147
:103960002268136823F040031360E6E722681368B7
:1039700023F4005313602268136843F40053136068
:10398000DFE7002003B0BDE8F08300BF080C002093
:1039900030B585B0164C2468164DA5FB0434640D73
:1039A0004FF47A7505FB04F403944468B4F5827F00
:1039B0000BD0039BC3B1039B013B039303689B683C
:1039C00013F0800FF5D100230FE00B460446009260
:1039D00000228021FFF774FF034630B1636D43F08E
:1039E00020036365032300E00023184605B030BDC3
:1039F000080C0020819F5E1610B582B00446406816
:103A0000B0F5827F16D06068B0F5827F2ED1A368B2
:103A1000B3F5806F1BD000920B4600228021204618
:103A2000FFF74EFF034650B3636D43F02003636519
:103A3000032324E0A368B3F5004F02D0B3F5806FF1
:103A4000E1D12068036823F040030360DBE70092C4
:103A50000B46002201212046FFF732FF034670B1DA
:103A6000636D43F020036365032308E000920B4677
:103A7000002201212046FFF723FF034610B9184614
:103A800002B010BD636D43F0200363650323F6E7C6
:103A90007047002860D010B50446436A33B94368C4
:103AA000B3F5827F05D00023C36102E000230361E8
:103AB000436194F85130002B44D0022384F85130F4
:103AC0002268136823F040031360636803F4827371
:103AD000A26802F404421343E26802F40062134352
:103AE000226902F002021343626902F001021343E9
:103AF000A26902F400721343E26902F03802134330
:103B0000226A02F080021343A26A02F40052216882
:103B100013430B60638B03F00403626A02F010022C
:103B2000216813434B60A36AB3F5005F10D022688D
:103B3000D36923F40063D36100206065012384F816
:103B4000513010BD84F850302046FFF7A1FFB4E794
:103B50002368A28D1A61EAE70120704790F850307F
:103B6000012B73D010B50446012380F8503090F833
:103B70005130DBB2012B05D00223002284F8502003
:103B8000184610BD00295DD0002A5DD0032380F8BF
:103B900051300023436501638286C2868363436498
:103BA00003648387C3878368B3F5004F20D0A36A7B
:103BB000B3F5005F27D0A36C264A1A64A36C264A8B
:103BC000DA63A36C254ADA64A36C00221A652268C2
:103BD000E38E0C32216BA06CFDF762FF0346E8B167
:103BE000636D43F010036365012384F85130C4E72B
:103BF0000268136823F0400313600268136843F4FB
:103C000080431360D3E72268136823F400531360E2
:103C10002268136843F400531360CCE722681168EC
:103C200011F0400F03D1116841F04001116021688B
:103C30004A6842F020024A6021684A6842F0020263
:103C40004A609AE7012398E7012396E70223184682
:103C5000704700BFF93E00083F3F00081D3F0008C5
:103C600038B590F85040012C00F0A880044601209F
:103C700084F8500094F85100C0B26568012810D053
:103C8000B5F5827F05D00223002284F85020184623
:103C900038BDA568002D40F08980042801D002239A
:103CA000F2E7002900F08480002A00F08380002BD6
:103CB00000F0828094F85100C0B2042802D00520A0
:103CC00084F85100002060652163A386E386A26327
:103CD000A387E38720646064A36AB3F5005F20D004
:103CE00094F85130DBB2042B26D0E36C344A1A64CA
:103CF000E36C344ADA63E36C334ADA64E36C00223F
:103D00001A652168E38FA26B0C31E06CFDF7C8FEE9
:103D1000C8B1636D43F010036365012384F851302B
:103D2000B2E72268136823F4005313602268136813
:103D300043F400531360D3E7E36C244A1A64E36C42
:103D4000234ADA63D7E72268536843F001035360DC
:103D5000A26C00231364A26CD363A26CD364A26C24
:103D600013652268E38E0C32216BA06CFDF798FE80
:103D7000034638B1636D43F010036365012384F893
:103D8000513081E72268116811F0400F03D11168AA
:103D900041F04001116021684A6842F020024A6007
:103DA00021684A6842F002024A606DE702236BE72D
:103DB000012369E7012367E7012365E7022366E73B
:103DC000113F0008694000081D3F0008053F00083A
:103DD000AF3F000838B5044685681DB94368B3F5A0
:103DE000827F11D094F85000012878D0012084F807
:103DF000500094F85100C0B201280ED002230022D6
:103E000084F85020184638BD042380F851301346FA
:103E10000A46FFF725FF0346F4E700295BD0002A96
:103E20005BD0042384F8513000236365A163A2872B
:103E3000E28723646364A386E386B5F5004F20D050
:103E4000A36AB3F5005F27D0E36C264A1A64E36CDB
:103E5000254ADA63E36C254ADA64E36C00221A65CA
:103E60002168E38FA26B0C31E06CFDF719FE03466D
:103E7000E8B1636D43F010036365012384F85130AA
:103E8000BDE72268136823F04003136022681368BB
:103E900023F480431360D3E72268136823F40053AC
:103EA00013602268136843F400531360CCE7226860
:103EB000116811F0400F03D1116841F04001116009
:103EC00021684A6842F020024A6021684A6842F04C
:103ED00001024A6093E7012391E701238FE7022360
:103EE00090E700BF053F0008AF3F00081D3F0008F6
:103EF000704770477047704708B5806BFFF7FBFF4E
:103F000008BD704708B5806BFFF7FBFF08BD704721
:103F100008B5806BFFF7FBFF08BD704708B5806BE5
:103F20000268536823F003035360436D43F01003AA
:103F30004365012380F85130FFF7EFFF08BD30B52E
:103F400083B00546846BFDF733FC2B681B6813F4C4
:103F5000807F23D12268536823F0200353602268B6
:103F6000536823F002035360024664212046FFF7A2
:103F70000FFD18B1636D43F020036365A36833B987
:103F800001932368DA6801929B680193019B0023E7
:103F9000E386012384F85130636D23B92046FFF78F
:103FA000A7FF03B030BD2046FFF7B7FFF9E770B5B4
:103FB00084B00546846B00230393FDF7F9FB2B685F
:103FC0001B6813F4807F2FD106462268536823F0C4
:103FD00020035360A36AB3F5005F2AD0A3681BB91E
:103FE0006368B3F5827F35D02268536823F00103FC
:103FF0005360324664212046FFF7FEFC08B12023BF
:1040000063650023E387012384F8513023689A68AD
:1040100012F0100F06D0626D42F0020262654FF698
:10402000EF729A60636DDBB92046FFF762FF04B060
:1040300070BD00906423012211462046FFF740FC2A
:1040400018B1636D43F0020363652368DB68039373
:10405000039BC3E72268536823F003035360C8E758
:104060002046FFF75AFFE2E770B584B00546846B3F
:1040700000230393FDF79CFB2B681B6813F4807FE0
:104080002CD106462268536823F020035360A36AAC
:10409000B3F5005F27D0324664212046FFF778FC55
:1040A00018B1636D43F0200363652268536823F001
:1040B000030353600023E386E387012384F8513030
:1040C00023689A6812F0100F06D0626D42F0020267
:1040D00062654FF6EF729A60636DABB92046FFF7E9
:1040E00009FF04B070BD00906423012211462046F0
:1040F000FFF7E6FB18B1636D43F0020363652368C5
:10410000DB680393039BC6E72046FFF706FFE8E75B
:104110000368304A904212D0B0F1804F0FD0A2F520
:104120007C4290420BD002F58062904207D002F5AB
:104130008062904203D002F57842904203D123F08E
:1041400070034A681343234A90422AD0B0F1804F4B
:1041500027D0A2F57C42904223D002F580629042A3
:104160001FD002F5806290421BD002F57842904247
:1041700017D002F57052904213D002F5806290423F
:104180000FD002F5806290420BD0A2F59832904297
:1041900007D002F58062904203D002F5806290421F
:1041A00003D123F44073CA68134323F080034A69A0
:1041B000134303608B68C3620B688362054B9842AC
:1041C00003D003F58063984201D10B690363012397
:1041D000436170470000014082B000230193019BBE
:1041E000013301930E4A934214D80369002BF6DA87
:1041F00000230193036943F001030361019B013331
:104200000193074A934208D8036913F0010FF5D1CF
:10421000002000E0032002B070470320FBE700BF4E
:10422000400D030084B010B5044603A880E80E00DA
:10423000089B012B1FD1A36B23F48033A363E36896
:1042400023F4840323F04003E360E36823F4401382
:10425000E3600F9B012B09D02046FFF7BDFF069BB3
:10426000012B1BD0BDE8104004B07047E36843F455
:104270008013E360F0E7E36843F04003E360204627
:10428000FFF7AAFF0C9B23B9A36B43F48033A3630E
:10429000E5E7A36B23F48033A363E0E7A36843F06F
:1042A0000603A360A36843F02003A360DAE70000DD
:1042B000022A0AD00921C26822F47052C260C3687F
:1042C00043EA8123C360002070472A4B0B442A4AEB
:1042D00093423FD9294B0B44294A93423CD9A1F53B
:1042E0007403A3F51053274A934237D9A1F183737E
:1042F000A3F5E74302F5C332A032934230D9224BF3
:104300000B44224A93422DD9214B0B4402F59222B1
:1043100002F57872934227D91E4B0B4402F5C32253
:1043200002F52072934221D9A1F1B773A3F5585336
:1043300002F5B71202F55872934219D9164B0B4485
:1043400002F5122202F5F862934201D90621B2E782
:104350000721B0E70F21AEE70E21ACE70D21AAE758
:104360000C21A8E70B21A6E70A21A4E70921A2E76F
:104370000821A0E7405327FFFF340C00401E1BFF1D
:104380003F420F007F4F120060B6E5FE5FE316006C
:1043900000D3CEFEC05BB3FEE05459FE836843F009
:1043A0000103836000207047836823F0010383606A
:1043B0000020704782B000230193890141F0200161
:1043C0000161019B01330193054A934205D80369BA
:1043D00013F0200FF5D1002000E0032002B0704759
:1043E000400D030082B00023019310230361019B61
:1043F00001330193054A934205D8036913F0100F66
:10440000F5D1002000E0032002B07047400D03000A
:10441000D0F800381943C0F8001800207047000099
:1044200084B02DE9F041044607A880E80E00254637
:10443000002306E003F1400204EB820200215160F8
:1044400001330E2BF6D9119B23BBD4F8043843F06B
:104450000203C4F80438A36B23F40013A363236896
:1044600043F040032360236843F08003236000236C
:10447000C4F8003E04F50066D4F80038C4F80038EB
:104480000C9B012B10D1099B4BB900212046FFF753
:10449000BFFF0DE0A36B43F40013A363E7E7012123
:1044A0002046FFF7B5FF03E003212046FFF7B0FFEA
:1044B00010212046FFF77EFF804608B14FF001082B
:1044C0002046FFF78FFF08B14FF00108002333614A
:1044D0007361F3610AE0C3B94FF00060C2F80009EC
:1044E00000220A614FF67F328A60013307999942B0
:1044F00010D905EB431202F51061D2F8000900282B
:10450000E9DB0020C2F80009EAE74FF09040C2F86A
:104510000009E5E700230AE0BBB14FF09047C2F87D
:10452000007B002202614FF67F32826001339942A4
:1045300010D905EB431202F53060D2F8007B002F52
:10454000EADB0027C2F8007BEBE74FF00067C2F818
:10455000007BE6E7336923F4807333610023A361B2
:104560006FF0804363610A9B1BB9A36943F010039A
:10457000A361A2690B4B1343A3610D9B1BB1A369FC
:1045800043F00803A361119B012B04D04046BDE812
:10459000F04104B07047A36943F0804343F0040343
:1045A000A361F3E700383C80D0F8083813F0060325
:1045B00007D0022B07D0062B01D00F207047022016
:1045C0007047002070470220704770B40B784A781B
:1045D000012A22D0D0F81C2803F00F060124B44091
:1045E00042EA0442C0F81C2800EB4310D0F8003B1C
:1045F00013F4004F0ED1D0F8003B8A68C2F30A02D0
:10460000C97842EA8142134343F0805343F40043A4
:10461000C0F8003B002070BC7047D0F81C4803F085
:104620000F06B24092B22243C0F81C2800EB4310A0
:10463000D0F8002912F4004FECD1D0F800298C6892
:10464000C4F30A04C97844EA814444EA8353134317
:1046500043F0805343F40043C0F80039DAE7000028
:1046600030B40B784A78012A24D000EB4313D3F8F6
:10467000002B002A50DBD0F83C580A7802F00F02D9
:10468000012404FA02F225EA0242C0F83C28D0F8DC
:104690001C28097801F00F018C4022EA0444C0F87C
:1046A0001C48D3F8001B234A0A40C3F8002B002003
:1046B00030BC704700EB4313D3F80029002A1EDBFF
:1046C000D0F83C580A7802F00F02012404FA02F2F2
:1046D00092B225EA0202C0F83C28D0F81C280978DA
:1046E00001F00F018C40A4B222EA0404C0F81C4877
:1046F000D3F80019104A0A40C3F80029D7E7D3F8C5
:10470000002942F00062C3F80029D3F8002942F0E2
:104710008042C3F80029D3E7D3F8002B42F00062AF
:10472000C3F8002BD3F8002B42F08042C3F8002BD3
:10473000A1E700BF0078F3EF007833EC70B40B789A
:104740004C78012C26D000EB431000F530631C6937
:10475000E40CE4041C611C6924F0FF5424F4C0142C
:104760001C614C690CB18C684C611C6944F40024D8
:104770001C611C698D68C5F312052C431C61012A5C
:1047800065D0D0F8003B43F00443C0F8003B002064
:1047900070BC70474C696CBB00EB4314D4F81059E3
:1047A00025F0FF5525F4C015C4F81059D4F8105958
:1047B00045F40025C4F81059D4F81059ED0CED0457
:1047C000C4F81059012A33D000EB4313D3F8002961
:1047D00042F00442C3F800294B69002BD7D0D0F82F
:1047E0003428097801F00F040121A1400A43C0F8E0
:1047F0003428CCE700EB431404F510642569ED0C74
:10480000ED042561256925F0FF5525F4C0152561C6
:104810004E698D68AE4200D94D61256945F4002589
:10482000256125694E69C6F3120635432561C9E73E
:104830000A691AB100EB4311C1F8142900EB4310C7
:10484000D0F8002942F00442C0F800299FE7CA6866
:10485000002A96D05A6194E770B49DF80C4064B970
:1048600003339D0807E000EB023303F5805351F852
:10487000046B1E600134AC42F5D3002070BC70475D
:10488000F0B583B00B784C78012C2BD000EB4313A0
:1048900003F530642569ED0CED042561256925F0EB
:1048A000FF5525F4C01525614D69002D40F0C580E8
:1048B00025698E68C6F3120635432561256945F4DE
:1048C00000252561012A00F0CD80CA78012A00F078
:1048D000CF80D3F8002B42F00442C3F8002B002015
:1048E00003B0F0BD4C6984BB00EB4314D4F81059FD
:1048F00025F0FF5525F4C015C4F81059D4F8105907
:1049000045F40025C4F81059D4F81059ED0CED0405
:10491000C4F81059012A4CD000EB4313D3F80049D6
:1049200044F00444C3F80049CC78012C6AD04B69A8
:10493000002BD4D0D0F83428097801F00F040121DD
:10494000A1400A43C0F83428C9E700EB4314D4F867
:104950001059ED0CED04C4F81059D4F8105925F095
:10496000FF5525F4C015C4F81059D4F810694D69E5
:104970008F683D44013DB5FBF7F5474F07EAC54554
:104980003543C4F81059D4F810594E69C6F31206CD
:104990003543C4F8105904F51064CD78012DB9D110
:1049A000256925F0C0452561256945F0005525613B
:1049B000B0E70A691AB100EB4314C4F81429CA78A5
:1049C000012A08D000EB4313D3F8002942F0044237
:1049D000C3F8002983E7D0F8082812F4807F08D1B3
:1049E00000EB4311D1F8002942F00052C1F8002930
:1049F000E8E700EB4311D1F8002942F08052C1F8FA
:104A00000029DFE7D0F8084814F4807F0ED1D3F8EE
:104A1000004944F00054C3F8004914460B46C968E5
:104A20001A789B8A0094FFF717FF58E7D3F80049DC
:104A300044F08054C3F80049EFE78E683544013DE7
:104A4000B5FBF6F52669144F07EAC5473E432661D4
:104A500027698E68ADB206FB05F5C5F312053D4327
:104A600025612FE7CA68002A3FF42FAF62612CE767
:104A7000D0F8082812F4807F06D1D3F8002B42F03A
:104A80000052C3F8002B24E7D3F8002B42F08052E9
:104A9000C3F8002B1DE700BF0000F81F70B483B0FF
:104AA0000646950802F00302002305E006F580544F
:104AB000246841F8044B0133AB42F7D39AB100F5B7
:104AC00080500368019308460024E3B2D900019B9B
:104AD000CB4000F8013B0134013A92B2002AF4D1F4
:104AE00003B070BC70470846FAE70B784A78012A91
:104AF00014D000EB4310D0F8002B002A06DB2BB1BA
:104B0000D0F8003B23F08043C0F8003BD0F8003BD6
:104B100043F40013C0F8003B0020704700EB431043
:104B2000D0F80029002A06DB2BB1D0F8003923F099
:104B30008043C0F80039D0F8003943F40013C0F8BE
:104B40000039E9E70B784A78012A0ED000EB4310D0
:104B5000D0F8003B23F40013C0F8003BCB78023BB5
:104B6000DBB2012B15D90020704700EB4310D0F8C1
:104B7000003923F40013C0F80039CB78023BDBB2D4
:104B8000012BF0D8D0F8003943F08053C0F8003939
:104B9000E9E7D0F8003B43F08053C0F8003BE2E780
:104BA000D0F8003823F4FE63C0F80038D0F800389D
:104BB000090101F4FE610B43C0F800380020704782
:104BC000D0F8003E23F00303C0F8003ED0F80438CC
:104BD00023F00203C0F8043800207047D0F8003EEC
:104BE00023F00303C0F8003ED0F8043843F002037A
:104BF000C0F804380020704742698069104070474F
:104C0000D0F8183800F50060C0691840000C7047F3
:104C1000D0F8183800F50060C069184080B27047BD
:104C200000EB4111D1F8082B00F5006040691040FD
:104C3000704710B4D0F81048D0F8343801F00F02A3
:104C4000D340DB01DBB2234300EB411000F51060E1
:104C50008068184010BC7047406900F00100704740
:104C600038B50546C36823F0C043C360012913D09B
:104C700029BBC36843F08043C36000240120FCF7D4
:104C80009DFD01342846FFF7E7FF08B1312CF5D927
:104C9000322C12D0002038BDC36843F00053C360EB
:104CA00000240120FCF78AFD01342846FFF7D4FFD9
:104CB0000128EDD0312CF4D9EAE70120EBE70120FF
:104CC000E9E7D0F8003923F4FF6323F00703C0F8C5
:104CD0000039D0F8043843F48073C0F80438002059
:104CE0007047000010B4046C144B9C4203D9D0F8F8
:104CF000003B002B16DB0024C0F8104BD0F8104B03
:104D000044F40024C0F8104BD0F8104B44F01804C1
:104D1000C0F8104BD0F8104B44F0C044C0F8104B12
:104D2000012902D0002010BC7047C0F8142BD0F825
:104D3000003B43F08023C0F8003BF3E70A30544FB8
:104D4000004870470800002008B5064B1B7843B99F
:104D5000044B5B782BB9044B1B6F9847202012F053
:104D6000D1FF08BD680F00206C61002038B50546F2
:104D700010F054F9022807D009F0CAFD044620B10A
:104D80002846FFF7E1FF00E00124204638BD4FF040
:104D900000030C380B2809D8DFE800F006060606E9
:104DA0000A0A0A0A0D0D0D0D4FF00103184670474F
:104DB0004FF00203FAE74FF00403F7E70F4B93F8C5
:104DC000AE31D3B90D4890F8AB210D4B93F81031AB
:104DD000DB43DBB21A4002F007020A494A70D243B1
:104DE00002F007020A7090F8AD21134003F00703A8
:104DF000CB70DB4303F007038B7070476C610020BE
:104E00000C640020640E002082B0094B1B68002057
:104E1000DAB262F30700C3F3072262F30F20C3F391
:104E2000074262F317401B0E63F31F6002B0704726
:104E3000640E002082B0184B1B680093174B93F848
:104E4000AE31B3B9C0B29DF8003003409DF80220E6
:104E500002408DF8022013438DF800309DF8013098
:104E600003409DF8032010408DF8030018438DF88F
:104E70000100009B0020DAB262F30700C3F30722AF
:104E800062F30F20C3F3074262F317401B0E63F374
:104E90001F6002B0704700BF640E00206C610020EC
:104EA000024B1A6890601860704700BF2000002015
:104EB000004870471400002010B5037D6FF34513C0
:104EC0000375204BD96501600023C3601E4B93F826
:104ED000292042F08002027693F8292042F0040251
:104EE00083F82920027E42F00402027693F82920FA
:104EF00042F0010283F82920037E43F00103037688
:104F000003695B686422DA60046803695B6B0120F3
:104F1000984701682046FBF7F5FF04460021FCF79F
:104F200085F950B909490A4BD86DFBF7EBFF2146CB
:104F3000FCF786F918B12B2010BD2920FCE70020D2
:104F4000FAE700BFC0600020680F00206666663F79
:104F50000C64002010B504460C202DF03BFA0346EB
:104F600050B120686168A268186059609A60074A69
:104F7000126832B9054A1360181C18BF012010BD11
:104F80000A4691680029FBD19360F5E7140F0020D1
:104F900070B40646064BD3F89430064D2C4618687C
:104FA00059689A68DB680FC42E61284670BC704748
:104FB000C0600020480F002010B50446074BD3F80E
:104FC000943003B1984723781BB920462DF00AFA94
:104FD00010BD002120460AF0ADFFF6E71C6300205B
:104FE000004870473000002070B54FF000040325E2
:104FF00000E08DB16400E6B23446013DAA1C074BC7
:1050000003EB82034FF07E515868FCF70FF900283C
:10501000EFD146F00104ECE7204670BD24000020EB
:1050200070B50446FFF7E0FF05460323013B104936
:105030009A1C01EB82025460002241F82320002BCD
:10504000F4D14FF001064FF07E512046FCF7EEF808
:1050500008B14FF00006074B9E77EDB2FFF7C4FF93
:10506000C0B2854202D0022012F04CFE70BD00BFDB
:1050700024000020C060002038B50446084D821C82
:1050800000F11E0305EB8303596855F82200FBF776
:1050900031FE223455F82410FBF72CFE38BD00BF3A
:1050A000C0600020F8B5074628B10C46022822D07F
:1050B000284BD87145E0002603240CE0EDB22E43C6
:1050C000244904F12203002241F82320D1F894302E
:1050D00043F8242094B3013C04F122024FF001056F
:1050E00000211C4B53F82200FCF7A0F80028E5D063
:1050F0004FF00005E2E71046FBF7B0FE04EB840337
:105100009A00154B1344196BFBF7B0FF054604F1E9
:1051100022034FF0010601460E4A52F82300FCF725
:1051200085F808B14FF00006F6B20A4B04F12202EE
:1051300043F82250D3F8943043F82450054BDF71E4
:1051400006B9F8BD4FF4806012F0DCFD12F038FEB5
:10515000F7E700BFC06000200C64002041B10129C6
:105160000DD0012303700223437000238370704726
:1051700000230370012343700223837070470223CE
:1051800003700023437001238370704710B586B00D
:105190003F4B93F87D307BB13E4C9422002120465A
:1051A0002DF06DF93C4B00221A605A609A60DA606B
:1051B0001A61C4F8943015E0364C7C220021204658
:1051C0002DF05DF9D4F8940003692367334BD3F8CD
:1051D00004313BB10021984704E084682DF002F9C6
:1051E0002F4B1C602E4B18680028F6D1294C284BF9
:1051F00093F8293023770FF00DFA60654FF07E5059
:10520000FFF70EFF04F10801207D0EF007FA18B930
:10521000244B9B68072098471D4B93F87D302BB19A
:10522000214B93F8FF3013F0020F0ED01D4BDC6AB8
:1052300024B1174B93F87D3093B9A047194B9B6964
:105240000BB11448984706B010BD18490B200EF05A
:10525000E5F90028EAD1134B9B6807209847E5E75A
:1052600000230093019302930C22694610482DF00D
:10527000D3F80028E1D100230393049305930C2273
:105280000DEB020109482DF0C7F80028D6D0D4E76D
:10529000680F0020C0600020586100206C61002071
:1052A000140F00201C6300200C6400203C610020CF
:1052B000C860002008B5054B00229A6400229A7647
:1052C0000FF088FB102012F01DFD08BDC06000200B
:1052D00008B50020044B5876044B1B6F98472020DC
:1052E00012F010FD08BD00BFC06000206C610020FE
:1052F000014B586D704700BFC06000202DE9F84396
:1053000004460F4600E001342278531EDBB21F2B07
:10531000F9D93B2A0CD02F2A05D02F2A0CD0A04631
:105320002546002663E0414B9B7D13F0100FF4D01F
:1053300000232370204677E00134F0E7002E49D1A6
:1053400000232B7053E0002E50D0394B93F8783067
:10535000002B60D12B70374B93F8A63113F0020F5E
:1053600005D1AB1BA3F104090FB13B684BB13378F6
:10537000002B52D0D7F80090B9F1000F1BD00026B7
:1053800034E005222C4930462EF039FC0028EED1BD
:1053900048462DF01FF838600028E8D0053602E0B6
:1053A000013609F1FF393378202BF9D04A463146CE
:1053B0002DF041F8DBE7214BD3F898307BB3304632
:1053C00098474E4612E01A4688F8002008F1010876
:1053D00000E02E4656B1AA1B042A07DCA3F16102A5
:1053E000D2B2192A01D803F05F032B7001352B7854
:1053F000BBB1202BEED9292BA5D03B2B9ED0282B3F
:10540000E7D0002EE6D1A3F16102D2B2192ADAD890
:1054100003F05F02D8E70026E8E70026E6E74E46FD
:10542000E4E788F800302046BDE8F883680F0020E4
:10543000C06000206C610020509A03081C630020AB
:105440002DE9F04FA5B024A9002341F8043DFFF752
:1054500055FF037853B92398002803F0E181FFF743
:10546000ABFD0023184625B0BDE8F08F0746252B7D
:1054700010D1437873B9A34A92F8743083F00103D2
:1054800082F874302398002803F0CD81FFF794FD53
:105490000023E7E79C4CAC22002120462CF0EFFFD4
:1054A0000834984D0FCD0FC40FCD0FC495E80300FD
:1054B00084E803004FF0000A8DF814A0CDF818A07E
:1054C000D1463B78242B0ED01AF0010F16D00323BF
:1054D00021934FF000084646CDF81C80C346CDF816
:1054E000208000F003BC4FF0010AA4F12803012240
:1054F0001A8183F80A9083F82390E5E70023E7E711
:10550000002000F027BC00231F93632E03F2978135
:10551000DFE816F0CD00CD00CD00CD007D00CD0040
:1055200095196400640095197600951995199519D7
:105530009519951995191C011C011C015901590156
:105540009519951995199519951995197600951923
:10555000760095199519A20095199519951995191F
:10556000B70095196601951995196D019519951949
:105570009519951995196D01E601E60195197D00BA
:105580008701870187018701870187019519A80194
:10559000951995199519B301951995199519951995
:1055A000951995199519020195199519A200951942
:1055B00095199519D3000201020102019519020102
:1055C000020195199519020127012701760043016F
:1055D00043014F01C601C601DA01DA014B4B1B7EC4
:1055E000022B43F02F819DF87D3043F040038DF86E
:1055F0007D30072E14BF00220122434B5A736AE00C
:1056000028B9BBF1000F43F020814FF0010B9DF84A
:105610007C3043F001038DF87C30F3B23A4A1370CA
:105620001C2E10D01E2E0ED05C2E54D130B10A2864
:1056300004D0142802D01E2843F00D810344324ABE
:105640001370002047E010B10A2843F001810344A1
:105650002D4A137000203EE0002843F0FF80BBF18C
:10566000000F43F0FE809DF87C3043F002038DF87C
:105670007C30254B1E81002283F827204FF0020B3F
:1056800029E0234BD3F8FC30002B03F0ED801428E5
:1056900006D01E2804D0282802D0322843F0E78004
:1056A0001C4BA3FB003006EBD00664360020BBF198
:1056B000000F43F0DF804FF0020B9DF87C3043F089
:1056C00002038DF87C30052E12D00F4B1E810E4B3D
:1056D000002283F82720002843F0EA801F9B19EA64
:1056E000030F43F0E88049EA03094FF00008FDE2A8
:1056F0000028EAD00A2843F0C080034B33221A81E5
:105700000020E4E7C0600020680E00200C64002048
:105710006C610020CDCCCCCCBBF1000F43F0B0804D
:105720009DF87C3043F002038DF87C30744A0123ED
:1057300082F82730B3B21381724A12889B1A18BFBD
:10574000012363F3410A4FF0020BC4E79DF87C305C
:1057500043F004038DF87C30F3B2113B684A937335
:10576000B9E760B99DF87C3043F008038DF87C30D0
:105770005B2E14BF00220122614B1A73ABE79DF828
:105780007C3043F010038DF87C300A2843F07B8096
:105790005A2E03F07B8000209DE79DF87C3043F07B
:1057A00020038DF87C30F3B2C3F15E03544A937248
:1057B00091E79DF87C3043F020038DF87C30504B0E
:1057C00002229A7287E79DF87C3043F040038DF8FF
:1057D0007C30142E14BF00220122494BDA727AE782
:1057E0009DF87C3043F080038DF87C3073E79DF8A2
:1057F0007D3043F001038DF87D30312E0DD00A2825
:1058000043F04780BBF1000F43F046803C4B02223F
:10581000DA7300204FF0030B5DE70020384BD8739C
:1058200059E79DF87D3043F008038DF87D30F3B2E1
:10583000363BDBB2324A13773B2E7FF44CAF002865
:105840003FF449AF0A2804D0142802D01E2843F0A0
:1058500026802D4AA2FB002003EBD003284A1377B1
:10586000002038E79DF87D3043F010038DF87D303F
:1058700000283FF430AF1423F4E59DF87C3043F06A
:1058800001038DF87C301E4B1E70002843F00A8007
:105890001E4BD3F8E030002B7FF41DAF1423E1E55D
:1058A0001B4B1B7E022B43F000809DF87D3043F0A4
:1058B00020038DF87D30A6F16003DBB283F0010395
:1058C0000F4A82F8233006E79DF87D3043F002034B
:1058D0008DF87D30F3B2623B094A82F82530FAE652
:1058E0009DF87D3043F004038DF87D30332E14BFD6
:1058F00000220122024B83F826204FF0040BEAE637
:10590000680E0020C0600020CDCCCCCC1C630020F1
:105910000C640020A94B1B78412B6DD0002842F06D
:10592000D08700231F93632E00F2A981DFE816F0D1
:10593000740074007400AE00AE00AE00CE00E8004B
:10594000E800E800A701A701A701A701A701A70197
:10595000A701A701A701A701A701A701A701A70107
:10596000A701A701A701A701A701A7017400A7012B
:10597000A701A701A701A701A701A701A701A701E7
:10598000A701A701A701A701A701A701A701A701D7
:105990002801280128012801A7012801A701A70142
:1059A0002101A701A701A70174003A014E014E0190
:1059B0004E014E0165017D017D01A701A701A701EF
:1059C000A701A701A701A701A701A701A701A70197
:1059D000A701A701A701A701A701A701A701A70187
:1059E000A701A701A701A701A701A701A701A70177
:1059F000A701A701A7019401704B93F8953013F00C
:105A0000200F42F05B876D4BDD6493F8952042F0E8
:105A1000200283F8952069E19DF87D3043F08003F2
:105A20008DF87D303EB1012E0CD0644B83F82060A0
:105A30004FF00008AEE0614B032283F820204FF0C6
:105A40000008A7E05E4B93F8A83113F0200F13D0A5
:105A50005B4B9B6E9847C0F3421888F0010808F032
:105A60000108B8F1000F00F09580544B012283F833
:105A700020204FF000088DE0524B93F816804FEA3B
:105A8000981888F0010808F00108EAE79DF87E30D0
:105A900043F002038DF87E30711F18BF0121474A81
:105AA00092F8223061F30003042E14BF002101217B
:105AB00061F3410382F82230424A92F82C3043F0DD
:105AC000040382F82C304FF0000863E03E4B93F85B
:105AD0002C30042B00F0E980394BD3F8D43043B19B
