:020000040800F2
:100000000000042055320208A9F90108ABF90108E3
:10001000ADF90108AFF90108B1F9010800000000CD
:10002000000000000000000000000000B3F901081B
:10003000B5F9010800000000B7F90108B9F9010895
:10004000A5320208A5320208A5320208A53202082C
:10005000A5320208A5320208A9DD0108C5DD0108A4
:10006000A5320208A5320208A5320208A53202080C
:10007000A5320208A5320208A5320208A5320208FC
:10008000A5320208A5320208A5320208A5320208EC
:10009000A5320208A5320208A5320208E1DD0108F6
:1000A000C1DC0108A5320208A5320208A532020807
:1000B000A5320208A532020811DC0108A5320208A7
:1000C000A5320208A5320208A5320208A5320208AC
:1000D000A532020859F80108E1F80108A532020822
:1000E000C5DE0108A5320208A5320208A5320208C1
:1000F000A5320208A5320208A5320208A53202087C
:1001000000000000A5320208E9DB0108A532020860
:100110000000000000000000A5320208A53202081D
:10012000A5320208A5320208A5320208A53202084B
:10013000A5320208A5320208A5320208A53202083B
:10014000A5320208A5320208A5320208C5F9010845
:10015000A5320208A5320208A5320208A53202081B
:10016000A5320208A53202080000000000000000CD
:10017000000000000000000000000000000000007F
:10018000A5320208A53202080000000000000000AD
:10019000A5320208A532020800000000000000009D
:1001A000000000000000000000000000000000004F
:1001B000A5320208000000000000000031E1010843
:0401C00041E1010810
:1001D00010B5054C237833B9044B13B10448AFF381
:1001E00000800123237010BD3C0B002000000000A4
:1001F000A832020808B5034B1BB103490348AFF30B
:10020000008008BD00000000400B0020A83202085A
:1002100010F8012B11F8013B012A28BF9A42F7D0B0
:10022000D01A7047034613F8012B002AFBD1181A85
:1002300001387047000000000000000000000000CE
:1002400001F0FF01102A2BDB10F0070F08D010F887
:10025000013B013A8B422DD010F0070F42B3F6D18B
:10026000F0B441EA012141EA014122F007047FF0A4
:1002700000070023F0E80256083C85EA010586EAFB
:10028000010685FA47F5A3FA87F586FA47F6A5FA37
:1002900087F68EB9EED1F0BC01F0FF0102F0070243
:1002A00032B110F8013B013A83EA010313B1F8D1EE
:1002B0000020704701387047002D06BF35460338CF
:1002C000073815F0010F07D1013015F4807F02BF08
:1002D000013015F4C03F0130F0BC0138704700BF59
:1002E00081F0004102E000BF83F0004330B54FEAE7
:1002F00041044FEA430594EA050F08BF90EA020F54
:100300001FBF54EA000C55EA020C7FEA645C7FEAE6
:10031000655C00F0E2804FEA5454D4EB5555B8BF09
:100320006D420CDD2C4480EA020281EA030382EA7A
:10033000000083EA010180EA020281EA0303362D0C
:1003400088BF30BD11F0004F4FEA01314FF4801CDF
:100350004CEA113102D0404261EB410113F0004FF1
:100360004FEA03334CEA133302D0524263EB4303A8
:1003700094EA050F00F0A780A4F10104D5F1200E46
:100380000DDB02FA0EFC22FA05F2801841F10001A1
:1003900003FA0EF2801843FA05F359410EE0A5F175
:1003A00020050EF1200E012A03FA0EFC28BF4CF0A6
:1003B000020C43FA05F3C01851EBE37101F000455C
:1003C00007D54FF0000EDCF1000C7EEB00006EEB69
:1003D0000101B1F5801F1BD3B1F5001F0CD34908F3
:1003E0005FEA30004FEA3C0C04F101044FEA44524A
:1003F00012F5800F80F09A80BCF1004F08BF5FEAD1
:10040000500C50F1000041EB045141EA050130BDB0
:100410005FEA4C0C404141EB010111F4801FA4F153
:100420000104E9D191F0000F04BF01460020B1FAA8
:1004300081F308BF2033A3F10B03B3F120020CDAE0
:100440000C3208DD02F1140CC2F10C0201FA0CF0BE
:1004500021FA02F10CE002F11402D8BFC2F1200C23
:1004600001FA02F120FA0CFCDCBF41EA0C019040D9
:10047000E41AA2BF01EB0451294330BD6FEA040422
:100480001F3C1CDA0C340EDC04F11404C4F120020D
:1004900020FA04F001FA02F340EA030021FA04F31F
:1004A00045EA030130BDC4F10C04C4F1200220FA76
:1004B00002F001FA04F340EA0300294630BD21FAB4
:1004C00004F0294630BD94F0000F83F4801306BF7A
:1004D00081F480110134013D4EE77FEA645C18BF6E
:1004E0007FEA655C29D094EA050F08BF90EA020F05
:1004F00005D054EA000C04BF1946104630BD91EAFD
:10050000030F1EBF0021002030BD5FEA545C05D1FF
:100510004000494128BF41F0004130BD14F580043E
:100520003CBF01F5801130BD01F0004545F0FE41B2
:1005300041F470014FF0000030BD7FEA645C1ABFE7
:10054000194610467FEA655C1CBF0B46024650EA1E
:10055000013406BF52EA033591EA030F41F400214A
:1005600030BD00BF90F0000F04BF0021704730B5D0
:100570004FF4806404F132044FF000054FF00001A5
:1005800050E700BF90F0000F04BF0021704730B566
:100590004FF4806404F1320410F0004548BF40423B
:1005A0004FF000013EE700BF42004FEAE2014FEA90
:1005B00031014FEA02701FBF12F07F4393F07F4F6B
:1005C00081F06051704732F07F4208BF704793F06E
:1005D0007F4F04BF41F40021704730B54FF4607481
:1005E00001F0004521F000411CE700BF50EA010284
:1005F00008BF704730B54FF000050AE050EA01022D
:1006000008BF704730B511F0004502D5404261EB9C
:1006100041014FF4806404F132045FEA915C3FF4DD
:10062000D8AE4FF003025FEADC0C18BF03325FEA7A
:10063000DC0C18BF033202EBDC02C2F1200300FA2B
:1006400003FC20FA02F001FA03FE40EA0E0021FA50
:1006500002F11444BDE600BF70B54FF0FF0C4CF43E
:10066000E06C1CEA11541DBF1CEA135594EA0C0FF0
:1006700095EA0C0F00F0DEF82C4481EA030621EA2B
:100680004C5123EA4C5350EA013518BF52EA033566
:1006900041F4801143F4801338D0A0FB02CE4FF018
:1006A0000005E1FB02E506F00042E0FB03E54FF048
:1006B0000006E1FB03569CF0000F18BF4EF0010E40
:1006C000A4F1FF04B6F5007F64F5407404D25FEA3C
:1006D0004E0E6D4146EB060642EAC62141EA5551EF
:1006E0004FEAC52040EA5E504FEACE2EB4F1FD0C31
:1006F00088BFBCF5E06F1ED8BEF1004F08BF5FEAAF
:10070000500E50F1000041EB045170BD06F0004660
:1007100046EA010140EA020081EA0301B4EB5C040D
:10072000C2BFD4EB0C0541EA045170BD41F4801105
:100730004FF0000E013C00F3AB8014F1360FDEBF2A
:10074000002001F0004170BDC4F10004203C35DA06
:100750000C341BDC04F11404C4F1200500FA05F389
:1007600020FA04F001FA05F240EA020001F000422A
:1007700021F0004110EBD37021FA04F642EB0601A0
:100780005EEA430E08BF20EAD37070BDC4F10C04CA
:10079000C4F1200500FA04F320FA05F001FA04F28E
:1007A00040EA020001F0004110EBD37041F100017A
:1007B0005EEA430E08BF20EAD37070BDC4F1200585
:1007C00000FA05F24EEA020E20FA04F301FA05F2ED
:1007D00043EA020321FA04F001F0004121FA04F295
:1007E00020EA020000EBD3705EEA430E08BF20EA65
:1007F000D37070BD94F0000F0FD101F0004640009F
:1008000041EB010111F4801F08BF013CF7D041EA20
:10081000060195F0000F18BF704703F00046520024
:1008200043EB030313F4801F08BF013DF7D043EAF5
:100830000603704794EA0C0F0CEA135518BF95EAAB
:100840000C0F0CD050EA410618BF52EA4306D1D132
:1008500081EA030101F000414FF0000070BD50EA51
:10086000410606BF1046194652EA430619D094EADB
:100870000C0F02D150EA013613D195EA0C0F05D1C5
:1008800052EA03361CBF104619460AD181EA030119
:1008900001F0004141F0FE4141F470014FF00000D1
:1008A00070BD41F0FE4141F4780170BD70B54FF06C
:1008B000FF0C4CF4E06C1CEA11541DBF1CEA1355EC
:1008C00094EA0C0F95EA0C0F00F0A7F8A4EB0504CE
:1008D00081EA030E52EA03354FEA013100F08880C5
:1008E0004FEA03334FF0805545EA131343EA12638E
:1008F0004FEA022245EA111545EA10654FEA002643
:100900000EF000419D4208BF964244F1FD0404F5FB
:10091000407402D25B084FEA3202B61A65EB030557
:100920005B084FEA32024FF480104FF4002CB6EB14
:10093000020E75EB030E22BFB61A754640EA0C0094
:100940005B084FEA3202B6EB020E75EB030E22BFD4
:10095000B61A754640EA5C005B084FEA3202B6EB15
:10096000020E75EB030E22BFB61A754640EA9C00D4
:100970005B084FEA3202B6EB020E75EB030E22BFA4
:10098000B61A754640EADC0055EA060E18D04FEA62
:10099000051545EA16754FEA06164FEAC30343EA02
:1009A00052734FEAC2025FEA1C1CC0D111F4801FCF
:1009B0000BD141EA00014FF000004FF0004CB6E7C8
:1009C00011F4801F04BF01430020B4F1FD0C88BF67
:1009D000BCF5E06F3FF6AFAEB5EB030C04BFB6EB72
:1009E000020C5FEA500C50F1000041EB045170BD65
:1009F0000EF0004E4EEA113114EB5C04C2BFD4EB92
:100A00000C0541EA045170BD41F480114FF0000E15
:100A1000013C90E645EA060E8DE60CEA135594EA91
:100A20000C0F08BF95EA0C0F3FF43BAF94EA0C0F94
:100A30000AD150EA01347FF434AF95EA0C0F7FF409
:100A400025AF104619462CE795EA0C0F06D152EA5D
:100A500003353FF4FDAE1046194622E750EA410641
:100A600018BF52EA43067FF4C5AE50EA41047FF452
:100A70000DAF52EA43057FF4EBAE12E74A0011D204
:100A800012F5001211D20DD56FF47873B3EB6252E8
:100A90000ED44FEAC12343F0004343EA505323FAF4
:100AA00002F070474FF00000704750EA013002D169
:100AB0004FF0FF3070474FF0000070474FEA41029F
:100AC000B2F1E04324BFB3F5001CDCF1FE5C0DD9AC
:100AD00001F0004C4FEAC0024CEA5070B2F1004FF6
:100AE00040EB830008BF20F00100704711F0804FF9
:100AF00021D113F13872BCBF01F00040704741F4BE
:100B000080114FEA5252C2F11802C2F1200C10FAC1
:100B10000CF320FA02F018BF40F001004FEAC123A5
:100B20004FEAD32303FA0CFC40EA0C0023FA02F349
:100B30004FEA4303CCE77FEA625307D150EA01331F
:100B40001EBF4FF0FE4040F44000704701F00040EF
:100B500040F0FE4040F40000704700BF80F00040CD
:100B600002E000BF81F0004142001FBF5FEA410385
:100B700092EA030F7FEA226C7FEA236C6AD04FEA85
:100B80001262D2EB1363C1BFD218414048404140CA
:100B9000B8BF5B42192B88BF704710F0004F40F47C
:100BA000000020F07F4018BF404211F0004F41F498
:100BB000000121F07F4118BF494292EA030F3FD064
:100BC000A2F1010241FA03FC10EB0C00C3F1200377
:100BD00001FA03F100F0004302D5494260EB400006
:100BE000B0F5000F13D3B0F1807F06D340084FEA71
:100BF000310102F10102FE2A51D2B1F1004F40EB66
:100C0000C25008BF20F0010040EA030070474900CD
:100C100040EB000010F4000FA2F10102EDD1B0FA98
:100C200080FCACF1080CB2EB0C0200FA0CF0AABF8D
:100C300000EBC25052421843BCBFD040184370472B
:100C400092F0000F81F4000106BF80F40000013231
:100C5000013BB5E74FEA41037FEA226C18BF7FEA08
:100C6000236C21D092EA030F04D092F0000F08BF4A
:100C70000846704790EA010F1CBF0020704712F031
:100C80007F4F04D1400028BF40F00040704712F170
:100C900000723CBF00F50000704700F0004343F0D5
:100CA000FE4040F4000070477FEA226216BF08460B
:100CB0007FEA23630146420206BF5FEA412390EACE
:100CC000010F40F4800070474FF0000304E000BFC4
:100CD00010F0004348BF40425FEA000C08BF704775
:100CE00043F0964301464FF000001CE050EA010239
:100CF00008BF70474FF000030AE000BF50EA01024E
:100D000008BF704711F0004302D5404261EB41013A
:100D10005FEA010C02BF84460146002043F0B6435F
:100D200008BFA3F18053A3F50003BCFA8CF2083A84
:100D3000A3EBC25310DB01FA02FC634400FA02FC8D
:100D4000C2F12002BCF1004F20FA02F243EB020094
:100D500008BF20F00100704702F1200201FA02FCF6
:100D6000C2F1200250EA4C0021FA02F243EB0200E9
:100D700008BF20EADC7070474FF0FF0C1CEAD0522D
:100D80001EBF1CEAD15392EA0C0F93EA0C0F6FD0EE
:100D90001A4480EA010C400218BF5FEA41211ED0CC
:100DA0004FF0006343EA501043EA5111A0FB0131B8
:100DB0000CF00040B1F5000F3EBF490041EAD3718D
:100DC0005B0040EA010062F17F02FD2A1DD8B3F109
:100DD000004F40EBC25008BF20F00100704790F078
:100DE000000F0CF0004C08BF49024CEA502040EACA
:100DF00051207F3AC2BFD2F1FF0340EAC250704790
:100E000040F400004FF00003013A5DDC12F1190FCD
:100E1000DCBF00F000407047C2F10002410021FA3F
:100E200002F1C2F1200200FA02FC5FEA310040F157
:100E3000000053EA4C0308BF20EADC70704792F0D0
:100E4000000F00F0004C02BF400010F4000F013A08
:100E5000F9D040EA0C0093F0000F01F0004C02BF03
:100E6000490011F4000F013BF9D041EA0C018FE772
:100E70000CEAD15392EA0C0F18BF93EA0C0F0AD078
:100E800030F0004C18BF31F0004CD8D180EA01009E
:100E900000F00040704790F0000F17BF90F0004F37
:100EA000084691F0000F91F0004F14D092EA0C0F19
:100EB00001D142020FD193EA0C0F03D14B0218BFAC
:100EC000084608D180EA010000F0004040F0FE40F2
:100ED00040F40000704740F0FE4040F4400070478E
:100EE0004FF0FF0C1CEAD0521EBF1CEAD15392EA0D
:100EF0000C0F93EA0C0F69D0A2EB030280EA010CFD
:100F000049024FEA402037D04FF0805343EA111195
:100F100043EA10130CF000408B4238BF5B0042F1F3
:100F20007D024FF4000C8B4224BF5B1A40EA0C0098
:100F3000B3EB510F24BFA3EB510340EA5C00B3EBCA
:100F4000910F24BFA3EB910340EA9C00B3EBD10FB8
:100F500024BFA3EBD10340EADC001B0118BF5FEA0A
:100F60001C1CE0D1FD2A3FF650AF8B4240EBC25033
:100F700008BF20F0010070470CF0004C4CEA5020F4
:100F80007F32C2BFD2F1FF0340EAC250704740F443
:100F900000004FF00003013A37E792F0000F00F035
:100FA000004C02BF400010F4000F013AF9D040EAB3
:100FB0000C0093F0000F01F0004C02BF490011F447
:100FC000000F013BF9D041EA0C0195E70CEAD1533F
:100FD00092EA0C0F08D142027FF47DAF93EA0C0F26
:100FE0007FF470AF084676E793EA0C0F04D14B020A
:100FF0003FF44CAF08466EE730F0004C18BF31F0BC
:10100000004CCAD130F000427FF45CAF31F00043B5
:101010007FF43CAF5FE700BF4FF0FF3C06E000BF4E
:101020004FF0010C02E000BF4FF0010C4DF804CD71
:101030004FEA40024FEA41037FEA226C18BF7FEA81
:10104000236C11D001B052EA530C18BF90EA010F83
:1010500058BFB2EB030088BFC81738BF6FEAE17012
:1010600018BF40F0010070477FEA226C02D15FEAAE
:10107000402C05D17FEA236CE4D15FEA412CE1D01A
:101080005DF8040B704700BF844608466146FFE7E1
:101090000FB5FFF7C9FF002848BF10F1000F0FBDC3
:1010A0004DF808EDFFF7F4FF0CBF012000205DF8BC
:1010B00008FB00BF4DF808EDFFF7EAFF34BF012041
:1010C00000205DF808FB00BF4DF808EDFFF7E0FFDA
:1010D00094BF012000205DF808FB00BF4DF808ED2B
:1010E000FFF7D2FF94BF012000205DF808FB00BF8E
:1010F0004DF808EDFFF7C8FF34BF012000205DF870
:1011000008FB00BF4FEA40024FEA41037FEA226C2E
:1011100002D15FEA402C08D17FEA236C02D15FEA5A
:10112000412C02D14FF0000070474FF00100704792
:101130004FEA4002B2F1FE4F0FD34FF09E03B3EBE4
:1011400012620DD94FEA002343F0004310F0004F24
:1011500023FA02F018BF404270474FF0000070477A
:1011600012F1610F01D1420205D110F0004008BF19
:101170006FF0004070474FF00000704742000ED201
:10118000B2F1FE4F0BD34FF09E03B3EB126209D4C2
:101190004FEA002343F0004323FA02F070474FF078
:1011A0000000704712F1610F01D1420202D14FF0ED
:1011B000FF3070474FF00000704700BF53B94AB985
:1011C000002908BF00281CBF4FF0FF314FF0FF304F
:1011D00000F072B9ADF1080C6DE904CE00F006F82C
:1011E000DDF804E0DDE9022304B070472DE9F047A3
:1011F000089E04468846002B4BD18A42154667D983
:10120000B2FA82F24AB1C2F1200701FA02F320FADF
:1012100007F7954047EA030894404FEA154E230C20
:10122000B8FBFEF71FFA85FC0EFB178843EA08435C
:1012300007FB0CF1994209D9EB1807F1FF3080F058
:101240001B81994240F21881023F2B445B1AA4B2E1
:10125000B3FBFEF00EFB103344EA034400FB0CFC2E
:10126000A44509D92C1900F1FF3380F00781A4456A
:1012700040F2048102382C4440EA0740A4EB0C04FD
:1012800000271EB1D4400023C6E900433946BDE81B
:10129000F0878B4209D9002E00F0EB800027C6E9C9
:1012A000000138463946BDE8F087B3FA83F7002FCE
:1012B00047D18B4202D3824200F2FA80841A61EB5A
:1012C000030301209846002EE0D0C6E90048DDE780
:1012D00002B9FFDEB2FA82F2002A40F08F80491B89
:1012E0004FEA154E1FFA85F80127B1FBFEFC230CCF
:1012F0000EFB1C1143EA014308FB0CF1994207D98C
:10130000EB180CF1FF3002D2994200F2CD808446F6
:10131000591AA3B2B1FBFEF00EFB101443EA0444C9
:1013200008FB00F8A04507D92C1900F1FF3302D2C1
:10133000A04500F2B6801846A4EB080440EA0C4031
:101340009FE7C7F1200CBB4022FA0CFE4EEA030EC9
:1013500001FA07F420FA0CF521FA0CF34FEA1E48C3
:101360002543B3FBF8F92C0C08FB19331FFA8EFA4E
:1013700044EA034309FB0AF49C4202FA07F200FA2A
:1013800007F10BD91EEB030309F1FF3080F08780D2
:101390009C4240F28480A9F1020973441B1BADB248
:1013A000B3FBF8F008FB103345EA034400FB0AFAEC
:1013B000A24508D91EEB040400F1FF336BD2A2450D
:1013C00069D90238744440EA0940A0FB0289A4EBC1
:1013D0000A044C45C2464B4654D351D0002E69D026
:1013E000B1EB0A0564EB030404FA0CFCFD40FC407D
:1013F0004CEA0505C6E90054002747E7C2F120037F
:1014000020FA03F7954001FA02F021FA03F34FEABC
:10141000154E3843010CB3FBFEF71FFA85F80EFB9F
:10142000173341EA034107FB08F38B4204FA02F445
:1014300007D9691807F1FF3C2FD28B422DD9023F03
:101440002944CB1A81B2B3FBFEF00EFB103341EA04
:10145000034100FB08F38B4207D9691800F1FF3CF8
:1014600017D28B4215D902382944C91A40EA0747D6
:101470003BE73746304609E70746E7E61846FBE60E
:101480004145ABD2B8EB020A69EB0E0201381346B4
:10149000A4E76046E9E7184695E76746D1E7814645
:1014A0007CE702382C4447E7ACF1020C2B442FE7D1
:1014B000384608E73746E9E6704700BF4FF0FF3C83
:1014C00006E000BF4FF0010C02E000BF4FF0010C3E
:1014D0004DF804CD4FEA410C7FEA6C5C4FEA430CB7
:1014E00018BF7FEA6C5C1BD001B050EA410C0CBF06
:1014F00052EA430C91EA030F02BF90EA020F002068
:10150000704710F1000F91EA030F58BF994208BFCE
:1015100090422CBFD8176FEAE37040F0010070478B
:101520004FEA410C7FEA6C5C02D150EA013C07D1E2
:101530004FEA430C7FEA6C5CD6D152EA033CD3D02D
:101540005DF8040B704700BF8446104662468C4627
:101550001946634600E000BF01B5FFF7B7FF00285A
:1015600048BF10F1000F01BD4DF808EDFFF7F4FF83
:101570000CBF012000205DF808FB00BF4DF808ED0E
:10158000FFF7EAFF34BF012000205DF808FB00BF31
:101590004DF808EDFFF7E0FF94BF012000205DF853
:1015A00008FB00BF4DF808EDFFF7CEFF94BF012008
:1015B00000205DF808FB00BF4DF808EDFFF7C4FF01
:1015C00034BF012000205DF808FB00BF10B50446C1
:1015D0000E4B18784FF47A73B3FBF0F30C4A106893
:1015E000B0FBF3F000F0BEF868B90F2C01D9012070
:1015F0000AE0002221464FF0FF3000F05FF8054B73
:101600001C60002000E0012010BD00BF0000002091
:10161000600900200400002008B50B4B1A6842F452
:1016200000721A601A6842F480621A601A6842F402
:1016300080721A60032000F02FF80F20FFF7C6FF1A
:101640001EF092F9002008BD003C0240034A1168D8
:10165000034B1B780B441360704700BF1C33002002
:1016600000000020014B1868704700BF1C330020A9
:1016700038B50446FFF7F6FF0546B4F1FF3F02D048
:10168000044B1B781C44FFF7EDFF401BA042FAD32C
:1016900038BD00BF00000020074AD36823F4E06390
:1016A0001B041B0C000200F4E060184340F0BF6014
:1016B00040F40030D060704700ED00E030B4174BCC
:1016C000DB68C3F30223C3F10704042C28BF0424FE
:1016D0001D1D062D18D9033B4FF0FF3505FA04F404
:1016E00021EA0401994005FA03F322EA03031943AE
:1016F00000280BDB0901C9B200F1604000F5614030
:1017000080F8001330BC70470023E5E700F00F00BD
:101710000901C9B2024B1954F4E700BF00ED00E023
:1017200014ED00E0002807DB00F01F024009012350
:101730009340024A42F82030704700BF00E100E0C9
:1017400000280CDB00F01F024009012393402030E9
:10175000034A42F82030BFF34F8FBFF36F8F7047BB
:1017600000E100E00138B0F1807F0AD2064B5860FA
:10177000064AF02182F823100020986007221A60A0
:1017800070470120704700BF10E000E000ED00E06E
:1017900090F83530DBB2022B03D080234365012063
:1017A0007047052380F835300268136823F0010381
:1017B00013600020704790F83500704710B4094955
:1017C0000C6924F440740C610C6944F440740C619D
:1017D0000C6944F001040C610260BFF36F8F436039
:1017E00010BC7047003C0240074B1A6922F440725B
:1017F0001A611A6942F400721A611A6942F0010210
:101800001A610160704700BF003C0240074B1A6933
:1018100022F440721A611A6942F480721A611A69DC
:1018200042F001021A610180704700BF003C024093
:10183000064B1A6922F440721A611A691A611A6910
:1018400042F001021A610170704700BF003C024083
:10185000274BDB6813F0100F07D0264AD36943F0FB
:101860001003D361224B1022DA60214BDB6813F0A6
:10187000200F07D01F4AD36943F00803D3611C4BE4
:101880002022DA601A4BDB6813F0400F07D0194AA8
:10189000D36943F00403D361154B4022DA60144B43
:1018A000DB6813F0800F07D0124AD36943F00203BC
:1018B000D3610F4B8022DA600D4BDB6813F4807F1D
:1018C00008D00C4AD36943F00103D361084B4FF4AD
:1018D0008072DA60064BDB6813F0020F07D0054A0E
:1018E000D36943F02003D361014B0222DA607047D1
:1018F000003C024020330020094B1B69002B01DB18
:1019000000207047064B074A5A6002F188325A603D
:101910001B69002B01DB002070470120704700BFCE
:10192000003C024023016745034A136943F000432A
:1019300013610020704700BF003C024038B50446E8
:10194000154B0022DA61FFF78DFE0546134BDB686D
:1019500013F4803F0AD0B4F1FF3FF7D0CCB1FFF7CA
:1019600081FE401BA042F1D903200DE00B4BDB6848
:1019700013F0010F02D0094B0122DA60074BDB683C
:1019800013F4F97F01D1002038BDFFF761FF01207A
:10199000FAE70320F8E700BF20330020003C0240B4
:1019A000F8B51D4C247E012C34D01F4616460D463A
:1019B0000446194B01221A764CF25030FFF7BEFF55
:1019C000014698B9BCB1012C1AD0022C1DD0324668
:1019D0003B462846FFF7F2FE4CF25030FFF7AEFFD1
:1019E00001460E4A136923F0010313610A4B0022DA
:1019F0001A760846F8BDF1B22846FFF719FFEBE763
:101A0000B1B22846FFF702FFE6E731462846FFF766
:101A1000EBFEE1E70221ECE720330020003C02402E
:101A2000074B1A6922F440721A611A6942F00402E3
:101A30001A611A6942EA002040F480301861704748
:101A4000003C024010B449B1012920D0022902D043
:101A50004FF4407403E04FF4007400E000240D4B99
:101A6000196921F4407119611A6922431A611A69CE
:101A700022F0F8021A611A6942EAC00040F002003E
:101A800018611A6942F480321A6110BC70474FF431
:101A90008074E4E7003C0240164B1B6813F4007F9F
:101AA00010D0144B1A6822F400721A601A6842F4BB
:101AB00000621A601A6822F400621A601A6842F41E
:101AC00000721A600B4B1B6813F4806F10D0094B27
:101AD0001A6822F480621A601A6842F480521A600E
:101AE0001A6822F480521A601A6842F480621A60FE
:101AF000704700BF003C0240F8B5224B1B7E012B13
:101B00003ED00E4604461F4B01221A764CF250304E
:101B1000FFF714FF074670BB4FF0FF3333602368B5
:101B2000012B16D0A568E368A2681344AB4220D904
:101B3000217C2846FFF786FF4CF25030FFF7FEFE6F
:101B4000114A136923F0FA031361074680B901357E
:101B5000E9E76168207CFFF763FF4CF25030FFF744
:101B6000EDFE0746084A136923F00403136100E001
:101B70003560FFF791FF034B00221A763846F8BD17
:101B80000227FBE720330020003C024003689A69EB
:101B900012F0020F01D000229A6203689A6912F0D3
:101BA000010F03D19A6942F001029A61704711F066
:101BB000010F09D090F8413003F02803282B01D001
:101BC000F22302E0422300E0002311F0020F28D0AC
:101BD00010B443F0440490F8412002F02802282A6F
:101BE00011D043F0F40311F4004F0ED110290FD09F
:101BF000202910D0402911D001680A6822EA030385
:101C00000B6010BC70472346EDE743F0B803EDE7E7
:101C100043F09003ECE743F02003EBE743F040038D
:101C2000EAE711F4004F0BD110290CD020290DD078
:101C300040290ED001680A6822EA03030B6070474E
:101C400043F0B803F0E743F09003EFE743F02003DD
:101C5000EEE743F04003EDE77047002859D010B598
:101C6000044690F84130002B43D0242384F84130BF
:101C70002268136823F0010313606368226823F06D
:101C8000706313612268936823F400439360E368F0
:101C9000012B33D0A368226843F404439360E368C4
:101CA000022B31D02268536843F0007343F40043A1
:101CB00053602268D36823F40043D36023696269C8
:101CC0001343A169226843EA0123D360E369216ACF
:101CD00022680B4313602268136843F0010313600A
:101CE00000206064202384F84130206384F842009F
:101CF00010BD80F84030FFF7AFFFB6E7A368226859
:101D000043F400439360CAE723684FF400625A60CB
:101D1000C8E70120704708B5036899691A68436BE2
:101D200003B1984708BD7047704710B50446036873
:101D30001A68002180F8421012F4804F0ED01A6801
:101D400022F480421A6094F84130DBB2292B0DD086
:101D500094F84130DBB22A2B18D010BD12F4004F9A
:101D6000F1D01A6822F400421A60ECE7282384F8C4
:101D700041302123236301212046FFF718FF002370
:101D800084F840302046FFF7CEFFE6E7282384F8AA
:101D900041302223236302212046FFF708FF00235E
:101DA00084F840302046FFF7BFFFD6E77047F8B50C
:101DB00090F8413003F02803282B06D0036808224E
:101DC000DA61002380F84030F8BD044603689E695C
:101DD000C6F300469A69120C02F0FE059A68C2F337
:101DE0000902DF6807F0FE07C168022922D185EAEF
:101DF000D21515F0060F10D1816C01318164816C10
:101E00000229E1D1002181640820D86184F84010C2
:101E100031462046FFF7CAFFD6E74FF40041FFF7EF
:101E2000C6FE002384F840303A4631462046FFF78C
:101E3000BDFFC9E74FF40041FFF7B9FE002384F866
:101E400040302A4631462046FFF7B0FFBCE77047D6
:101E500010B50446174BC36200230363202280F8A9
:101E6000412080F84230436311F0040F12D0036820
:101E70005A6A436A1A70436A01334362038D4BB155
:101E8000013B0385438D013B9BB24385436C43F08B
:101E90000403436448F203012046FFF788FE2368E9
:101EA0001022DA61002384F840302046FFF7CFFF8C
:101EB00010BD00BF0000FFFF7047704708B590F8E5
:101EC0004130DBB2602B06D00023036380F8403042
:101ED000FFF7F2FF08BD202380F8413000230363A1
:101EE00080F84030FFF7E9FFF4E7000010B5044642
:101EF00090F84130002280F842203B48E062628541
:101F0000626C11436164283BDBB2022B19D80321B8
:101F10002046FFF74CFE282384F84130334B63639F
:101F2000236BA26B1AB1112B1BD0212B19D0E26BA2
:101F30001AB1122B36D0222B34D02046FFF7BEFF29
:101F400010BD48F203012046FFF731FE94F84130FE
:101F5000DBB2602B02D0202384F84130002363637E
:101F6000DEE723681A6812F4804F03D01A6822F45F
:101F700080421A60A06BFFF71EFC01280ED0A36BF5
:101F80001B4A1A65002384F84030A06BFFF700FC61
:101F90000028D5D0A06B036D9847D1E72046FFF706
:101FA0008DFFCDE723681A6812F4004F03D01A683A
:101FB00022F400421A60E06BFFF7FDFB01280ED00F
:101FC000E36B0B4A1A65002384F84030E06BFFF79F
:101FD000DFFB0028B4D0E06B036D9847B0E72046E4
:101FE000FFF76CFFACE700BF0000FFFF59210008BE
:101FF0000D23000870B504460D460268166890F877
:102000004130DBB22021D161212B0DD0292B0BD007
:10201000222B01D02A2B0ED148F202012046FFF7D5
:10202000C6FD2223236306E048F201012046FFF7A4
:10203000BEFD212323632268536843F400435360A9
:102040002268536823F0FF7323F48B3323F4FF7368
:1020500023F0010353602046FFF798FD16F4804FEC
:102060003FD02268136823F480431360A36B1BB135
:102070001B685B689BB2638515F0040F10D025F0D8
:10208000040523685A6A636A1A70636A01336362DB
:10209000238D2BB1013B2385638D013B9BB263856F
:1020A000638D9BB21BB1636C43F004036364002334
:1020B00084F842306363636C1BBBE36A13F5803FB3
:1020C0002DD194F84130DBB2222B38D0202384F874
:1020D00041300023236384F840302046FFF723FE7D
:1020E0002CE016F4004FC7D02268136823F4004395
:1020F0001360E36B002BBFD01B685B689BB26385EA
:10210000BAE7616C2046FFF7F1FE94F84130DBB28C
:10211000282B13D129462046FFF79AFE0EE02046D1
:10212000FFF703FE0B4BE362202384F841300023CA
:10213000236384F840302046FFF789FE70BD2023DA
:1021400084F841300023236384F840302046FFF7B1
:10215000EBFDF3E70000FFFFF8B5C76A90F84030E9
:10216000012B00F09C8016460D460446012380F8A2
:10217000403011F0200F02D012F0200F19D115F0CD
:10218000100F3ED016F0100F3BD0638D9BB243BBB7
:1021900094F84130DBB2282B0ED094F84130DBB2FA
:1021A000292B11D023681022DA61002084F8400026
:1021B000F8BDFFF71FFFE2E7B7F1007FEDD1294639
:1021C0002046FFF745FEF0E717F5803FEAD0236889
:1021D0001022DA612046FFF7D9FC2046FFF7A5FD63
:1021E000E3E723681022DA61636C43F0040363645D
:1021F00017B1B7F1807FD8D1616C2046FFF776FE2A
:10220000D3E715F0040F1ED016F0040F1BD0638D1A
:102210009BB26BB123685A6A636A1A70636A0133AE
:102220006362238D013B2385638D013B9BB26385F4
:10223000638D9BB2002BB8D117F5803FB5D02046F7
:10224000FFF773FDB1E715F0080F02D016F0080F85
:1022500017D115F0020FA8D016F0020FA5D0638D8C
:102260009BB29BB1626A236812789A62636A0133F7
:102270006362638D013B9BB26385238D013B2385A4
:1022800093E729462046FFF792FD8EE7B7F1807F5E
:1022900001D0002F89D12046FFF747FD85E70220B6
:1022A00086E710B502689369116813F4807F09D03E
:1022B00011F0800F06D0446C44F0010444644FF4E4
:1022C0008074D46113F4806F0AD011F0800F07D0AE
:1022D000426C42F00802426402684FF48064D461A8
:1022E00013F4007F0AD011F0800F07D0436C43F045
:1022F0000203436403684FF40072DA61416C11F029
:102300000B0F00D110BDFFF7F1FDFBE708B5806BA7
:10231000836B0BB100221A65C36B0BB100221A65E7
:10232000FFF7CCFD08BD90F84130DBB2202B24D163
:1023300090F84030012B22D0012380F84030242334
:1023400080F841300268136823F0010313600268CB
:10235000136823F4805313600268136819431160F3
:102360000268136843F001031360202380F84130B2
:10237000002380F840301846704702207047022042
:102380007047000000230F2B00F2CA80F0B482B027
:102390005DE086685F000324BC4026EA0406CC6842
:1023A000BC4034438460466826EA02064C68C4F3A5
:1023B00000129A403243426056E0DC08083450F87C
:1023C000247003F0070296000F22B24027EA0207AA
:1023D0000A69B2403A4340F8242059E0042200E060
:1023E0000022B2403A4302344E4E46F824204E4A70
:1023F0001468EA4302EA04064F6817F4803F01D0EC
:1024000045EA0406484C2660646802EA04064F6800
:1024100017F4003F01D045EA0406434C6660A46807
:1024200002EA04064F6817F4801F01D045EA04064B
:102430003D4CA660E46822404E6816F4001F01D0AF
:1024400045EA0402384CE26001330F2B65D80122C3
:102450009A400C6804EA0205AA42F5D14C6804F0DF
:102460000304013C012C94D94A6802F00302032AB8
:1024700009D0C4685E000322B24024EA02048A68DC
:10248000B2402243C2604A6802F00302022A94D09A
:1024900004685E000322B24024EA02044A6802F0A3
:1024A0000302B240224302604A6812F4403FCBD09C
:1024B000002201921D4A546C44F480445464526CCE
:1024C00002F480420192019A9C08A61C154A52F817
:1024D000267003F0030296000F22B24027EA02079B
:1024E000134A90423FF47CAF02F5806290420ED0D6
:1024F00002F5806290420CD002F5806290420AD0D0
:1025000002F5806290423FF469AF072269E7012239
:1025100067E7022265E7032263E702B0F0BC704779
:10252000704700BF00380140003C014000380240C5
:10253000000002402DE9F04782B00768CA00521A35
:10254000930003445A6D1B6D9A4257D8B8469B1AA4
:10255000C1EBC104A2000244526C9A4200D31A4655
:102560000C46064602F1030A4FEA9A0A16E009F100
:10257000030A4FEA9A0AE3001B1B9D003544A96C2D
:10258000337C00931FFA89F3E2B2384601F06AFE09
:10259000AB6C4B44AB646B6D4B446B6508EB441305
:1025A00003F510639B699BB2534513D3E3001B1BD8
:1025B0009A003244516D136D99420BD253B15B1A9C
:1025C000C4EBC4018A003244D2F844909945CED37A
:1025D0009946CCE7E3001B1B98000644326D736DEF
:1025E0009A420FD804F00F040121A140D7F83448D3
:1025F00024EA0104C7F83448002000E0012002B0BA
:10260000BDE8F0870020FAE7F0B58BB0002800F0B5
:1026100091800446056890F8BD3323B3032384F802
:10262000BD33EB6B13F4807F01D10023236120685D
:1026300001F0C0FB254655F8107B6E460FCD0FC646
:102640000FCD0FC695E8030086E80300231D0ECBCF
:10265000384601F0EDFA58B1022384F8BD33012564
:1026600028460BB0F0BD80F8BC3319F0F5FED5E775
:102670000021206801F0FAFF002315E0D900C81AF4
:1026800082002244012082F83D0082F83C30A2F80A
:102690004230002082F83F0050649064CA1A9100D2
:1026A000214408650133DBB26568AB42E6D3002301
:1026B00015E0D800C11A8A002244002182F8FD11D9
:1026C00082F8FC3182F8FF11C2F80412C2F8081235
:1026D000C21A90002044C0F810120133DBB29D42B0
:1026E000E7D8254655F8107B6E460FCD0FC60FCDA7
:1026F0000FC695E8030086E80300231D0ECB38467D
:1027000001F094FB054660B9002384F838300123BA
:1027100084F8BD33636A012B08D0206801F064FFA0
:102720009EE7022384F8BD33012599E7204600F097
:10273000CFFCF2E7012593E7026890F8BC33012B48
:1027400019D010B5012380F8BC33836A012B0AD05D
:102750000446006801F028FB206801F037FF0020E4
:1027600084F8BC0310BD8369012BF1D0936B43F453
:1027700080339363ECE702207047000070B5044695
:102780000D460068066C00EB411303F530639A6850
:102790002169012911D037498E4254D03DB9C5EB8A
:1027A000C50293002344D3F81032002B5CD0E9B269
:1027B000204619F09BFE002070BD12F0080F09D0D2
:1027C0002D498E42F7D912F4004FF4D04FF4004255
:1027D0009A60F0E712F0200F28D112F0280FEAD10A
:1027E00025498E4202D912F4004F22D1E900491B3B
:1027F0008A002244D2F804121B69C3F31203C91AD7
:10280000C2F81412D2F80412D2F808320B44C2F8FB
:10281000083235B9C5EBC50293002344D3F8103212
:102820005BB1E9B2204619F061FEC4E720229A604C
:10283000C1E74FF400429A60BDE704F571720121CF
:1028400001F056FFEDE712F4004F09D112F0200F0E
:1028500001D020229A60E9B2204619F047FEAAE78B
:102860004FF400429A60A6E704F57172002101F06E
:102870003FFF9CE70A31544F0A30544F38B50446A5
:1028800003681D6C03EB4111D1F8082B0E4B9D42E0
:1028900007D901F5306112F4004F02D04FF4004324
:1028A0008B60204619F01AFE074B9D4202D923691E
:1028B000012B01D0002038BD04F571720121206880
:1028C00001F016FFF6E700BF0A30544F2DE9F84F2C
:1028D00004460568284601F0C5FE08B1BDE8F88F3A
:1028E0002F460646206801F08DFE0028F6D02068AD
:1028F00001F088FE10F0020F04D02268536903F043
:1029000002035361206801F07DFE10F0100F15D016
:102910002268936923F010039361D5F8208008F0B2
:102920000F09C8F34343022B00F08580062B00F00B
:10293000A5802268936943F010039361206801F039
:1029400061FE10F4002F40F0AD80206801F05AFEC7
:1029500010F4802F40F0F180206801F053FE002831
:10296000C0F25F81206801F04DFE10F4006F0AD0C4
:10297000D5F8083813F0010F40F06D8122685369D3
:1029800003F400635361206801F03CFE10F0006F17
:1029900015D02268536903F00063536194F8F4334F
:1029A000002B40F05C81012184F8F41323685B6DF7
:1029B000C3F38303C4F8F833204600F09CFB20687F
:1029C00001F020FE10F4805F40F04D81206801F09E
:1029D00019FE10F4005F40F0AC81206801F012FE97
:1029E00010F0080F40F0BD81206801F00BFE10F4DC
:1029F000801F40F0BF81206801F004FE10F4001F2A
:102A000040F0C281206801F0FDFD10F0804F40F0E1
:102A1000C581206801F0F6FD10F0040F3FF45EAFB1
:102A200023685D6815F0040F40F0C1812268536887
:102A30002B43536052E747F6F07318EA030F3FF455
:102A400078AF4FEAC90BABEB09034FEA830AA24404
:102A50004FEA1818C8F30A02DAF80812284601F0FB
:102A600023FDC8F30A08DAF808324344CAF80832EA
:102A7000DAF814324344CAF814325AE7082204F54B
:102A80007171284601F010FDC8F30A184FEAC90316
:102A9000A3EB09018A002244D2F814324344C2F85D
:102AA000143246E7206801F0B1FD8046B14617E0D8
:102AB00007EB49130122C3F8082B49462046FFF7CC
:102AC0005DFE1DE007EB49130822C3F8082B4946B9
:102AD0002046FFF7D3FE16E009F101094FEA580836
:102AE000B8F1000F3FF431AF18F0010FF4D05FFAE6
:102AF00089F1206801F09AFD824610F0010FD7D1CC
:102B00001AF0080FDED11AF0100F04D007EB4913AA
:102B10001022C3F8082B1AF0200F04D007EB49133A
:102B20002022C3F8082B1AF4005FD5D007EB491315
:102B30004FF40052C3F8082BCEE7206801F06EFD79
:102B40008046B1462AE05946204619F0DBFC1AF0CF
:102B5000080F04D007EB49130822C3F808291AF01C
:102B6000100F04D007EB49131022C3F808291AF0FC
:102B7000400F04D007EB49134022C3F808291AF08C
:102B8000020F04D007EB49130222C3F808291AF0F8
:102B9000800F41D109F101094FEA5808B8F1000F3F
:102BA0003FF4DAAE18F0010FF4D05FFA89FB594612
:102BB000206801F044FD824610F0010FC7D009F0F3
:102BC0000F03012101FA03F2D7F8343823EA020394
:102BD000C7F8343807EB4913C3F8081923698B4247
:102BE000B1D14FEAC902A2EB090293002344596C08
:102BF0009A6C0A449A64B9F1000FA4D1C9EBC902D6
:102C0000930023441B6D002B9DD104F571720121AB
:102C1000206801F06DFD96E749462046FFF78AFCE3
:102C2000B8E7D5F8043823F00103C5F8043894F860
:102C3000F433012B08D0204619F09EFC226853691A
:102C400003F0004353618DE6002184F8F41320461D
:102C500000F051FAF2E7204619F076FC8EE62046A5
:102C600019F072FCABE605F50068D8F8043023F0E3
:102C70000103C8F804301021206801F0A1F820E019
:102C800007EB46134FF67F31C3F80819D3F8002934
:102C900022F40012C3F80029D3F8002942F00062A0
:102CA000C3F80029C3F8081BD3F8002B22F4001244
:102CB000C3F8002BD3F8002B42F00062C3F8002BBE
:102CC00001366368B342DBD8D8F81C3043F00113F7
:102CD000C8F81C30236BEBB1D8F8843043F00B03F9
:102CE000C8F88430D8F8443043F00B03C8F84430B7
:102CF000D5F8003823F4FE63C5F8003804F5717286
:102D0000217C206801F0F4FC2268536903F48053AD
:102D100053615BE6D8F8143043F4005343F02B03BF
:102D2000C8F81430D8F8103043F00B03C8F810304E
:102D3000DEE7206801F0CBFC206801F03BF9E060A1
:102D4000256800F0DDFA227B0146284600F0B6FF38
:102D5000204619F0E8FB2268536903F400535361DD
:102D60003BE6204619F0D9FB2268536903F00803BB
:102D7000536139E60021204619F00AFC22685369A4
:102D800003F48013536136E60021204619F0FAFB64
:102D90002268536903F40013536133E6204619F0A7
:102DA000FDFB2268536903F08043536131E62046FE
:102DB00019F0FAFB3AE690F8BC33012B0DD010B5B0
:102DC0000446012380F8BC3380F83810006801F015
:102DD000EDFB002084F8BC0310BD02207047F8B55D
:102DE00011F0800F28D101F00F06F500AF1BBC00D9
:102DF000274604F5FC74044404343E46064400258A
:102E000086F8FD5101F00F012170A260E370627835
:102E100002B1E180022B1ED090F8BC33012B1DD0F3
:102E20000546012380F8BC332146006801F0D3F841
:102E3000002085F8BC03F8BD01F00F06F500AF1BBC
:102E4000BC0027463834044404343E460644012579
:102E500086F83D50D6E700232371DDE70220EAE73C
:102E600038B511F0800F21D101F00F05EA00541B95
:102E7000A3001C4603F5FC730344043325460544B4
:102E8000002285F8FD2101F00F01197090F8BC2394
:102E9000012A1AD00446012280F8BC231946006892
:102EA00001F0E4F8002084F8BC0338BD01F00F0401
:102EB000E200151BAB001D463833034404332C4697
:102EC0000444012284F83D20DDE70220EDE770B5DF
:102ED00001F00F05EE00711B8C0004F5FC74044436
:102EE000211D761BB4000444C4F80822C4F8103233
:102EF0000023C4F8143284F8FD3184F8FC510369CE
:102F0000012B06D065B1DAB2006801F0BFF90020EC
:102F100070BDC5EBC506B4000444C4F80C22F1E74B
:102F2000DAB2006801F010F9F1E701F00F01C1EB2E
:102F3000C1018B001844D0F81402704770B501F03D
:102F40000F05EE00711B8C0038340444211D761BE4
:102F5000B4000444A264236500236365012384F85C
:102F60003D3084F83C500369012B06D05DB1DAB2E4
:102F7000006801F08BF9002070BDC5EBC506B400F8
:102F80000444E264F2E7DAB2006801F0DDF8F2E747
:102F900038B501F00F0543689D4236D811F0800F17
:102FA00020D1CA00541AA3001C4603F5FC73034445
:102FB000043322460244002182F8FD1101229A7056
:102FC0001D7090F8BC23012A21D00446012280F80C
:102FD000BC231946006801F08EFA7DB1002084F808
:102FE000BC0313E0EA00511B8B001946383303443D
:102FF00004330144012281F83D20DFE704F57172BA
:10300000217C206801F074FBE8E7012038BD022034
:10301000FCE710B501F00F0443689C422CD811F076
:10302000800F1DD1E3001A1B91000A4601F5FC71C7
:10303000014404310244002382F8FD3100238B70E7
:103040000C7090F8BC33012B18D00446012380F893
:10305000BC33006801F07CFA002084F8BC030CE06B
:10306000E3001A1B91000A4638310144043102443E
:10307000012382F83D30E1E7012010BD0220FCE78A
:1030800030B40468606A29B10D46A36A00EB1340AE
:1030900000230CE040EA0240A06212E003F140018C
:1030A00004EB8101496800EB11400133DBB2691E7A
:1030B0008B42F3D340EA024005F13F0104EB81016A
:1030C0004860002030BC7047036859620020704798
:1030D000034602680121C0F8FC13002083F8F403C2
:1030E000936943F000639361536D43F0805343F061
:1030F0000303536570477047264B9B6803F00C032E
:10310000042B44D0082B01D0234870472DE9F04B05
:10311000204B5A6802F03F025B6813F4800F13D013
:103120001C4B5968C1F3881100231C48A1FB000106
:10313000FEF744F8174B5B68C3F3014301335B00B0
:10314000B0FBF3F0BDE8F08B124B5B68C3F3881360
:103150001E4600275C010025E41A65EB0705A9015E
:1031600041EA9461A001001B61EB0501CB0043EA39
:103170005073C400A01943EB07018B0243EA90533C
:103180008402204619460023FEF718F8D2E70348C8
:10319000704700BF003802400024F40040787D01F1
:1031A000002800F09E8070B50446504B1B6803F069
:1031B00007038B4209D2CBB24C4A1370136803F059
:1031C00007038B4201D0012070BD236813F0020F6A
:1031D00017D013F0040F04D0454A936843F4E0532A
:1031E0009360236813F0080F04D0414A936843F4B6
:1031F000604393603E4A936823F0F003A068034362
:1032000093600D46236813F0010F32D06368012BE1
:1032100021D09A1E012A25D9354A126812F0020FD0
:1032200061D033498A6822F0030213438B60FEF7B2
:1032300019FA06462E4B9B6803F00C036268B3EB49
:10324000820F16D0FEF70EFA801B41F288339842A7
:10325000F0D90320B8E7264A126812F4003FE0D103
:103260000120B1E7224A126812F0007FD9D1012073
:10327000AAE71E4B1B6803F00703AB4209D9EAB269
:103280001A4B1A701B6803F00703AB4201D00120F0
:103290009AE7236813F0040F06D0154A936823F4C5
:1032A000E053E1680B439360236813F0080F07D0E5
:1032B0000F4A936823F46043216943EAC103936092
:1032C000FFF71AFF0A4B9B68C3F30313094AD35C49
:1032D000D840094B1860094B1868FEF777F90020B1
:1032E00072E70120704701206EE700BF003C0240FA
:1032F00000380240B8BB020860090020040000202A
:10330000014B1868704700BF6009002008B5FFF73F
:10331000F7FF044B9B68C3F38223034AD35CD84076
:1033200008BD00BF00380240C8BB020808B5FFF75F
:10333000E7FF044B9B68C3F34233034AD35CD84096
:1033400008BD00BF00380240C8BB02080F2303605D
:103350000B4B9A6802F0030242609A6802F0F00296
:1033600082609A6802F4E052C2609B68DB0803F452
:10337000E0530361034B1B6803F007030B607047C6
:1033800000380240003C024070B582B00446036839
:1033900013F0010F0DD0A54AD2F88C3023F0C06392
:1033A00041690B43C2F88C304369002B6FD0002574
:1033B00000E00025236813F0020F0BD09B4AD2F8DF
:1033C0008C3023F0C053A1690B43C2F88C30A36941
:1033D00003B90125236813F0080F5AD1236813F0AD
:1033E000040F03D094F83820914B1A60236813F02F
:1033F000100F08D08D4AD2F8943023F44003616A4C
:103400000B43C2F89430236813F0200F0DD0874A85
:10341000D2F8943023F00063A16A0B43C2F89430D1
:10342000A36AB3F1006F00F09B80236813F0400F94
:1034300008D07E4AD2F8943023F08053216A0B439F
:10344000C2F89430002D40F08D802368802B00F06E
:103450008980236813F4807F08D0744AD2F88C30B6
:1034600023F00043E16A0B43C2F88C30236813F465
:10347000007F00F0D8806D4AD2F88C3023F40043EE
:10348000216B0B43C2F88C30002002B070BD0125C7
:1034900090E700230193654B1A6C42F080521A6446
:1034A0001B6C03F080530193019B624A136843F441
:1034B00080731360FEF7D6F806465E4B1B6813F464
:1034C000807F06D1FEF7CEF8801B0228F5D90320B5
:1034D000DBE7564B1B6F13F4407312D0E26902F422
:1034E00040729A420DD0514B1A6F22F440725249E9
:1034F00001200860002008601A671B6F13F0010F9D
:1035000012D1E36903F44072B2F5407F1DD0474AFF
:10351000936823F4F813936044490B6FE269C2F394
:103520000B0213430B6759E7FEF79CF806463F4B27
:103530001B6F13F0020FE4D1FEF794F8801B41F2E9
:1035400088339842F3D903209FE738498A6822F4E8
:10355000F81223F0704323F4407313438B60DBE7CE
:10356000012562E7354B00221A60FEF77BF805461D
:103570002E4B1B6813F0006F06D0FEF773F8401B4C
:103580000228F5D9032080E7626B2D4B1A6023686F
:1035900013F0010F01D06269A2B113F0020F01D044
:1035A000A2697AB113F0200F03D0A26AB2F1006FC2
:1035B00008D013F0400F12D0236A83B9A36AB3F185
:1035C000006F0CD16368A26843EA8213E26843EAA1
:1035D0000263226943EA0273144AC2F88430236802
:1035E00013F0800F0CD06368A26843EA8213E2688C
:1035F00043EA0263226943EA02730C4AC2F8843048
:103600000E4B01221A60FEF72DF80546074B1B688A
:1036100013F0006F7FF41DAFFEF724F8401B022863
:10362000F4D9032031E700202FE700BF0038024023
:10363000E011474200700040400E47426800474298
:10364000D8104742002800F0F48170B582B00446DB
:10365000036813F0010F3BD0A74B9B6803F00C03EA
:10366000042B2CD0A44B9B6803F00C03082B21D017
:103670006368B3F5803F4FD0B3F5A02F52D09E4B77
:103680001A6822F480321A601A6822F480221A60C2
:103690006368002B50D0FDF7E5FF0546964B1B688D
:1036A00013F4003F14D1FDF7DDFF401B6428F5D96A
:1036B0000320C3E1904B5B6813F4800FD8D08E4B8E
:1036C0001B6813F4003F03D06368002B00F0B38144
:1036D000236813F0020F55D0874B9B6813F00C0F33
:1036E0003ED0854B9B6803F00C03082B33D0E36876
:1036F000002B68D0814B01221A60FDF7B3FF05460D
:103700007D4B1B6813F0020F54D1FDF7ABFF401B3C
:103710000228F5D9032091E1774A136843F48033F6
:103720001360B5E7744B1A6842F480221A601A6875
:1037300042F480321A60ABE7FDF794FF05466E4B0A
:103740001B6813F4003FC3D0FDF78CFF401B6428B7
:10375000F5D9032072E1684B5B6813F4800FC6D182
:10376000654B1B6813F0020F04D0E368012B01D0F6
:10377000012063E1604A136823F0F803216943EAFA
:10378000C1031360236813F0080F40D0636963B36B
:103790005B4B01221A60FDF765FF0546564B5B6FD8
:1037A00013F0020F33D1FDF75DFF401B0228F5D95E
:1037B000032043E1504A136823F0F803216943EAE8
:1037C000C1031360DEE74D4B00221A60FDF74AFF8C
:1037D0000546494B1B6813F0020FD3D0FDF742FF9B
:1037E000401B0228F5D9032028E1454B00221A602E
:1037F000FDF738FF0546404B5B6F13F0020F06D014
:10380000FDF730FF401B0228F5D9032016E123689D
:1038100013F0040F79D0384B1B6C13F0805F33D159
:1038200000230193344B1A6C42F080521A641B6CD3
:1038300003F080530193019B0125324B1B6813F465
:10384000807F23D0A368012B34D0052B38D02A4B9E
:103850001A6F22F001021A671A6F22F004021A6727
:10386000A368002B36D0FDF7FDFE0646224B1B6FEA
:1038700013F0020F48D1FDF7F5FE801B41F28833AB
:103880009842F3D90320D9E00025D6E71D4A1368F2
:1038900043F480731360FDF7E5FE0646194B1B6881
:1038A00013F4807FCED1FDF7DDFE801B0228F5D911
:1038B0000320C3E0104A136F43F001031367CFE7FF
:1038C0000D4B1A6F42F004021A671A6F42F00102A0
:1038D0001A67C5E7FDF7C6FE0646074B1B6F13F0D8
:1038E000020F11D0FDF7BEFE801B41F288339842D3
:1038F000F3D90320A2E000BF003802400000474295
:10390000800E474200700040EDB9A369002B00F023
:1039100094804D4A926802F00C02082A54D0022B7F
:1039200017D04A4B00221A60FDF79CFE0446464B16
:103930001B6813F0007F45D0FDF794FE001B0228A2
:10394000F5D903207AE0404A136C23F080531364C6
:10395000DBE73E4B00221A60FDF784FE05463A4B3A
:103960001B6813F0007F06D0FDF77CFE401B022889
:10397000F5D9032062E0E369226A1343626A43EAED
:103980008213A26A5208013A43EA0243E26A43EA16
:103990000263226B43EA02732B4A53602B4B0122D2
:1039A0001A60FDF75FFE0446274B1B6813F0007F8B
:1039B00006D1FDF757FE001B0228F5D903203DE094
:1039C00000203BE0002039E0012B39D01E4B5B6822
:1039D00003F48001E269914201D001202EE003F05E
:1039E0003F02216A8A4201D0012027E0616A47F63E
:1039F000C0721A40B2EB811F01D001201EE003F417
:103A00004031A26A5208013AB1EB024F01D00120C5
:103A100014E003F07062E16AB2EB016F01D00120A3
:103A20000CE003F0E043226BB3EB027F0AD00120ED
:103A300004E001207047012000E0002002B070BDCA
:103A40000120FBE70020F9E7003802406000474210
:103A50007047002860D010B50446436A33B9436804
:103A6000B3F5827F05D00023C36102E00023036128
:103A7000436194F85130002B44D0022384F8513034
:103A80002268136823F040031360636803F48273B1
:103A9000A26802F404421343E26802F40062134392
:103AA000226902F002021343626902F00102134329
:103AB000A26902F400721343E26902F03802134370
:103AC000226A02F080021343A26A02F400522168C3
:103AD00013430B60638B03F00403626A02F010026D
:103AE000216813434B60A36AB3F5005F10D02268CE
:103AF000D36923F40063D36100206065012384F857
:103B0000513010BD84F850302046FFF7A1FFB4E7D4
:103B10002368A28D1A61EAE7012070470368304AE2
:103B2000904212D0B0F1804F0FD0A2F57C4290426B
:103B30000BD002F58062904207D002F5806290427D
:103B400003D002F57842904203D123F070034A6813
:103B50001343234A90422AD0B0F1804F27D0A2F5D8
:103B60007C42904223D002F5806290421FD002F541
:103B7000806290421BD002F57842904217D002F545
:103B80007052904213D002F5806290420FD002F53D
:103B9000806290420BD0A2F59832904207D002F595
:103BA0008062904203D002F58062904203D123F4F8
:103BB0004073CA68134323F080034A6913430360C8
:103BC0008B68C3620B688362054B984203D003F590
:103BD0008063984201D10B690363012343617047FD
:103BE0000000014082B000230193019B0133019347
:103BF0000E4A934214D80369002BF6DA002301938E
:103C0000036943F001030361019B01330193074AF8
:103C1000934208D8036913F0010FF5D1002000E0AA
:103C2000032002B070470320FBE700BF400D0300F4
:103C300084B010B5044603A880E80E00089B012B51
:103C40001FD1A36B23F48033A363E36823F48403BD
:103C500023F04003E360E36823F44013E3600F9B29
:103C6000012B09D02046FFF7BDFF069B012B1BD07F
:103C7000BDE8104004B07047E36843F48013E3608C
:103C8000F0E7E36843F04003E3602046FFF7AAFF54
:103C90000C9B23B9A36B43F48033A363E5E7A36BC9
:103CA00023F48033A363E0E7A36843F00603A36033
:103CB000A36843F02003A360DAE70000022A0AD0D9
:103CC0000921C26822F47052C260C36843EA8123AA
:103CD000C360002070472A4B0B442A4A93423FD9C5
:103CE000294B0B44294A93423CD9A1F57403A3F50F
:103CF0001053274A934237D9A1F18373A3F5E743C1
:103D000002F5C332A032934230D9224B0B44224AEF
:103D100093422DD9214B0B4402F5922202F5787281
:103D2000934227D91E4B0B4402F5C32202F52072A1
:103D3000934221D9A1F1B773A3F5585302F5B712F5
:103D400002F55872934219D9164B0B4402F5122210
:103D500002F5F862934201D90621B2E70721B0E7E4
:103D60000F21AEE70E21ACE70D21AAE70C21A8E751
:103D70000B21A6E70A21A4E70921A2E70821A0E771
:103D8000405327FFFF340C00401E1BFF3F420F0033
:103D90007F4F120060B6E5FE5FE3160000D3CEFE53
:103DA000C05BB3FEE05459FE836843F001038360B7
:103DB00000207047836823F0010383600020704770
:103DC00082B000230193890141F020010161019B30
:103DD00001330193054A934205D8036913F0200F7C
:103DE000F5D1002000E0032002B07047400D030031
:103DF00082B00023019310230361019B01330193DF
:103E0000054A934205D8036913F0100FF5D100203D
:103E100000E0032002B07047400D0300D0F80038E6
:103E20001943C0F8001800207047000084B02DE945
:103E3000F041044607A880E80E002546002306E06E
:103E400003F1400204EB82020021516001330E2B8A
:103E5000F6D9119B23BBD4F8043843F00203C4F80D
:103E60000438A36B23F40013A363236843F04003D7
:103E70002360236843F0800323600023C4F8003EDE
:103E800004F50066D4F80038C4F800380C9B012B08
:103E900010D1099B4BB900212046FFF7BFFF0DE071
:103EA000A36B43F40013A363E7E701212046FFF768
:103EB000B5FF03E003212046FFF7B0FF10212046A5
:103EC000FFF77EFF804608B14FF001082046FFF75C
:103ED0008FFF08B14FF00108002333617361F36174
:103EE0000AE0C3B94FF00060C2F8000900220A617D
:103EF0004FF67F328A6001330799994210D905EB5A
:103F0000431202F51061D2F800090028E9DB002015
:103F1000C2F80009EAE74FF09040C2F80009E5E76F
:103F200000230AE0BBB14FF09047C2F8007B0022AB
:103F300002614FF67F3282600133994210D905EB5E
:103F4000431202F53060D2F8007B002FEADB002735
:103F5000C2F8007BEBE74FF00067C2F8007BE6E7B2
:103F6000336923F4807333610023A3616FF08043CE
:103F700063610A9B1BB9A36943F01003A361A269A3
:103F80000B4B1343A3610D9B1BB1A36943F00803C3
:103F9000A361119B012B04D04046BDE8F04104B061
:103FA0007047A36943F0804343F00403A361F3E740
:103FB00000383C80D0F8083813F0060307D0022BF5
:103FC00007D0062B01D00F20704702207047002039
:103FD00070470220704770B40B784A78012A22D0CB
:103FE000D0F81C2803F00F060124B44042EA044232
:103FF000C0F81C2800EB4310D0F8003B13F4004F2E
:104000000ED1D0F8003B8A68C2F30A02C97842EAAE
:104010008142134343F0805343F40043C0F8003B14
:10402000002070BC7047D0F81C4803F00F06B24067
:1040300092B22243C0F81C2800EB4310D0F80029AC
:1040400012F4004FECD1D0F800298C68C4F30A04B4
:10405000C97844EA814444EA8353134343F08053CC
:1040600043F40043C0F80039DAE7000030B40B78BD
:104070004A78012A24D000EB4313D3F8002B002AFE
:1040800050DBD0F83C580A7802F00F02012404FA01
:1040900002F225EA0242C0F83C28D0F81C28097830
:1040A00001F00F018C4022EA0444C0F81C48D3F808
:1040B000001B234A0A40C3F8002B002030BC704785
:1040C00000EB4313D3F80029002A1EDBD0F83C583C
:1040D0000A7802F00F02012404FA02F292B225EAF1
:1040E0000202C0F83C28D0F81C28097801F00F0122
:1040F0008C40A4B222EA0404C0F81C48D3F800198A
:10410000104A0A40C3F80029D7E7D3F8002942F043
:104110000062C3F80029D3F8002942F08042C3F8B6
:104120000029D3E7D3F8002B42F00062C3F8002B3C
:10413000D3F8002B42F08042C3F8002BA1E700BF68
:104140000078F3EF007833EC70B40B784C78012CE6
:1041500026D000EB431000F530631C69E40CE40446
:104160001C611C6924F0FF5424F4C0141C614C69C8
:104170000CB18C684C611C6944F400241C611C69FE
:104180008D68C5F312052C431C61012A65D0D0F857
:10419000003B43F00443C0F8003B002070BC704774
:1041A0004C696CBB00EB4314D4F8105925F0FF5553
:1041B00025F4C015C4F81059D4F8105945F4002559
:1041C000C4F81059D4F81059ED0CED04C4F8105986
:1041D000012A33D000EB4313D3F8002942F0044204
:1041E000C3F800294B69002BD7D0D0F834280978C0
:1041F00001F00F040121A1400A43C0F83428CCE7A4
:1042000000EB431404F510642569ED0CED04256101
:10421000256925F0FF5525F4C01525614E698D6887
:10422000AE4200D94D61256945F400252561256917
:104230004E69C6F3120635432561C9E70A691AB10A
:1042400000EB4311C1F8142900EB4310D0F800290A
:1042500042F00442C0F800299FE7CA68002A96D0BD
:104260005A6194E770B49DF80C4064B903339D081B
:1042700007E000EB023303F5805351F8046B1E6036
:104280000134AC42F5D3002070BC7047F0B583B068
:104290000B784C78012C2BD000EB431303F53064E2
:1042A0002569ED0CED042561256925F0FF5525F400
:1042B000C01525614D69002D40F0C58025698E68C7
:1042C000C6F3120635432561256945F400252561AD
:1042D000012A00F0CD80CA78012A00F0CF80D3F8FF
:1042E000002B42F00442C3F8002B002003B0F0BDC5
:1042F0004C6984BB00EB4314D4F8105925F0FF55EA
:1043000025F4C015C4F81059D4F8105945F4002507
:10431000C4F81059D4F81059ED0CED04C4F8105934
:10432000012A4CD000EB4313D3F8004944F0044475
:10433000C3F80049CC78012C6AD04B69002BD4D04B
:10434000D0F83428097801F00F040121A1400A4374
:10435000C0F83428C9E700EB4314D4F81059ED0C29
:10436000ED04C4F81059D4F8105925F0FF5525F480
:10437000C015C4F81059D4F810694D698F683D44D0
:10438000013DB5FBF7F5474F07EAC5453543C4F88E
:104390001059D4F810594E69C6F312063543C4F8C3
:1043A000105904F51064CD78012DB9D1256925F097
:1043B000C0452561256945F000552561B0E70A69CA
:1043C0001AB100EB4314C4F81429CA78012A08D0A2
:1043D00000EB4313D3F8002942F00442C3F800294C
:1043E00083E7D0F8082812F4807F08D100EB43114E
:1043F000D1F8002942F00052C1F80029E8E700EBAB
:104400004311D1F8002942F08052C1F80029DFE7BA
:10441000D0F8084814F4807F0ED1D3F8004944F056
:104420000054C3F8004914460B46C9681A789B8AA1
:104430000094FFF717FF58E7D3F8004944F0805481
:10444000C3F80049EFE78E683544013DB5FBF6F54A
:104450002669144F07EAC5473E43266127698E68DF
:10446000ADB206FB05F5C5F312053D4325612FE707
:10447000CA68002A3FF42FAF62612CE7D0F8082801
:1044800012F4807F06D1D3F8002B42F00052C3F81B
:10449000002B24E7D3F8002B42F08052C3F8002B06
:1044A0001DE700BF0000F81F70B483B006469508F2
:1044B00002F00302002305E006F58054246841F869
:1044C000044B0133AB42F7D39AB100F58050036837
:1044D000019308460024E3B2D900019BCB4000F8C9
:1044E000013B0134013A92B2002AF4D103B070BC0E
:1044F00070470846FAE70B784A78012A14D000EB97
:104500004310D0F8002B002A06DB2BB1D0F8003B7B
:1045100023F08043C0F8003BD0F8003B43F4001385
:10452000C0F8003B0020704700EB4310D0F8002992
:10453000002A06DB2BB1D0F8003923F08043C0F805
:104540000039D0F8003943F40013C0F80039E9E726
:104550000B784A78012A0ED000EB4310D0F8003BCC
:1045600023F40013C0F8003BCB78023BDBB2012BF5
:1045700015D90020704700EB4310D0F8003923F420
:104580000013C0F80039CB78023BDBB2012BF0D826
:10459000D0F8003943F08053C0F80039E9E7D0F88B
:1045A000003B43F08053C0F8003BE2E7D0F800380E
:1045B00023F4FE63C0F80038D0F80038090101F494
:1045C000FE610B43C0F8003800207047D0F8003E71
:1045D00023F00303C0F8003ED0F8043823F00203B0
:1045E000C0F8043800207047D0F8003E23F00303E1
:1045F000C0F8003ED0F8043843F00203C0F8043895
:10460000002070474269806910407047D0F8183820
:1046100000F50060C0691840000C7047D0F81838E9
:1046200000F50060C069184080B2704700EB41118E
:10463000D1F8082B00F5006040691040704710B4B5
:10464000D0F81048D0F8343801F00F02D340DB0125
:10465000DBB2234300EB411000F510608068184086
:1046600010BC7047406900F00100704738B505463E
:10467000C36823F0C043C360012913D029BBC368BA
:1046800043F08043C36000240120FCF7F1FF0134B4
:104690002846FFF7E7FF08B1312CF5D9322C12D0AC
:1046A000002038BDC36843F00053C36000240120DC
:1046B000FCF7DEFF01342846FFF7D4FF0128EDD0D8
:1046C000312CF4D9EAE70120EBE70120E9E7D0F843
:1046D000003923F4FF6323F00703C0F80039D0F852
:1046E000043843F48073C0F8043800207047000099
:1046F00010B4046C144B9C4203D9D0F8003B002B3F
:1047000016DB0024C0F8104BD0F8104B44F4002402
:10471000C0F8104BD0F8104B44F01804C0F8104B00
:10472000D0F8104B44F0C044C0F8104B012902D01F
:10473000002010BC7047C0F8142BD0F8003B43F0A9
:104740008023C0F8003BF3E70A30544F004870471D
:104750000800002008B5084B1B7863B9064B5B784E
:104760004BB9064B1B6F9847034A92F8203043F031
:10477000200382F8203008BD400C0020F8330020D0
:1047800038B505460EF07EFA022807D008F0AAF9DF
:10479000044620B12846FFF7DDFF00E00124204653
:1047A00038BD0000004870471400002010B590F894
:1047B00020306FF3451380F82030194B9966016063
:1047C00090F820306FF3C71380F82030154AD37F5C
:1047D00043F00501D17743F0850380F8243064234A
:1047E00053770468104BD3F8A43001209847016830
:1047F0002046FCF7C1FA04460021FCF751FC50B9F1
:104800000A490B4BD86DFCF7B7FA2146FCF752FC6E
:1048100018B12B2010BD2920FCE70020FAE700BFCB
:1048200040330020400C0020F83300206666663FCD
:104830005C36002010B504460C201BF00DFC03462E
:1048400050B120686168A268186059609A60074A90
:10485000126832B9054A1360181C18BF012010BD38
:104860000A4691680029FBD19360F5E7000C00200F
:10487000004870472C00002070B54FF0000403255D
:1048800000E08DB16400E6B23446013DAA1C074B3E
:1048900003EB82034FF07E515868FCF701FC0028BF
:1048A000EFD146F00104ECE7204670BD2000002067
:1048B00070B50446FFF7E0FF05460323013B1249AC
:1048C0009A1C01EB82025460002241F82320002B45
:1048D000F4D14FF001064FF07E512046FCF7E0FB8B
:1048E00008B14FF00006094B9E77EDB2FFF7C4FF09
:1048F000C0B2854206D0064A92F8203043F0020347
:1049000082F8203070BD00BF20000020403300201E
:10491000400C002038B50546084C831C00F12202EB
:1049200054F8221054F82300FCF71EF9243504EB48
:1049300085046168FCF718F938BD00BF40330020DA
:10494000F8B5074628B10C46022825D02C4BD87163
:104950004AE0002603240EE0EDB22E43284904F17C
:10496000240301EB830300225A60D1F8A03043F8FE
:104970002420002C35D0013C04F12402204B03EB11
:1049800082034FF0010500215868FCF789FB0028DD
:10499000E2D04FF00005DFE71046FCF799F904EB91
:1049A00084039A00174B1344196BFCF799FA0546D8
:1049B00004F12403124A02EB83034FF0010601467F
:1049C0005868FCF76DFB08B14FF00006F6B20C4AD0
:1049D00004F1240302EB83035D60D2F8A03043F8B6
:1049E0002450074BDF7106B9F8BD074A92F8213011
:1049F00043F0040382F8213010F01AFDF4E700BF01
:104A0000403300205C360020400C002041B10129D9
:104A10000DD001230370022343700023837070477D
:104A20000023037001234370022383707047022325
:104A300003700023437001238370704710B52C4B23
:104A400093F859307BB12B4CA022002120461BF05B
:104A50003FFB294B00221A605A609A60DA601A61A3
:104A6000C4F8A03015E0234C8822002120461BF01A
:104A70002FFBD4F8A0000369E367204BD3F82C3157
:104A80003BB10021984704E084681BF0EDFA1C4B11
:104A90001C601B4B18680028F6D1164C144BDB7FAA
:104AA000E376184B5B6F63654FF07E50FFF700FFB6
:104AB00004F10801207D0CF0D3FC18B9124B5B689F
:104AC000072098470A4B93F859302BB10D4B93F8B8
:104AD000FF3013F0020F00D010BD0C490B200CF07A
:104AE000BFFC0028F8D1084B5B6807209847F3E724
:104AF000400C002040330020E4330020F833002035
:104B0000000C00205C360020C4350020C833002093
:104B100010B5094C00212164084B99640020987657
:104B2000074BD3F88C30984794F8203043F01003AB
:104B300084F8203010BD00BF400C0020403300201E
:104B4000F833002008B50020064B5876064B1B6F43
:104B50009847064A92F8203043F0200382F820302C
:104B600008BD00BF40330020F8330020400C002077
:104B70002DE9F04704460F4600E001342278531E29
:104B8000DBB21F2BF9D93B2A0CD02F2A05D02F2AB4
:104B90000CD0A046254600264CE0364B9B7D13F0FA
:104BA000100FF4D000232370204660E00134F0E7BA
:104BB0009EBB00232B703DE0002E3AD02E4B93F885
:104BC000C63113F0040F49D1AB1BA3F10409002F28
:104BD00046D0D7F800A0BAF1000F01D0002628E097
:104BE0000522264930461BF0A9FF08B1564620E0B1
:104BF00048461BF031FA3860A0B300232B704A46B8
:104C0000711D38681BF059FA564612E01A4688F8AA
:104C1000002008F1010800E02E4656B1AA1B042A24
:104C200007DCA3F16102D2B2192A01D803F05F03B5
:104C30002B7001352B78BBB1202BEED9292BBBD0A3
:104C40003B2BB5D0282BE7D0002EE6D1A3F1610293
:104C5000D2B2192ADAD803F05F02D8E70026E8E7D3
:104C60000026E6E70646E4E788F800302046BDE87F
:104C7000F08700BF400C0020F83300209C4602085B
:104C80002DE9F04FA5B024A9002341F8043DFFF71A
:104C90006FFF037873B92398002802F0E1870021A1
:104CA00009F0D8F923981BF0DFF90023184625B046
:104CB000BDE8F08F0746252B14D1437893B9A34A5A
:104CC00092F8803083F0010382F880302398002826
:104CD00002F0C987002109F0BDF923981BF0C4F93F
:104CE0000023E3E79A4CA822002120461BF0F0F9AC
:104CF0000834964D0FCD0FC40FCD0FC495E80300B7
:104D000084E803004FF0000A8DF810A0CDF814A03D
:104D1000D0463B78242B0DD01AF0010F15D0032379
:104D200021934FF000094D46CDF81890CB46CDF8B1
:104D30001C9026E34FF0010AA4F1280301221A81F6
:104D400083F80A8083F82480E6E70023E8E7002060
:104D50004BE300231F93632D02F29187DFE815F0E8
:104D6000D400D400D400D4007E00D4008F17640097
:104D700064008F1777008F178F178F178F178F1774
:104D80008F17240124012401670167018F178F17F2
:104D90008F178F178F178F1777008F1777008F1741
:104DA0008F17A3008F178F178F178F17BE008F17BE
:104DB00074018F178F177B018F178F178F178F171E
:104DC0008F177B01E901E9018F177E00950195019D
:104DD00095019501950195018F17B6018F178F17D2
:104DE0008F178F178F178F178F178F178F178F1793
:104DF0008F170A018F178F17A3008F178F178F1721
:104E0000DA000A010A010A018F170A010A018F1745
:104E10008F170A012F012F0177004B014B0157011A
:104E2000C101C101DD01DD014A4B93F85C30022B69
:104E300042F028879DF87D3043F040038DF87D30A7
:104E4000072D14BF00220122414B5A7370E028B98C
:104E5000BBF1000F42F019874FF0010B9DF87C3039
:104E600043F001038DF87C30EBB2394A13701C2DEE
:104E700010D01E2D0ED05C2D5AD130B10A2804D08E
:104E8000142802D01E2842F006870344304A1370CB
:104E900000204DE010B10A2842F0FA8618442C4B4D
:104EA0001870002044E02C4BD3F8A430002B02F003
:104EB000F586002842F0F586BBF1000F42F0F4863B
:104EC0009DF87C3043F002038DF87C30204B1D812F
:104ED000002283F827204FF0020B29E01E4BD3F865
:104EE0002431002B02F0E386142806D01E2804D0BB
:104EF000282802D0322842F0DD86184BA3FB003070
:104F000005EBD00564350020BBF1000F42F0D586DB
:104F10004FF0020B9DF87C3043F002038DF87C309B
:104F2000052D1DD00A4B1D81094B002283F8272037
:104F3000002842F0E3861F9B18EA030F42F0E18647
:104F400048EA03084FF000091BE200BF403300208D
:104F5000580B0020400C0020F8330020CDCCCCCCE6
:104F60000028DFD00A2842F0AB86AC4B33221A81EE
:104F70000020D9E7BBF1000F42F0A5869DF87C30F8
:104F800043F002038DF87C30A44A012382F82730D5
:104F9000ABB21381A24A12889B1A18BF012363F394
:104FA000410A4FF0020BC3E79DF87C3043F0040345
:104FB0008DF87C30EBB2113B984A9373B8E760B937
:104FC0009DF87C3043F008038DF87C305B2D14BFD6
:104FD00000220122914B1A73AAE79DF87C3043F01E
:104FE00010038DF87C300A2842F070865A2D02F0AA
:104FF000708600209CE79DF87C3043F020038DF8FC
:105000007C30EBB2C3F15E03844A937290E7854B28
:10501000D3F8A430002B02F05F869DF87C3043F07B
:1050200020038DF87C307D4B02229A7280E79DF838
:105030007C3043F040038DF87C30142D14BF0022E7
:105040000122764BDA7273E79DF87C3043F08003DF
:105050008DF87C306CE79DF87D3043F001038DF8CE
:105060007D30312D0DD00A2842F03986BBF1000F7A
:1050700042F03886694B0222DA7300204FF0030BAE
:1050800056E70020654BD87352E79DF87D3043F01A
:1050900008038DF87D30EBB2363BDBB25F4A137705
:1050A0003B2D7FF445AF00283FF442AF0A2804D0DF
:1050B000142802D01E2842F018865B4AA2FB00206A
:1050C00003EBD003554A1377002031E79DF87D307C
:1050D00043F010038DF87D3000283FF429AF1423EE
:1050E000E4E5524B93F85C30022B42F001864D4BC5
:1050F00093F8793013F0010F02F0FD859DF87D30B3
:1051000043F020038DF87D30A5F16003DBB283F01E
:105110000103424A82F824300AE79DF87D3043F0CB
:1051200002038DF87D30EBB2623B3C4A82F82530B9
:10513000FEE69DF87D3043F004038DF87D30332D7D
:1051400014BF00220122354B83F826204FF0040BB8
:10515000EEE6002842F0D88500231F93442D00F28C
:10516000E381DFE815F04500450045008700870032
:105170008700A500BF00BF00BF00E101E101E10120
:10518000E101E101E101E101E101E101E101E1010F
:10519000E101E101E101E101E101E101E101E101FF
:1051A000E1014500E101E101E101E101E101E1018C
:1051B000E101E101E101E101E101E101E101E101DF
:1051C000E101E101E101FD00FD00FD00FD00E10163
:1051D000FD00E101E101F600E101E101E10145002D
:1051E00087019201920192019201A801CB01CB01AA
:1051F0009DF87D3043F080038DF87D303DB1012D69
:1052000016D0064B83F820504FF00009B2E0034B54
:10521000032283F820204FF00009ABE0580B002058
:1052200040330020F8330020CDCCCCCC400C002003
:10523000AC4B93F8C83113F0200F13D0A94B9B6EE1
:105240009847C0F3421989F0010909F00109B9F141
:10525000000F00F08F80A44B012283F820204FF034
:10526000000987E0A14B93F816906FEA0909C9F38A
:10527000C019ECE79DF87E3043F002038DF87E30D4
:10528000691F18BF0121984A92F8223061F3000388
:10529000042D14BF0021012161F3410382F8223063
:1052A000924A937D43F0400393754FF0000961E00B
:1052B0008F4B93F82C30042B00F04C81894BD3F8A2
:1052C000FC3043B19DF87E3043F001038DF87E3011
:1052D0004FF000094EE0834BD3F83031002BF1D171
:1052E0001423E3E49DF87E3043F004038DF87E3010
:1052F0007E4A937D43F0400393754AF4807A082DEB
:1053000017D0092D1FD0072D02D04FF0000931E032
:10531000744B93F8C43113F0010F02F0F884724A11
:1053200092F8213043F0020382F821304FF0000957
:1053300020E06D4A92F8213043F0010382F82130D9
:105340004FF0000916E04FF00009674B83F82190F9
:1053500010E0674B93F8283113F0040F02F0DA8461
:105360009DF87E3043F008038DF87E305E4B5D7013
:105370004FF000091F9B18EA030F42F0E68448EA49
:105380000308219B5A1C2192FC5C002C00F00A822D
:10539000402C02D8242C42F069845A2C02F26984F1
:1053A00020AA21A9384605F0F3FB28B9B9F1000F6E
:1053B00002F062844F4B2093209E31463046FBF72B
:1053C000A1FE00287FF4C3AC3046FBF7D7FE0546AC
:1053D000FBF77AFC01463046FBF7C4FB4649FBF776
:1053E000CBFC1CF05DFCFBF7C9FE472C3FF4B1ACD5
:1053F0004D2C3FF4AEAE00231E93243C362C02F21B
:10540000A784DFE814F0BA01A514A514A514A51407
:10541000A514A514A514A514A514A514A514A514C4
:10542000A514A514A514A514A514A514A514A514B4
:10543000A514A514A514A514A514A514A514A514A4
:10544000A514A514A514AA00C900D200A514DB0058
:10545000F100FE000B011801A5142D0139014F01C7
:10546000580161016A017301A514A514A5148D01E9
:105470009C01AB019DF87E3043F001038DF87E3036
:105480004FF000090123079374E7164BD3F840311E
:10549000002B02F04284134B93F83D31002B02F0B5
:1054A0003F849DF87E3043F010038DF87E300695E2
:1054B0004FF000095EE70B4BD3F84831002B02F0A8
:1054C0003284084BD3F83C3113F0FF1F02F02E84D6
:1054D0009DF87E3043F010038DF87E3006954FF036
:1054E000000947E7F8330020580B0020400C00204B
:1054F0005C3600200000C07F0000C842A64BD3F8F5
:105500004431002B02F01584A34B93F83F31002B5C
:1055100002F012849DF87E3043F010038DF87E3047
:1055200006954FF0000925E79B4BD3F8A431002BDB
:1055300002F00584A8B29847984B5880002802F0E2
:1055400001849DF87E3043F010038DF87E304FF0DB
:1055500001090FE74FF000090CE79DF87A3043F09E
:1055600004038DF87A308D4B1E638C4BD3F890403A
:105570001E9E344242F00184894B1B681E4206D0B5
:1055800000212098FBF796FD002842F0F983344370
:10559000824BC3F89040F4E69DF8783043F0020364
:1055A0008DF878307D4B5E63DFE79DF8783043F00F
:1055B00004038DF87830794B9E63D6E7002842F0DB
:1055C000CA839DF8783043F008038DF8783031466F
:1055D0003046FBF797FD20B92A46704BC3F884206C
:1055E000C3E74FF0FF32F8E7059B43F00103059353
:1055F0009DF8783043F010038DF87830674BDE6308
:10560000B3E7059B43F0020305939DF8783043F020
:1056100020038DF87830614B1E64A6E7059B43F0AC
:10562000040305939DF8783043F040038DF87830FB
:105630005A4B5E6499E7002842F090839DF87830D9
:1056400043F080038DF8783031463046FBF75AFD41
:1056500020B9EAB2514B83F88C2086E7FF22F9E7A4
:105660009DF8793043F001038DF879303046FBF72F
:105670005FFD4A4BD86778E7002842F072839DF8B7
:10568000793043F002038DF8793031463046FBF72C
:1056900039FD20B92A46414BC3F8802065E74FF019
:1056A000FF32F8E79DF8793043F004038DF8793044
:1056B0003A4BDE6459E79DF87A3043F002038DF8E7
:1056C0007A30364B1E6550E79DF8793043F0080379
:1056D0008DF87930314B5E6547E79DF8793043F0BE
:1056E00010038DF879302D4B9E653EE7002842F07F
:1056F0003B83B5F1FF3F02F03A839DF8793043F0E8
:1057000020038DF8793031463046FBF7FBFC20B999
:105710002A46224BC3F8882027E74FF0FF32F8E7EC
:105720009DF8103043F001038DF810309DF879306A
:1057300043F040038DF87930184BDE6515E79DF88E
:10574000103043F002038DF810309DF8793043F0AB
:1057500080038DF87930114B1E6606E79DF81030F6
:1057600043F004038DF810309DF87A3043F00103C4
:105770008DF87A30094B5E66F7E6002842F0FA822F
:105780009DF8783043F001038DF878303046FBF710
:10579000CFFC024B9867E8E6F8330020580B002056
:1057A000AC4602089DF8103023B1BBF1000F01D1C7
:1057B0004FF0020B994B93F8833013B1BBF1020FFA
:1057C00034D0974B93F8914014F0010F04D0DA6F66
:1057D000944B9A4202F3D7821AF0010F2CD0904BCF
:1057E00093F8903013F0040F02F0D0828C4BDB7AE8
:1057F0002BB18B4D8C49A86BFBF7BEFAA863884B85
:1058000093F8903013F0010F77D0854B9A6FC8F35F
:10581000074313F0020364D04FF0FF318A4262DA8B
:10582000002B02F0B6822723FFF740BA1AF0010FCF
:10583000C7D12823FFF73ABA794B1B89212B15D002
:10584000774A927A012A31D00AB1022AD7D1744B11
:1058500093F8903013F0040F38D1704B9B789A4234
:10586000CDD16E4B5A6E6E4B9A63C8E76C4B93F872
:10587000903013F0400F04D1684B9A6E684B9A64D5
:10588000BDE7674B93F890206FF3861283F8902062
:10589000DB7A43B1624D6449686CFBF76DFA68646A
:1058A0005F4B9864ABE75E4B586CF9E7BBF1020FB6
:1058B000A5D1502BA3D0002BA1D0594B93F89030F9
:1058C00013F0040F9BD11623FFF7F0B9544BDB7A8A
:1058D000002B94D0524D5449A86BFBF74DFAA863A6
:1058E0008DE700219AE7002A02F356824C4B93F889
:1058F00090206FF3000283F89020C8F3072919F075
:10590000200F0AD0464B93F82450012D0FD0434B63
:105910001B7F012B2FD0414B1D7714F010032FD08C
:10592000424A527812F0100F5ED0002229E014F0A3
:10593000100F02F0348293F8923013F0040F14D059
:10594000374B1F6B3A4BD3F8846031463846FBF730
:10595000B1FB00B13E46314B5E65314B93F892206E
:105960006FF3820283F89220D5E7314BD3F884207D
:105970002A4B5A65CFE72F4B1A6C284B9A64CAE71B
:1059800000220892002B34D1244B1B7F73BB234B86
:105990009A6C234B9A65079B002B51D0204B93F8B0
:1059A000923013F0020F02F0FD811D4B1D6D284651
:1059B0001BF02CFF2946FBF7D5F80021FBF770FB05
:1059C000002802F0F2812846FBF7D8FBB0F1FF3F38
:1059D00002F0EE81124BC3F8880093F892206FF327
:1059E000410283F8922033E00122CAE70B4BDA6CC4
:1059F000CFE70E4B5B7813F0100FCCD1074B1B7F1A
:105A0000012BC8D1064B986DDB7A2BB10A49FBF705
:105A1000B3F9034B9865BEE70849F8E74033002027
:105A2000580B0020809698003333CB41340C002073
:105A3000F8330020400C00206666984300007A444A
:105A400014F0200F04D1954BDA6F954BC3F88820E2
:105A5000C8F3074717F0100600F0E480069B002B00
:105A600000F0E0803E3B062B00F2DC80DFE803F034
:105A70000404040438ACAC0014F0040F02F09B8161
:105A8000874BDC6C00212046FBF714FB002842F01A
:105A900095812046FBF772FB0130824B93F83D3134
:105AA000984202F28E817E4D012385F89430204683
:105AB000FBF764FB85F89600069B3E2B0ED0402B2F
:105AC0000AD00022764BC3F8982093F891206FF308
:105AD000820283F89120A5E00122F3E70122F1E799
